:020000040800F2
:1000000000A00020654E0008B54E0008B54E00085F
:10001000B54E0008B54E0008B54E000800000000BF
:10002000000000000000000000000000B54E0008C5
:10003000B54E000800000000B54E0008ED4D000868
:10004000B54E0008B54E0008B54E0008B54E000884
:10005000B54E0008B54E0008B54E0008B54E000874
:10006000B54E0008B54E0008B54E0008B54E000864
:10007000B54E0008B54E0008C12B0008CD2B000876
:10008000B54E0008B54E0008B54E0008B54E000844
:10009000B54E0008B54E0008B54E0008B54E000834
:1000A000B54E0008B54E0008B54E0008B54E000824
:1000B000B54E0008B54E0008B54E0008B54E000814
:1000C000B54E0008B54E0008B54E0008B54E000804
:1000D000D92B0008B54E0008B54E0008B54E0008F3
:1000E000B54E0008B54E0008B54E0008B54E0008E4
:1000F000B54E0008B54E0008B54E0008B54E0008D4
:10010000000000000000000000000000B54E0008E4
:10011000B54E0008B54E0008B54E0008B54E0008B3
:10012000B54E0008B54E0008B54E0008B54E0008A3
:10013000B54E0008B54E00080000000000000000A9
:10014000B54E0008B54E0008B54E0008000000008E
:10015000000000000000000000000000000000009F
:100160000000000000000000B54E0008B54E000879
:10017000B54E000800000000000000000000000074
:0801800000000000B54E00086C
:1001880010B5054C237833B9044B13B10448AFF3C9
:1001980000800123237010BD8C00002000000000A7
:1001A800C850000808B5034B1BB103490348AFF317
:1001B800008008BD0000000090000020C850000822
:1001C80038B50E4A0E4B054618784FF47A73B3FBD0
:1001D800F0F31068B0FBF3F000F0A0F8044658B94B
:1001E8000F2D09D8024629464FF0FF3000F056F887
:1001F800044B20461D6038BD012038BD2400002076
:100208000000002004000020074A08B5136843F0E6
:1002180010031360032000F02FF80020FFF7D0FF31
:1002280004F01CFD002008BD00200240034A044BD6
:1002380011681B780B441360704700BF88020020C8
:1002480000000020014B1868704700BF880200209A
:1002580038B50446FFF7F6FF631C1CBF054B1B7837
:10026800054618BFE418FFF7EDFF401B8442FAD893
:1002780038BD00BF00000020074AD36823F4E063BC
:100288001B041B0C43F0BF63000243F4003300F46B
:10029800E0600343D360704700ED00E0174B30B5D2
:1002A800DC68C4F30224C4F10703251D042B28BF0E
:1002B8000423062D4FF0010505FA03F303F1FF337C
:1002C8008CBF033C00241940A14005FA04F4013C0A
:1002D8002240002842EA01024FEA0212AFBF00F1B1
:1002E800604000F00F00064BD2B2A5BF00F5614098
:1002F800D2B21A5480F8002330BD00BF00ED00E0F0
:1003080014ED00E04209012300F01F0003FA00F099
:10031800014B43F82200704700E100E00138B0F1DA
:10032800807F0AD2064B074A5860F02182F82310D2
:100338000020072298601A6070470120704700BFAC
:1003480010E000E000ED00E0044B1A6804280CBF40
:1003580042F0040222F004021A60704710E000E044
:10036800704708B5FFF7FCFF08BD000001680C4B9B
:10037800994210B54FF0140409D80A4A0A44B2FB4E
:10038800F4F292000264A3F20743C36310BD064B64
:100398000B44B3FBF4F39B000364044BF5E700BF85
:1003A80007040240F8FFFDBFF8FBFDBF0004024050
:1003B80038B5044628B30223856880F8213043689D
:1003C80001682B43C5680A682B4305692B434569B7
:1003D8002B4385692B43C56922F47F5222F03002F2
:1003E8002B4313430B60FFF7C1FF00200123A062DA
:1003F800E06220636063A06384F8213084F8200001
:1004080038BD012038BDF0B590F82040012C35D01A
:1004180090F821500124A54280F820404FF00006B2
:100428004FF0020428D180F82140046886632668CA
:10043800076C26F001062660C66BBD4075606360D8
:1004480043680568102BC36A0BBFA260A160E16016
:10045800E2604BB1236843F00E0323602B6843F03E
:1004680001032B600020F0BD236843F00A032360DA
:10047800236823F00403F0E780F820600220F0BD31
:1004880090F82120022A10B503D0042282630120AB
:1004980010BD0268C46B1168436B21F00E01116036
:1004A800116821F001011160026C012101FA02F2C8
:1004B8006260002480F8211080F8204013B198472A
:1004C800204610BD184610BDC16B026C036870B49D
:1004D8000E681D680424944026420ED015F0040FBF
:1004E8000BD01A6892065EBF1A6822F004021A60DE
:1004F800C36A4C6073B370BC184702249440264208
:1005080012D015F0020F0FD01A68950606D41A6893
:1005180022F00A021A60012380F8213000234C607F
:1005280080F82030836AE5E708249440344211D0EB
:100538002C070FD51C6824F00E041C60012303FA55
:1005480002F24A60836380F82130002380F820306B
:10055800036BCFE770BC70472DE9F74FD1F80080E7
:10056800DFF874915A4A002338FA03F402D103B031
:10057800BDE8F08F012404FA03FA18EA0A0500F02E
:100588009C804C6824F0100BBBF1020F14D14FEA89
:10059800D30E00EB8E0E03F0070CDEF820604FEA56
:1005A8008C0C0F2707FA0CF726EA07070E6906FADC
:1005B8000CF63E43CEF820604FEA430C032706684A
:1005C80007FA0CF7FF4304F0030E3E400EFA0CFE48
:1005D8000BF1FF3B4EEA0606BBF1010F066011D88E
:1005E800866806EA070BCE6806FA0CFE4EEA0B068A
:1005F8008660466826EA0A0AC4F300169E4046EA60
:100608000A064660C66837408E6806FA0CF6374315
:10061800E600C76051D5D9F8186046F00106C9F858
:100628001860D9F8186023F0030707F1804706F02F
:10063800010607F58037019603F0030C019EBE689A
:100648004FEA8C0C4FF00F0E0EFA0CFEB0F1904FE3
:1006580026EA0E0E33D01F4EB04232D006F5806621
:10066800B04230D006F58066B0422ED006F58066DE
:10067800B04214BF0526042606FA0CF646EA0E0612
:10068800BE601668EF4314F4803F0CBF3E402E4313
:100698001660566814F4003F0CBF3E402E43566067
:1006A800966814F4801F0CBF3E402E439660D668AF
:1006B800A40254BF3E402E43D660013354E70026BF
:1006C800DAE70126D8E70226D6E70326D4E700BFF3
:1006D8000004014000040048001002402DE9F04FDA
:1006E800374CDFF8E49000234FF0010C4FF003087B
:1006F8004FF00F0E31FA03F201D1BDE8F08F0CFA7A
:1007080003FA11EA0A0551D05A00066808FA02F2FB
:10071800D243DF08164000EB8707066003F00706A0
:10072800D7F820B0B6000EFA06F62BEA06063E62A7
:10073800866816408660466826EA0A064660C668E5
:100748003240C26023F0030202F1804202F5803297
:1007580003F003079668BF000EFA07FBB0F1904F4D
:1007680006EA0B0A24D0174EB04223D006F580665D
:10077800B04221D006F58066B0421FD048450CBF74
:1007880004260526BE40B24510D1966826EA0B0617
:1007980096602268ED432A40226062682A406260BF
:1007A800A2682A40A260E2681540E5600133A1E72B
:1007B8000026E7E70126E5E70226E3E70326E1E767
:1007C8000004014000040048001000480AB181619B
:1007D80070478162704710B5044600284AD090F8E7
:1007E800413003F0FF021BB980F8402004F074FA8E
:1007F800242384F841302368E1681A6822F0010252
:100808001A60626822F070621A619A68012922F4FB
:1008180000429A60A26824D142F400429A605A6861
:10082800616942F0007242F400425A60DA6822F4C8
:100838000042DA6022690A43A16942EA0122DA60C9
:10084800216AE2690A431A601A6842F001021A60D2
:1008580000202023606484F84130206384F842003B
:1008680010BD42F4044202299A6004BF4FF40062AA
:100878005A60D4E7012010BD90F84120D2B2202A56
:1008880010B51DD190F84030012B19D0242380F8E1
:10089800413003681C6824F001041C601C6824F4BF
:1008A80080541C601C6821431960196841F00101DB
:1008B8001960002380F8412080F84030184610BDA8
:1008C800022010BD10B590F84140E4B2202C1CD194
:1008D80090F84030012B18D0242380F84130036869
:1008E8001A6822F001021A601A6822F4706242EA59
:1008F800012119601A6842F001021A60002380F889
:10090800414080F84030184610BD022010BD00005C
:100918000368DA072DE9F347054611D42B689B07CE
:1009280000F188802B681C0700F1F8802B685807B5
:1009380000F14181EA69002A40F0D781002021E0D6
:10094800BA4C636803F00C03042B07D0636803F008
:100958000C03082B19D16368DF0316D54FF4003355
:1009680093FAA3F2216893FAA3F3B3FA83F303F09B
:100978001F03012202FA03F30B42CFD06B68002B4E
:10098800CCD1012002B0BDE8F0876A68B2F5803F9B
:1009980025D1236843F480332360E36AA96823F0F0
:1009A8000F030B43E36252B3FFF74CFC4FF40036DE
:1009B8008046012796FAA6F3226896FAA6F3B3FAB8
:1009C80083F303F01F0307FA03F31342A6D1FFF7DB
:1009D80039FCA0EB08006428ECD90320D2E723688F
:1009E80032B923F480332360236823F48023D3E7C8
:1009F800B2F5A02FF5D143F480232360C9E7FFF7B0
:100A080021FC4FF400368046012796FAA6F32268A7
:100A180096FAA6F3B3FA83F303F01F0307FA03F376
:100A280013423FF47BAFFFF70DFCA0EB08006428EE
:100A3800EBD9D2E77D4C636813F00C0F07D06368DD
:100A480003F00C03082B21D16368DE031ED40223B4
:100A580093FAA3F2216893FAA3F3B3FA83F303F0AA
:100A68001F03012202FA03F30B4202D02B699342BF
:100A780087D12168F82393FAA3F3B3FA83F26B6959
:100A8800934021F0F802134323604BE72A690126BB
:100A98000AB396FAA6F3B3FA83F303F1845303F582
:100AA80084139B0002271E60FFF7CCFB804697FA51
:100AB800A7F3226897FAA7F3B3FA83F303F01F03A7
:100AC80006FA03F31342D4D1FFF7BCFBA0EB0800EE
:100AD8000228ECD981E796FAA6F3B3FA83F303F177
:100AE800845303F584139B0002271A60FFF7AAFBBF
:100AF800804697FAA7F3226897FAA7F3B3FA83F325
:100B080003F01F0306FA03F313423FF40BAFFFF79A
:100B180099FBA0EB08000228EBD95EE7AA69434ECF
:100B2800434901241AB394FAA4F3B3FA83F30B44A8
:100B38009B0002271C60FFF785FB804697FAA7F306
:100B480097FAA7F397FAA7F3726A97FAA7F3B3FA93
:100B580083F303F01F0304FA03F313427FF4E6AEB2
:100B6800FFF770FBA0EB08000228E7D935E794FAF5
:100B7800A4F3B3FA83F30B449B0002271A60FFF730
:100B880061FB804697FAA7F397FAA7F397FAA7F3BA
:100B9800726A97FAA7F3B3FA83F303F01F0304FA10
:100BA80003F313423FF4C2AEFFF74CFBA0EB08007F
:100BB8000228E7D911E71D4CE369D90034D4E36969
:100BC80043F08053E361E36903F080530193019B91
:100BD8000126184F3B68DA052ED5EB68012B3CD16E
:100BE800236A43F001032362FFF72CFB02278246A6
:100BF800B9464FF0010897FAA7F397FAA7F3002B25
:100C08006BD0226A99FAA9F3B3FA83F303F01F03AE
:100C180008FA03F3134257D0002E3FF48BAEE36972
:100C280023F08053E36185E60026D2E700100240F6
:100C380020819010007000403B6843F480733B6053
:100C4800FFF700FB80463B68DB05C6D4FFF7FAFADE
:100C5800A0EB08006428F6D9BFE63BBB236A23F063
:100C680001032362236A23F004032362FFF7EAFAED
:100C780002278246B9464FF0010897FAA7F397FA78
:100C8800A7F373B3226A99FAA9F3B3FA83F303F0CB
:100C98001F0308FA03F31342BED0FFF7D3FA41F259
:100CA8008833A0EB0A009842E7D996E6052B236A19
:100CB80003D143F00403236292E723F00103236284
:100CC800236A23F004038EE7FFF7BCFA41F2883366
:100CD800A0EB0A0098428ED97FE697FAA7F3626ADA
:100CE80090E797FAA7F3626ACDE7414C636803F08F
:100CF8000C03082B3FF445AE022A4FF0807352D103
:100D080093FAA3F3B3FA83F303F1845303F584133B
:100D18009B0000221A60FFF795FA4FF00077804693
:100D2800012697FAA7F3226897FAA7F3B3FA83F391
:100D380003F01F0306FA03F313422DD162686B6AAE
:100D4800296A22F474120B43134363604FF08073D3
:100D580093FAA3F3B3FA83F303F1845303F58413EB
:100D68009B004FF000751E60FFF76CFA01260746DE
:100D780095FAA5F3226895FAA5F3B3FA83F303F07D
:100D88001F0306FA03F313427FF4D8ADFFF75AFAAC
:100D9800C01B0228ECD920E6FFF754FAA0EB0800A4
:100DA8000228BED919E693FAA3F3B3FA83F303F141
:100DB800845303F584139B0000221A60FFF742FA5C
:100DC8004FF000750746012695FAA5F3226895FAB3
:100DD800A5F3B3FA83F303F01F0306FA03F31342F0
:100DE8003FF4ACADFFF72EFAC01B0228ECD9F4E5AE
:100DF8000010024010B5134C616801F00C03082B79
:100E08001ED14FF4701393FAA3F301F47012B3FADE
:100E180083F322FA03F30C4AD05CE36A0F2292FAB6
:100E2800A2F2B2FA82F203F00F03D340074AD25C6F
:100E3800CB034ABF064B074BB3FBF2F3584310BD35
:100E4800034810BD00100240E0500008F0500008B0
:100E580000127A0000093D005C4A136803F007039A
:100E68008B422DE9F04106460D4630D33268910792
:100E78003AD4D20740D4554A136803F007039D4279
:100E8800C0F092803268524C12F0040F40F0978004
:100E9800130706D56368326923F4605343EAC20333
:100EA8006360FFF7A7FF6368F02292FAA2F2B2FA32
:100EB80082F203F0F003D340464AD35CD840464B55
:100EC80018600020FFF77CF90020BDE8F081136866
:100ED80023F007030B431360136803F007039942D9
:100EE800C4D00120BDE8F0813949B0684B6823F0CF
:100EF800F00303434B60BCE77268354C012A28D1E4
:100F08004FF4003393FAA3F1216893FAA3F3B3FAE9
:100F180083F303F01F0302FA03F30B42E1D0636883
:100F280023F003031A436260FFF78CF97368012BFF
:100F3800074641F288381FD1636803F00C03042B7D
:100F480099D0FFF77FF9C01B4045F5D90320BDE8CC
:100F5800F081022A0CBF4FF00073022393FAA3F129
:100F6800206893FAA3F3B3FA83F303F01F03012174
:100F780001FA03F30342D1E7022B10D1636803F0AF
:100F88000C03082B3FF477AFFFF75CF9C01B404513
:100F9800F4D9DBE7FFF756F9C01B4045D6D863689C
:100FA80013F00C0FF6D166E7136823F007032B4301
:100FB8001360136803F007039D4292D162E76368E8
:100FC800F16823F4E0630B43636061E700200240AB
:100FD800001002403F57000824000020014B186809
:100FE800704700BF24000020084B4FF4E0625B68A4
:100FF80092FAA2F2B2FA82F203F4E063D340044A0E
:10100800D35C044A1068D840704700BF0010024003
:101018004F57000824000020084B4FF460525B68CB
:1010280092FAA2F2B2FA82F203F46053D340044A6D
:10103800D35C044A1068D840704700BF00100240D3
:101048004F5700082400002003682DE9F347DD030B
:10105800044623D57C4DEB69D80000F19880EB69F4
:1010680043F08053EB61EB6903F080530193019BDC
:101078000126764F3B68D90540F18B802B6A13F423
:10108800407340F09B802B6A626823F440731343DB
:101098002B621EB1EB6923F08053EB612068C70710
:1010A80006D5694AA168136B23F003030B43136346
:1010B800860706D5644AE168136B23F440330B4373
:1010C8001363450706D5604A2169136B23F440234F
:1010D8000B431363810606D55B4AE169136B23F062
:1010E80010030B431363820306D5574AA16B536859
:1010F80023F480030B435360430606D5524A216A02
:10110800136B23F020030B431363070706D54E4ADE
:101118006169136B23F440130B431363C60606D5AA
:10112800494AA169136B23F440030B4313638505F4
:1011380006D5454AE16A536823F400030B4353601C
:10114800010606D5404A616AD36A23F4F8730B4353
:10115800D362C20506D53C4AA16AD36A23F4785300
:101168000B43D362C30406D5374A216B136B23F4B0
:1011780080730B43136310F400501CD0324A616B28
:10118800136B23F400730B431363002013E0002652
:101198006FE73B6843F480733B60FFF753F8804682
:1011A8003B68DA053FF56AAFFFF74CF8A0EB08009B
:1011B8006428F5D9032002B0BDE8F087626802F41C
:1011C800407293423FF45FAF296A4FF4803321F4B1
:1011D800407093FAA3F2DFF878E0B2FA82F2724430
:1011E80092000127176093FAA3F3B3FA83F37344C9
:1011F8009B0000221A60CB0728627FF544AFFFF7F7
:1012080021F84FF002088246C14698FAA8F398FAE6
:10121800A8F3A3B12A6A99FAA9F3B3FA83F303F0FE
:101228001F0307FA03F313427FF42DAFFFF70AF801
:1012380041F28833A0EB0A009842E6D9BAE798FA57
:10124800A8F36A6AE7E700BF001002400070004098
:101258000081901003685A6822F0E0025A604268E0
:10126800B2F5827F0AD18268B2F5004F02D0B2F59A
:10127800806F03D11A6822F040021A60826AB2F5C0
:10128800005F07D11A6822F400521A601A6842F403
:1012980000521A60012380F85D30002380F85C302A
:1012A8000320704770B505460C4616462B689868AB
:1012B80010F080000DD0621CF9D024B92846BDE892
:1012C8007040FFF7C7BFFEF7BDFF801B8442EDD813
:1012D800F4E770BDF7B506460C4615461F4631685B
:1012E800886820400ED0B4F5C06F01BF0A7BD2B227
:1012F8008DF807209DF807306B1CF1D025B93046D2
:10130800FFF7A8FF03B0F0BDFEF79CFFC01B8542A6
:10131800E5D8F4E770B513460D4616460A464FF46D
:10132800C0510446FFF7D6FF28B1236E43F02003CF
:10133800236603200FE0324629462046FFF7B2FF16
:101348000028F2D133462A464FF4C0612046FFF701
:10135800C1FF0028E9D170BDF8B54368B3F5827FB5
:1013680004460E4617460BD18368B3F5004F02D0EA
:10137800B3F5806F04D123681A6822F040021A601E
:101388003A4631462046FFF78DFF054628B1236EC1
:1013980043F020032366032513E06368B3F5827FD7
:1013A8000FD1A368B3F5004F02D0B3F5806F08D111
:1013B8003B4632464FF4C0612046FFF78BFF0028BA
:1013C800E5D12846F8BD70B5044600284ED0002364
:1013D800836290F85D3003F0FF021BB980F85C204F
:1013E80003F0A2FC0223216884F85D300B68E268F0
:1013F80023F04003B2F5E06F0B604FF0000332D9E1
:101408001846B2F5706F18BFA362236B2BB9B2F5FB
:10141800E06F8CBF022301232363A6686368A56974
:1014280033432669334366693343E6693343266A9F
:101438003343A66A334305F4007633430B60636A8B
:101448001A43636B2D0C1A4305F004052A43024323
:101458004A60CB6923F40063CB6100200123206636
:1014680084F85D3070BD4FF48050CCE7012070BD2A
:1014780010B5044680B10268022380F85D30136815
:1014880023F04003136003F073FC0020206684F807
:101498005C0084F85D0010BD012010BD2DE9F84303
:1014A8001F4690F85C30DDF82080012B04460D467D
:1014B800164600F01C81012380F85C30FEF7C2FE5E
:1014C80094F85D306168DBB2012B81460AD0B1F532
:1014D800827F40F00881A268002A40F00481042B32
:1014E80040F00181002D00F00081002E00F0FD8009
:1014F800002F00F0FA8094F85D30E0682664042B31
:101508001CBF052384F85D300023B0F5E06F236627
:10151800E364A4F846702365A4F84470A563E787DC
:10152800A787236804D8B4F8462092B2012A2ED996
:101538005A6822F480525A601A6857065EBF1A68C1
:1015480042F040021A60B0F5E06F58D919B1E28F45
:1015580092B2012A06D135F8022BDA60E38F013BFB
:101568009BB2E3870127E38F9BB2A3B9B4F8463057
:101578009BB283B94A4641462046FFF7CBFE002876
:1015880040F0AE80206E003018BF01202FE05A686E
:1015980042F48052CFE777B1E38F9BB25BB1236807
:1015A8009A68920707D535F8022BDA60E38F013B7A
:1015B8009BB2E3870027B4F846309BB26BB123682F
:1015C8009A68D00709D5DB6826F8023BB4F846309C
:1015D800013B9BB2A4F846300127B8F1FF3FC2D0C7
:1015E800FEF730FEA0EB09008045BCD8032001239C
:1015F80084F85D30002384F85C30BDE8F88319B1C5
:10160800E28F92B2012A0AD1E28F92B2012A4DD911
:1016180035F8022BDA60E38F023B9BB2E3870127A0
:10162800E38F9BB223B9B4F846309BB2002BA1D00C
:1016380097B1E38F9BB27BB123689A6891070BD56A
:10164800E28F92B2012A39D935F8022BDA60E38F9A
:10165800023B9BB2E3870027B4F846309BB2DBB16C
:1016680023689A68D20717D5B4F8462092B2012A9F
:101678002CD9DA6826F8022BB4F84620023A92B23E
:10168800A4F84620B4F8462092B2012A03D85A6832
:1016980042F480525A600127B8F1FF3FC0D0FEF7EC
:1016A800D1FDA0EB09008045BAD89FE72A781A73C4
:1016B800E38F013B9BB2E3870135B0E72A781A73C1
:1016C800E38F013B9BB2E3870135C4E71B7B337093
:1016D800B4F84630013B9BB2A4F846300136DAE74D
:1016E800202323664EE7022081E701207FE70220BE
:1016F800BDE8F88338B5044690F85C00012800F08E
:10170800BF80012084F85C0094F85D00C0B2012815
:101718000BD06568B5F5827F40F0B080A568002DD4
:1017280040F0AC80042840F0A98021B901200023B2
:1017380084F85C3038BD002AF8D0002BF6D094F835
:101748005D00E568A16304281CBF052084F85D00DE
:101758000020B5F5E06F2066E064E3872065A38785
:101768002264A4F84430A4F84630A06D03D8426936
:10177800B2F5806FDAD022685168B5F5E06F21F4D0
:10178800C041516021683CD9536823F480535360A9
:1017980094F85D30226C042B0BBF3A4B3A4BC36272
:1017A800C3620CBF394B3A4B83623A4B0363B4F8BC
:1017B800463000259BB20C314563FEF724FE2268B3
:1017C800606D5368A16B43F001035360E38FC562FA
:1017D8009BB20C32856205634563FEF714FE2368ED
:1017E8001A6852065EBF1A6842F040021A605A68C8
:1017F80042F020025A605A6842F002025A60002001
:1018080095E7556845F480555560656D6D69B5F582
:10181800806F0AD113F0010F53681ED123F480435F
:101828005360E38FC3F34E03E3874369B3F5806FD7
:10183800AED1536823F480535360B4F8463013F0A4
:10184800010F536811D123F400535360B4F84630A4
:10185800C3F34E03A4F846309AE743F48043536039
:10186800E38FC3F34E030133DEE743F400535360C1
:10187800B4F84630C3F34E030133EBE7022056E7D2
:10188800022038BDA5180008B1180008DF180008A4
:1018980033190008BD1800087047704708B5406A3A
:1018A800FFF7FBFF08BD704708B5406AFFF7FBFF6D
:1018B80008BD7047406A026808B5536823F00303FF
:1018C8005360036E43F010030366012380F85D3014
:1018D800FFF7EFFF08BD38B50546446AFEF7B2FCCE
:1018E8002B681B689B0602461BD42368596821F0A5
:1018F80020015960596821F003015960204664218C
:10190800FFF72AFD08B1202323660023A4F84630F8
:10191800012384F85D30236E1BB12046FFF7C9FF11
:1019280038BD2046FFF7B8FF38BD38B50546446ACC
:10193800FEF788FC2B681B689B0602461FD42168AB
:101948004B6823F020034B6020466421FFF7E2FC3C
:1019580018B1236E43F0200323662268536823F0EE
:10196800030353600023E387A4F84630012384F877
:101978005D30236E1BB12046FFF79BFF38BD204624
:1019880001F02CF938BD0000036830B559689A6831
:1019980002F04105012D85B0044605D14D0603D559
:1019A800C36C984705B030BD950704D5080602D525
:1019B800236D2046F5E712F4B07FF3D08D06F1D5FC
:1019C80050060FD594F85D0003284FF0000541D06C
:1019D800206E40F0040020660095D8680090986852
:1019E8000090009895060CD5206E40F00100206606
:1019F8000020029098680290186820F04000186053
:101A08000298D00508D5226E42F00802226600220C
:101A180003929A680392039A226E002AC2D05A68E7
:101A280022F0E0025A60012284F85D208A0718D06B
:101A38005A68A06D22F003025A6018B10B4B436339
:101A4800FEF71EFD606D0028ACD0084B4363FEF71F
:101A580017FDA7E70195DA6801929B680193019B3E
:101A6800A0E72046FFF725FF9CE700BF791A00088A
:101A780008B5406A0023A0F84630C387FFF719FF6E
:101A880008BD90F85D00704738B582680568C3697D
:101A98002968044600690243606921F4164102433B
:101AA80021F00C011A430A432A606A68E168206A37
:101AB80022F440520A436A60A968A26921F430619D
:101AC80002430A43AA606E4A954212D102F558426F
:101AD8006C49126B02F00302B3F5004F8A5C66D0C2
:101AE800082A19D8DFE802F0C2929E18A918181817
:101AF800AC00654A954224D102F5E632126B02F435
:101B08004032B2F5803F00F0A08007D8002A00F0EC
:101B1800AA80B3F5004F76D0012038BDB2F5003F5A
:101B280000F09980B2F5403FF3D1B3F5004F79D179
:101B38006068430803F5740303F51053B3FBF0F32F
:101B480054E0524A95420ED102F5E432126B02F487
:101B58004022B2F5802F78D0D8D9B2F5002F7AD0AC
:101B6800B2F5402FE0E74A4A95420ED102F5E2323B
:101B7800126B02F44012B2F5801F66D0C6D9B2F5D6
:101B8800001F68D0B2F5401FCEE7424A9542C0D147
:101B980002F5E032126B02F44002B2F5800F54D025
:101BA800B4D9B2F5000F56D0B2F5400FBCE7082AF9
:101BB80029D801A353F822F0E51B0008091C0008E6
:101BC800391B00080F1C0008591C00080F1C0008CE
:101BD8000F1C00080F1C0008651C0008FFF704FA1A
:101BE80061684A0802EB4003B3FBF1F39BB20020A3
:101BF80023F00F022168C3F342031343CB6038BDBF
:101C0800FFF70AFAECE701200023F1E7FFF704FAEF
:101C1800636800EB5300B0FBF3F0194B80B2D86057
:101C2800002038BD6268530803F5F40303F59053A8
:101C3800B3FBF2F39BB2EB60F2E7FFF7DBF817E0D8
:101C48006268530803F50043F2E7B3F5004FF4D197
:101C5800FFF7D0F8C4E7B3F5004FF1D16068430847
:101C680003F580336AE7B3F5004FB7D0FFF7BCF947
:101C7800636800EB5300B0FBF3F080B2E860CFE795
:101C8800003801400051000800440040004800406E
:101C9800004C004000500040436ADA0710B506D5F2
:101CA8000168846A4A6822F4003222434A609C0729
:101CB80006D50168C46A4A6822F4803222434A6021
:101CC800590706D50168046B4A6822F4802222432A
:101CD8004A601A0706D50168446B4A6822F4004234
:101CE80022434A60DC0606D50168846B8A6822F4C0
:101CF800805222438A60990606D50168C46B8A68B7
:101D080022F4005222438A605A060FD50168046CF7
:101D18004A6822F480122243B4F5801F4A6005D134
:101D28004A68446C22F4C00222434A601B0606D566
:101D38000268816C536823F400230B43536010BD81
:101D48002DE9F041069D04460F461646984621683F
:101D5800CA6937EA02030CBF01220022B24202D04C
:101D68000020BDE8F0816B1CF2D09DB923681A6889
:101D780022F4D0721A609A6822F001029A60202335
:101D880084F8693084F86A30002384F868300320C6
:101D9800BDE8F081FEF756FAA0EB08008542D6D2DE
:101DA800E4E773B504460026C666FEF74BFA2368D7
:101DB8001B681A07054617D423681B685B070AD5F2
:101DC8006FF07E43009300222B464FF4800120469B
:101DD800FFF7B6FFA0B92023002084F8693084F803
:101DE800680084F86A300CE06FF07E430093324656
:101DF80003464FF400112046FFF7A2FF0028DBD06E
:101E0800032002B070BD10B5044660B390F8693085
:101E180003F0FF021BB980F8682002F0BDFF2268BA
:101E2800242384F86930136823F0010313602046E3
:101E3800FFF72AFE012816D0636A13B12046FFF780
:101E48002BFF23685A6822F490425A609A6822F05D
:101E58002A029A601A6842F0010220461A60BDE818
:101E68001040FFF79EBF012010BD0000034B1B6808
:101E7800DA691206FCD580B2188570470C07002075
:101E880028B1036819700368013303607047C8B24A
:101E9800FFF7ECBF2DE9F843141E80460D4627DDF9
:101EA8000A46501B12F8011B0029FAD18442CCBF04
:101EB800241A0C4613F0020F0CBF20273027DB072B
:101EC8001ED42646002E15DC24EAE473E41A5E1BB1
:101ED80006EB050915F8011BA1B92546002D15DCEF
:101EE800002CACBF09EB040009F10000BDE8F88341
:101EF8002027E4E739464046FFF7C2FF013EE1E705
:101F08000023E4E74046FFF7BBFFE1E739464046D8
:101F1800FFF7B6FF013DE1E72DE9F04385B08146C3
:101F28001D460C9FDDF834800C4661B930238DF8CE
:101F380004308DF8051043463A4601A9FFF7AAFF79
:101F480005B0BDE8F0832BB10A2A1CD100291ADAA2
:101F58004C42012504AE002306F8013D0E9B3A3B96
:101F68009CB945B1EFB118F0020F1AD02D2148469F
:101F7800FFF786FF013F43463A4631464846FFF79A
:101F880089FF2844DCE70025E4E7B4FBF2F102FB13
:101F98001144092CC8BFE418303406F8014D0C462A
:101FA800DEE72D2306F8013C0025013EE3E70000AB
:101FB8002DE9F0470E68DFF8089186B007460C1D3A
:101FC80000254FF00A08337823B1252B6DD173789B
:101FD800711C2BB9002F6ED1284606B0BDE8F087DA
:101FE800252B61D02D2B06BFB11C012300230A78B5
:101FF800302A01F1010017D000220878A0F1300E34
:102008005FFA8EFCBCF1090F0E4601F101010FD9F0
:10201800732810D1216804F1040A002908BF494631
:102028003846FFF737FF14E043F002030146DEE7C6
:1020380008FB02E2E1E764280FD161218DE80C007A
:1020480004F1040A029101230A2221683846FFF7A5
:1020580063FF054454460136B5E7782808D104F1F2
:10206800040A61218DE80C00029100231022ECE79C
:10207800582803D104F1040A4121F3E7752807D150
:1020880061218DE80C0004F1040A02910023DBE7CA
:102098006328E0D121688DF8141000218DF81510FF
:1020A80004F1040A05A9BBE70E4631783846FFF764
:1020B800E7FE0135CFE73B6800221A708CE700BFC6
:1020C8000451000808B5411E11F8010F00B908BDF8
:1020D800FFF7CCFEF8E70FB408B5002002A9FFF718
:1020E80067FFBDE8084004B070470000034B1A18AA
:1020F80003EB8003107B5B685B681847680200206D
:10210800064B1A5C42B901221A541A1803EB8003D1
:10211800107B5B681B681847002070476802002026
:1021280030B4054C251804EB800460688468287B6B
:10213800A44630BC604700BF6802002030B4054C9C
:10214800251804EB80046068C468287BA44630BC6A
:10215800604700BF68020020054B10B41C1803EB51
:102168008003207B5B685DF8044B1B69184700BF40
:102178006802002000207047014B1878704700BFA4
:102188001C00002010B5064C0123237000F040FC11
:10219800234618B9227802F0FE022270187810BD82
:1021A8001C00002008B5084611461A46054B00F0E9
:1021B80043FB20B900F02CFC0028FBD108BD01200E
:1021C80008BD00BF00E1F50510B5114B1B78DB0712
:1021D80090B014461AD4032903D8DFE801F010059B
:1021E8000B12042010B010BD684600F07DF90E9B5C
:1021F800236004E0684600F077F90F9B23800020F5
:10220800F0E7684600F070F90F9BF1E70320E9E773
:102218001C00002008B5084611461A46054B00F078
:1022280075FB20B900F0F4FB0028FBD108BD0120A4
:1022380008BD00BF00E1F50510B50824FF2000F037
:102248000FFDFF2803D1013C14F0FF04F6D110BDA7
:102258002DE9FF4141F040018DF80010110E8DF875
:102268000110110C43F001039DF828508DF802105D
:102278000446110A00208DF803108DF804208DF80B
:10228800053000F0B7FC062202A9684600F0BEFC43
:10229800052D49D8DFE805F003142C354835FFF73C
:1022A800CBFF8046FF20054606460746207120469C
:1022B80084F800806770A670E57004B0BDE8F0810E
:1022C800FFF7BAFF8046FF2000F0CAFC074601204E
:1022D80000F090FC0120FDF7BBFF002000F08AFC15
:1022E800FF2000F0BDFCFF28FAD105460646DDE7D1
:1022F800FFF7A2FF8046FF2000F0B2FC0746FF2050
:10230800F3E7FFF799FF8046FF2000F0A9FC074696
:10231800FF2000F0A5FC0646FF2000F0A1FC0546C2
:10232800FF2000F09DFCC1E7FF2005460646074652
:102338008046BBE710B54FF6FF74FF2000F090FC15
:10234800013CFE28A4B203D0002CF6D1022010BD17
:10235800002C0CBF0220002010BD000070B586B014
:1023680000F09CFC5E4B01221A7000238DF80F30A0
:102378001C469DF80F30009401330022DBB2114651
:102388008DF80F3004A89523FFF762FF01209DF810
:10239800106000F02FFCFF2000F062FC9DF80F3069
:1023A800632B03D90124204606B070BD012EE0D16D
:1023B80005234FF4D5720821009304A88723FFF75B
:1023C80047FF9DF81050304600F014FCFF2000F045
:1023D80047FC15F0040422D00024FF2300223721F3
:1023E80004A80094FFF734FF012000F003FCFF204D
:1023F80000F036FCFF230022292104A80094FFF7EF
:1024080027FF9DF81050012000F0F4FBFF2000F09A
:1024180027FC012DE1D0334B1C800024C3E7012D9C
:10242800C0D1FF230022372104A80094FFF710FF32
:10243800012000F0DFFBFF2000F012FCFF234FF02B
:102448008042292104A80094FFF702FF9DF810504C
:10245800012000F0CFFBFF2000F002FC012DE0D0AE
:102468006B0718D4032300930022FF233A2104A802
:10247800FFF7EEFE9DF81040012000F0BBFBFF20A7
:1024880000F0EEFB002C8DD19DF81130154AC3F3F6
:102498008013138087E70025FF230022372104A833
:1024A8000095FFF7D5FE9DF81040012000F0A2FB33
:1024B800FF2000F0D5FB012C7FF474AFFF2300222E
:1024C800292104A80095FFF7C3FE9DF81060204657
:1024D80000F090FBFF2000F0C3FB012EDCD0C1E729
:1024E800A8000020AA0000202DE9F04188B00022B1
:1024F800FF2304460092092102A8FFF7A9FE9DF8D0
:1025080008307BB30125012000F074FBFF2000F0A8
:10251800A7FB0022FF2300920A2102A8FFF798FEDA
:102528009DF80830002B00F001810126012000F001
:1025380061FBFF2000F094FBBE4B1B883543012B49
:10254800E8B240F064814FF40073E3636363A36807
:10255800C3F395130133DB0423635B0AA36308B059
:10256800BDE8F081FFF7E6FE05460028CAD1064619
:1025780004AFFF2000F074FBB8550136102EF8D1D7
:10258800FF2000F06DFBFF2000F06AFB9DF8102093
:102598002378910961F3010362F3870323709DF89F
:1025A800113063709DF812309DF81510A3709DF8D6
:1025B8001330E3709DF814300A0942EA0312A38825
:1025C80062F30B03A3801B0A61F3071363719DF881
:1025D8001630A279D90961F30002991161F3410219
:1025E800591161F38202191161F3C302A271914A70
:1025F8009DF8171010889DF81A2000287CD1207AA1
:102608009E1066F301009DF8186020729B02B009C5
:1026180040EA810103F440631943238961F38D0380
:102628002381A37AF11061F3020366F3C503A37251
:102638009DF81930E17A580960F30201981060F3A7
:10264800C5015B00E17203F00603217B43EAD21364
:1026580063F302012173237C911161F3000352009B
:102668009DF81B1002F07E0242EAD11262F3470382
:102678002374627C9DF81C3061F30602D90961F36A
:10268800C7126274A27C591161F30102991061F3B7
:1026980084029B009DF81D10A27403F00C03E27CD9
:1026A80043EA911363F303024811134660F30413DA
:1026B8009DF81E20E374237D61F30403D10961F3BF
:1026C8004513911161F38613511161F3C7132375F3
:1026D800637D111161F30003911061F3420362F30A
:1026E800C4039DF81F206375A37D510861F3060399
:1026F80062F3C713A37506E79B00207A03F03C0337
:1027080043EA911363F30500BDF8183020725BBAF1
:10271800090401F47C119BB20B43A16863F39B117C
:10272800A160090E6FF30411E17294E7FFF702FE4E
:10273800064600287FF4F9AE07460DF11008FF2081
:1027480000F08EFA08F807000137102FF7D1FF20A4
:1027580000F086FAFF2000F083FA9DF81030237607
:102768009DF811309DF812201B026383638B9BB286
:10277800134363839DF813309DF814201B06E3610F
:10278800E36943EA0243E361E3699DF8152043EAFC
:102798000223E361E2699DF816301343E3619DF873
:1027A800173084F820309DF8183084F821309DF8CF
:1027B80019309DF81A201B066362636A43EA0243D4
:1027C8006362636A9DF81B2043EA02236362626ABC
:1027D8009DF81C301343636294F828209DF81D303F
:1027E80042EA13121B0203F4706384F828206385FD
:1027F800638D9DF81E209BB2134363859DF81F309F
:102808005B0884F82C30012384F82D308EE6238968
:10281800227BC3F38B0302F0070202320133934099
:102828004FF40072E26362790121120991406163F9
:10283800934091E6AA0000202DE9FF47002300936A
:102848000646FF2302A80D46904610214FF4007259
:10285800FFF7FEFC9DF80840012000F0CBF9FF20AF
:1028680000F0FEF914B10027012411E04FF40070C4
:1028780002F042FB07460028F5D04FF40072FF2112
:1028880002F04AFBDFF88090A844A24645450DD1E6
:10289800012000F0AFF9FF2000F0E2F917B1384647
:1028A80002F032FB204604B0BDE8F087B9F80030EA
:1028B800CDF800A0012B14BF4FF400720122FF23B2
:1028C8006A43112102A8FFF7C3FC9DF80830002BCA
:1028D800CAD1FFF72FFD0028C6D131464FF4007248
:1028E800384600F093F9FF2000F0BAF9FF2000F015
:1028F800B7F9012000F07EF9FF20013500F0B0F9AA
:1029080006F50076C2E700BFAA0000202DE9F04FC7
:1029180085B0002300930546FF2302A80E46904683
:1029280010214FF40072FFF793FC9DF80840012036
:1029380000F060F9FF2000F093F954B10124012060
:1029480000F058F9FF2000F08BF9204605B0BDE8EB
:10295800F08F4FF4007002F0CFFA07460028EDD050
:10296800B044A346464503D1384602F0CDFAE6E71F
:10297800264B1B88CDF800B0012B14BF4FF4007212
:102988000122FF237243182102A8FFF761FC9DF87A
:102998000890B9F1000F36D1FF2000F061F9FF204F
:1029A80000F05EF9FE2000F05BF94FF40072394642
:1029B800284600F02BF9FF2000F052F9FF2000F024
:1029C8004FF9FF2000F04CF98246FF2000F048F94B
:1029D8000AF01F03052B06F1010614D1012000F0AF
:1029E80009F9484600F006F9FF2000F039F9FF28F8
:1029F8008146F9D1012000F0FDF8484600F030F991
:102A080005F50075AEE70124AEE700BFAA00002077
:102A18001FB5022300220D21009302A8FF23FFF710
:102A280017FC012000F0E6F8FF2000F019F99DF8E6
:102A380008303BB99DF80900003018BF012005B0E7
:102A48005DF804FB0120FAE770B5514C88B02046C8
:102A5800FFF717F8002840F099804E4B23600123B8
:102A68006361022323610723E3624FF4E063E360B9
:102A78004FF40073484DA3614849E0614FF48273F5
:102A880063601023A060A0622062606285E80A008B
:102A9800A860802328616861A861E8612846EB6026
:102AA800FDF786FC18B1A2213D4802F0D5F865650E
:102AB8006C623C4D3C4B2B608022002328466B60A7
:102AC800AB60EA602B616B61AB61EB61FDF770FC99
:102AD80018B1B321324802F0BFF8012211460F2085
:102AE800A5656C62FDF7DAFB0F20FDF70BFC0022F1
:102AF80001210E20FDF7D2FB0E20FDF703FC00227A
:102B08002A4C11462420FDF7C9FB2420FDF7FAFBC7
:102B18006369274843F480036361636903F48003AE
:102B28000093009B636943F480236361636903F442
:102B380080230193019B4FF4007303930123022523
:102B480005930526032303A9069304950796FDF725
:102B580003FD4FF4004303A9164803930796059510
:102B6800FDF7FAFC4FF480431248039303A9059537
:102B7800FDF7F2FCE369064843F48043E361E36947
:102B880003F480430293029BFEF71DFC08B070BD5E
:102B98003401002000380040F000002058000240B6
:102BA8000B510008AC000020440002400010024015
:102BB80000140048000400480148FDF785BC00BF28
:102BC800AC0000200148FDF77FBC00BFF0000020EA
:102BD8000148FEF7D9BE00BF34010020034B8342F1
:102BE80002BF034B01221A60704700BF3401002066
:102BF80098010020012802464FF4005118BF002216
:102C08000148FDF7E3BD00BF00040048FF2A13B5E3
:102C1800134610D80F4A126800920A4601460E4819
:102C2800FEF73CFC98B10C48FEF722FC02B0BDE868
:102C38001040FFF709BF094C002222600A460146EE
:102C48000548FEF757FD2368002BFCD0EAE702B0E1
:102C580010BD00BF20000020340100209801002092
:102C68007FB50C4B8DF80F001B6800930DF1170210
:102C780001230DF10F010848FEF710FC20B10648AA
:102C8800FEF7F6FBFFF7E0FE9DF8170007B05DF8CA
:102C980004FB00BF2000002034010020144B15481D
:102CA8005A6930B542F480225A615B6987B003F4EF
:102CB80080230093012401A9009B029403234FF46D
:102CC8000055049303940195FDF746FCFFF7BCFEFD
:102CD800224629460748FDF779FD0A24FF20013CD2
:102CE800FFF7BEFF14F0FF04F8D107B030BD00BFF6
:102CF800001002400004004842884378007843EA04
:102D0800022340EA032070470B0A017043700B0C42
:102D1800090E8370C1707047024400F8011B90428D
:102D2800FBD17047154BF0B500252A461C461E6896
:102D3800A6B10768BE4212D15F688668B7420ED155
:102D48009F684669B7420AD1B1B904EB0212938968
:102D5800B3F5807F14BF00201020F0BD012501329B
:102D68000C2A03F11003E2D10DB10020F0BD0229B5
:102D78000CBF00201220F0BD1020F0BDA4010020DF
:102D8800F0B51C4C0768002322462568BD4207D1D0
:102D980066688568AE4203D1A6684569AE421FD011
:102DA80001330C2B04F11004EFD100231D015659F7
:102DB8008EB954195751856840696560A060A6812D
:102DC800A9B902EB03118989013189B202EB031217
:102DD800581C9181F0BD01330C2BE7D10020F0BDC8
:102DE8000029EED002EB031189890029F6D14FF4AE
:102DF8008071EBE7A401002001380B280ED8094A9E
:102E08000301D118898921F4807080B208B1481E65
:102E180080B2D118888118B9D05070470220704705
:102E280000207047A401002083690239023B9942BF
:102E38003DBF4389C06A01FB030000207047C36A95
:102E480002680433490A5289B1FBF2F1186830B1BB
:102E5800814202D3091A0833F8E7586808447047D2
:102E6800024600F10B010020C30143EA500312F8A7
:102E7800010B50FA83F38A42D8B2F5D17047036840
:102E880010B5044653B119460A4611F8010B1F281C
:102E980010D93A28F8D1591C8A4202D04FF0FF3095
:102EA80010BD1B78303BD9B20129F7D8013218463A
:102EB800226010BD002010BD38B50D46044618B973
:102EC80000232B60092038BD0368002BF8D01A783E
:102ED800002AF5D0D98882889142F1D15878FFF735
:102EE80005F910F00100EBD123682B6038BD0138DB
:102EF8000A4411F8013B00F8013F9142F9D17047AB
:102F0800CA7E8B7E032843EA022301BF487D0A7DDF
:102F180042EA002243EA024318467047C2F30723F5
:102F28008A76CB760378032B01BF120C0A75120A36
:102F38004A757047F8B5056B00F13407044601235C
:102F48002A4639464078FFF7F9F8A0B9636AE2697A
:102F5800E070EB1A934201D30020F8BDA678012E49
:102F6800FAD9E36960781D442A4601233946FFF7F8
:102F7800E5F8013EF3E70120F8BDC3780BB1FFF790
:102F8800D9BF18467047F8B50446FFF7F6FF05465F
:102F9800002842D12378032B37D12779012F34D148
:102FA80004F1340601464FF400723046FFF7B4FED0
:102FB800552384F83232AA2384F83332522341222B
:102FC800722184F8343084F83530612384F836303F
:102FD80084F8372084F81A2284F81B3284F81812EF
:102FE80084F8191204F507706169FFF78DFE2169ED
:102FF80004F50870FFF788FE226A607801322263C0
:103008003B463146FFF79AF8257100221146607851
:10301800FFF7A2F8003018BF0120F8BD036B8B4200
:1030280070B506460D4612D0FFF7A7FF044660B9F3
:103038002A46012306F134017078FFF771F8002859
:103048001CBF4FF0FF3501243563204670BD0024B6
:10305800FBE70000002310B5C3704FF0FF33036394
:103068000446FFF7DBFF30BB94F8332294F8323282
:1030780043EA02234AF6552293421ED194F834308B
:10308800E92B05D0636B104A03F0FF13934216D166
:1030980004F16A00FFF730FE0C4B20F07F409842A5
:1030A8000FD004F18600FFF727FE094B984214BFA2
:1030B8000220002010BD042010BD032010BD0220F6
:1030C80010BD002010BD00BFEB0090004641540029
:1030D800464154332DE9F043002385B00B600F4679
:1030E8001546FFF7CCFE061EC0F23E81A14B53F8F1
:1030F8002640002C00F03A813C60237805F0FE055C
:1031080073B16078FEF7F2FFC10709D4002D00F013
:10311800048110F0040000D00A2005B0BDE8F08357
:103128000023F0B223706070FEF7EAFFC20700F1D7
:103138001F810DB14307EFD400212046FFF78AFF16
:10314800022840F0F58004F5FD75002115F8040CFF
:1031580010B12846FFF7D0FD4DF8210001310429B0
:1031680005F11005F2D100255DF82560002E00F06C
:10317800D68031462046FFF76DFF012800F2D08047
:1031880094F8402094F83F3043EA0223B3F5007FD7
:1031980040F0D28094F84B3094F84A5055EA032511
:1031A80004D104F15800FFF7A7FD054694F84490B0
:1031B800E56109F1FF33012B84F8029000F2BC802D
:1031C80094F84170BBB26381002B00F0B5807B1E80
:1031D8003B4240F0B18094F8463094F8458048EA84
:1031E800032818F00F0FA4F8088040F0A58094F881
:1031F800481094F8470050EA012003D104F1540024
:10320800FFF77AFD94F8433094F8422052EA0322FB
:1032180000F0928005FB09F302EB181E9E447045EE
:10322800C0F08A80A0EB0E01B1FBF7F1002900F095
:1032380083804FF6F570814200F2828040F6F57780
:10324800B9428CBF022701270231324406EB0E0037
:10325800032FA16126626262E06273D194F85F2055
:1032680094F85E3053EA022366D1B8F1000F63D1B7
:1032780004F16000FFF740FDA062890001F2FF1130
:10328800B5EB512F58D34FF0FF3363612361032F00
:103298004FF0800323712FD194F8652094F864309F
:1032A80043EA0223012B27D1711C2046FFF7B6FE03
:1032B80010BB94F8332294F83232207143EA022387
:1032C8004AF65522934217D104F13400FFF714FD52
:1032D800294B984210D104F50670FFF70DFD274BD6
:1032E800984209D104F50770FFF706FD606104F5FF
:1032F8000870FFF701FD2061214A27701388013308
:103308009BB21380E3801F4A0023194698588442D1
:1033180008BF99501033C02BF8D10020FDE60320D8
:103328000135042D7FF420AF042805D10120F4E6EF
:103338000428FBD0012801D90D20EEE600261FE75E
:10334800032781E7B8F1000FF6D0022F4FEA4100BA
:1033580018BF4018134418BF01F00101A3620CBF45
:10336800014601EB500189E70B20D6E60C20D4E694
:103378000320D2E69C0100205252614172724161E1
:1033880064020020A401002001292DE9F047054628
:103398000C46174672D9836999426FD20378022B7B
:1033A8003FD0032B50D0012B68D101EB5108416A63
:1033B80001EB5821FFF732FE064638BB05F1340908
:1033C80008F1010AC8F3080814F001041FBF19F82E
:1033D800083003F00F023B0103F0F00314BF13435E
:1033E800FBB209F80830696A0123EB7001EB5A2136
:1033F8002846FFF713FE064640B9CAF3080A44B147
:10340800C7F3071709F80A700123EB703046BDE8C7
:10341800F08719F80A30C7F3032723F00F031F4377
:10342800F0E7416A01EB1421FFF7F8FD0646002892
:10343800ECD1640005F1340304F4FF741A191F5524
:10344800C7F307275770DFE7416A01EBD411FFF78D
:10345800E5FD06460028D9D1A40005F1340304F49B
:10346800FE741C442046FFF747FC27F0704700F025
:10347800704139432046FFF747FCC5E70226C5E7F8
:103488000129F8B505460C4652D9836999424FD2AD
:103498000378022B29D0032B38D0012B48D101EB1C
:1034A8005106416A01EB5621FFF7B8FD10B14FF004
:1034B800FF30F8BD771C696AC6F308062E4401EB95
:1034C8005721284696F83460FFF7A8FD0028EED16A
:1034D800C7F308073D44E30795F8340046EA00209F
:1034E8004CBF0009C0F30B00F8BD416A01EB142181
:1034F800FFF794FD0028DAD16400343504F4FF7432
:103508002B19285D5B7840EA0320F8BD416A01EB7E
:10351800D411FFF783FD0028C9D1A40005F13400B8
:1035280004F4FE742044FFF7E7FB20F07040F8BD78
:103538000120F8BDB1F5001FF8B506460D4601D3C8
:103548000220F8BDCA06FBD1826804687161C2B95D
:103558002378022B01D9A36AA3B92389B3EB551F9A
:10356800EED9A36AF361F369B261002BE8D003EBEB
:1035780055233434C5F308052C44F3613462002024
:10358800F8BD134667891A467F02BD42114604D228
:103598002046FFF749FCF061E5E73068FFF770FF68
:1035A800431C024606D00128CAD9A3699842C7D24B
:1035B800ED1BEAE70120F8BD2DE9F04180460568DA
:1035C8000F4671B92E69F6B1AB699E4228BF012634
:1035D8003446AB6901349C4218D3012E15D8002417
:1035E80009E02846FFF74CFF0128044637D9431C59
:1035F80004D14FF0FF342046BDE8F081AB69984212
:10360800F9D33E46E4E70126E2E702242146D8F84A
:103618000000FFF735FF30B1012820D00130E8D095
:10362800B442D6D1DBE74FF0FF3221462846FFF7F8
:10363800ABFE90B957B9AA696B692C61023A9342FB
:103648000FD92B7943F001032B71D4E72246394671
:103658002846FFF799FE0028EDD00128C9D001249B
:10366800C9E7013B6B61ECE7F8B50D46012D07464C
:10367800114601D80220F8BD0468A3699D42F9D219
:103688002AB14FF0FF322046FFF77EFE08BB2946DD
:103698003868FFF7F5FE064608B90020F8BD01288E
:1036A800E8D0431C14D0002229462046FFF76CFEC0
:1036B80078B9A2696369911E8B4205D201336361AF
:1036C800237943F00103237196423546DFD3E4E7BB
:1036D8000120F8BDC3692DE9F04705460F46ABB197
:1036E800426902F12008B8F5001F0FD2C8F3080993
:1036F8000468B9F1000F4FD181690133C36141B941
:103708002389B3EB581F47D80023EB610420BDE899
:10371800F0876389013B13EA58233DD12046FFF720
:10372800AFFE0128064602D80220BDE8F087421CF9
:1037380002D10120BDE8F087A369984226D3002F63
:10374800E2D0A9692846FFF737FF0646002837D098
:103758000128E9D0431CECD02046FFF70EFC0746B1
:103768000028E6D101464FF4007204F13400FFF757
:10377800D3FA31462046FFF757FB4FF0010A206382
:1037880063899F4210D3236BDF1B2763AE613146E9
:103798002046FFF749FBE86134344C44C5F81480EF
:1037A8002C620020BDE8F08784F803A02046FFF7CC
:1037B800C1FB0028BDD1236B013301372363DFE749
:1037C8000720BDE8F08700002DE9F04F002185B003
:1037D8000546D0F800A0FFF7ADFE8046002840F06F
:1037E8009E804FF0FF334FF0FF092B634E46E96987
:1037F8005046FFF713FC8046002840F090802C6A62
:103808002778002F00F09180E27AE52F02F03F033D
:10381800AB7103D0120705D50F2B05D04FF0FF333E
:103828002B6357E00F2B5ED195F82F30580652D4F2
:10383800790647D56A69637B2A6307F0BF0794F85E
:103848000D9099456FD1E37EA67E46EA032636B2EF
:10385800002E3FD194F80080DAF80CB008F03F0849
:1038680008F1FF334FF00D0808FB03F80121304B36
:10387800F25CA3185878A35C43EA002331B3B8F18B
:10388800FE0F27D81846039300F05CFF08F10102E9
:1038980002903BF81800019200F054FF029981420F
:1038A80018D1039B019A1946904601360D2EDED198
:1038B80023785A0603D511B13BF8183053B9013FA4
:1038C800FEB208E0BE4205D14B46B8E74FF6FF729C
:1038D8009342EAD0FF2600212846FFF7FBFE8046E8
:1038E800002884D01BE026B92046FFF7B9FA8145A5
:1038F80015D095F82F30DB0790D404F10B0105F1B2
:10390800240214F8013B12F8010B8C42A3EB0003CC
:1039180002D0002BF5D081E7002B7FF47FAF404623
:1039280005B0BDE8F08F9946D4E74FF00408F6E7F4
:10393800B95100082DE9F04F90F82F4014F0A00479
:1039480089B0054640F084800668F26832F8143081
:10395800002B55D105F124070C22394605A8FFF79D
:10396800C6FA9DF81F30DB077BD54023DFF82C8291
:1039780085F82F304FF001090B2205A93846D6F8F3
:103988000CA0FFF7B4FAB9F1050F4ED84B46072241
:1039980003F00F0000F13001392988BF00F1370129
:1039A800013A03A810441B094170F1D108A9114438
:1039B8007E2001F8140C9A423DD0F95C202938D1B8
:1039C8003B44072A9BBF08A98918202111F8141C19
:1039D80003F8011BA3EB070198BF01320729F0D9AF
:1039E8002846FFF7F1FE8246A8BB09F10109B9F1A3
:1039F800640FC1D14FF0070A504609B0BDE8F08FF7
:103A08000134A3E7102002F0010E0EEB430313F478
:103A1800803F18BF83EA080301384FEA5202F2D107
:103A280031F8022F002AEDD1B1E7AAF102014B4685
:103A3800F6E70133BFE71346C2E78046012128466F
:103A4800FFF748FE824610B3BAF1040FD2D0D3E78D
:103A58004FF0060AD0E70428CED19DF81F3085F82C
:103A68002F309DF81F30D5F800909B0748BF0C34C5
:103A78004FF00001284649BF0D230124B4FBF3F49D
:103A88000134FFF757FD82460028DDD18046E969F9
:103A98004846FFF7C3FA82460028D5D12B6A1B781F
:103AA800E52B01D0002BC8D108F101084445C5D148
:103AB800013C56D069692846A1EB4411FFF73AFD4D
:103AC8008246002898D13846FFF7CAF94FF6FF79A1
:103AD8008046E9693046FFF7A1FA824600288BD173
:103AE8002B6AD6F80CC083F80D800F22E1B24FF094
:103AF8000D0EDA724A1E0EFB02F218739876D8760B
:103B08000192864648451FBF019A3CF812000132CF
:103B18000192214A1EF802A00EF1010E03EB0A0BD6
:103B280003F80A004FEA102A002808BF4846BEF1E9
:103B38000D0F8BF801A0E5D1484503D0019A3CF858
:103B480012200AB941F0400119700123F3700021D5
:103B58002846FFF7BFFD824600287FF44DAF013CA1
:103B6800B7D1E9693046FFF759FA824600287FF451
:103B780043AF20225146286AFFF7CEF80B22394678
:103B8800286AFFF7B4F995F82F302A6A03F018036A
:103B980013730123F3702FE7B951000821100100B6
:103BA8002DE9F74F0368009307460B782F2B8846BB
:103BB80001F10101F9D05C2BF7D00021B96098F828
:103BC80000301F2B77D88023384687F82F3003B072
:103BD800BDE8F04FFFF7AEBC5C287CD0B4F5807F21
:103BE8000BD0012100F090FD38B17F2807D8864915
:103BF80011F8012F1AB19042FAD10620F2E025F807
:103C0800020F26465FE032F8021D202901D02E2936
:103C180074D1013E70E0013180E0D14580F0A88088
:103C2800B24211D1BAF10B0F06D1A5E0B24203D0CE
:103C380044F0030400F2A480AD00EDB232464FF028
:103C48000B0A4FF008098CE07F280DD9002101925A
:103C580000F05AFD019A18B16C4B184410F8800C0A
:103C680080B244F0020438B1694B13F8011F0029EF
:103C780000F0BB808142F8D144F003045F2007EBD9
:103C8800090109F1010981F824006AE045F00205FB
:103C9800F5E75A0700F1A680BB79DB0663D5009BE0
:103CA80003F134017B69C3F308031944009B1878B6
:103CB800FFF726F9B8603B68D3F80CB008F1FF3974
:103CC800ABF10205002619F8010F1F2806F10104BF
:103CD8000BD92F2880D108EB0402A2EB080412F8B4
:103CE800011B2F29F9D05C29F7D02028A0440BEB21
:103CF800460234BF04240024002E84D14FF000096A
:103D08000BEB46052BF81690002E3FF476AF2021DA
:103D18000B2207F12400FEF7FFFF49463BF811206C
:103D2800202A3FF478AF2E2A3FF475AF09B144F04A
:103D3800030435F8022D2E2A01D0013EF9D14FF0A7
:103D480000094FF0080A4D463BF811004A1CB8B16B
:103D5800202804D02E287FF460AFB24205D044F06A
:103D680003041146F0E705203CE0D145FFF45AAFC3
:103D7800BAF10B0F7FF45AAF44F003044FF00B0A6B
:103D880097F82430E52B04BF052387F82430BAF1CF
:103D9800080F04BFAD00EDB205F00C030C2B03D0E7
:103DA80005F00302032A01D144F00204A10709D453
:103DB80005F00305012D08BF44F01004042B08BFCB
:103DC80044F0080487F82F403846FFF7FDFC97F8C1
:103DD8002F3000283FF45DAF042803D113F0040FFF
:103DE80008BF052003B0BDE8F08FA0F141011929F3
:103DF8007FF64CAFA0F1610119299EBF203845F02C
:103E0800010580B23BE700BFC551000839510008E1
:103E1800CE510008F0B585B01646019004A800916F
:103E280040F8041DFFF72BF8051E1FDB114951F858
:103E380025405CB1002310481A461F58BC4208BFF1
:103E48001A501033C02BF8D100232370019808B101
:103E58000023037041F8250030B1012E08D100225B
:103E680001A96846FFF736F905B0F0BD0B20FBE75E
:103E78000020F9E79C010020A40100202DE9F0436F
:103E880093B0904601910546002800F0F28002F0B8
:103E98003F06324603A901A8FFF71CF9002840F0A5
:103EA800E680039B04934FF4007000F08DFC0746F6
:103EB800002800F0E080039B0199D86004A8FFF770
:103EC8006FFE044660B99DF93F30002B64DB16F0A5
:103ED8003E0F14BF0121002104A8FEF723FF04466A
:103EE80018F01C0F6CD0002C60D0042C5AD17649E5
:103EF80000231A015258002A50D104A8FFF71AFDCE
:103F0800044600283ED146F00806300763D5FEF780
:103F180031F9024601460C980E30FEF7F5FE0C9872
:103F280011461630FEF7F0FE0C9B039C2022DA7235
:103F3800DDF8309020784946FEF7E2FF0022494636
:103F480080462046FEF7EAFF0C9B00221A775A7734
:103F58009A77DA77039B0121D970B8F1000F3AD02C
:103F6800414604A8D3F83090FFF77EFB044648B9D1
:103F780049460398FFF752F8039B08F1FF3119618E
:103F8800044640B3384600F021FC0CB100232B60F6
:103F9800204613B0BDE8F0830624A1E701330C2BBB
:103FA800A7D11224384600F011FCEFE79DF816302F
:103FB80013F0110F59D118F0040FA6D00824E1E727
:103FC800002CDFD19DF81630DA064CD418F0020F19
:103FD80001D0DC0749D4039B30071B6B6B6248BFD9
:103FE80046F0400616F0FE0F0C9BAB6214BF012191
:103FF800002104A8FEF7C4FE286100283DD1022450
:10400800C0E7039BA9685E89C5F8189076024E45FB
:1040180001D300240CE02868FFF732FA0128014692
:104028001FD9421C54425441A9EB0609002CEED07A
:10403800E961002CA6D1C9F30803002B41D0039CE9
:104048002046FEF7F1FE0028D9D000EB59222A625B
:10405800607801234146FEF763F8041C18BF012469
:1040680090E70224E0E704248CE707248AE7044663
:104078008CE709248CE711248AE7039CDDF830805B
:1040880020784146FEF73CFFA86008F11C00FEF7C7
:1040980033FE05F13008E388E8600021AB80E9626F
:1040A8002C602E7569752962A9614FF4007240462B
:1040B800FEF732FEB30604D5D5F80C90B9F1000F1F
:1040C8009FD100245EE700BFA40100202DE9F04F36
:1040D8009B4685B000238946CBF8003003A90446E7
:1040E8001546FEF7E9FE064600BB667DF6B9237D58
:1040F800DA0740F19680E368A769DF1BAF4228BF63
:104108002F4604F1300A8FB1A169C1F30803002BCF
:1041180079D1039B5B89013B13EA5123019319D1A0
:1041280041B9A068012810D802266675304605B046
:10413800BDE8F08FE36A1BB12046FEF780FEF1E789
:10414800E1692068FFF79CF9ECE7431C01D10126DF
:10415800EBE7E061039BE16900931846FEF764FE14
:104168000028E1D0019B7D0A03EB00082DD0009BBD
:10417800019A5B8900982A449A4288BF019A40783C
:1041880088BF9D1A2B4642464946FDF7C9FF0028BD
:10419800DDD194F91430002B0BDA206AA0EB08006B
:1041A800854206D94FF40072514609EB4020FEF7CC
:1041B8009EFE6D02A3692B44A361DBF800302B44FB
:1041C800A944CBF800307F1B9DE7226A904518D0A0
:1041D80094F91430002B0BDA0098012351464078EB
:1041E800FDF7ACFF0028B2D1237D03F07F032375D0
:1041F80003980123424651464078FDF791FF002875
:10420800A5D1C4F82080A169C1F30801C1F50075E2
:10421800BD4228BF3D462A4651444846FEF767FE40
:10422800C8E7072682E72DE9F04F9B4685B00023B3
:104238008946CBF8003003A904461746FEF73CFE32
:10424800064658BB667D4EBB237D9A0740F1AE807B
:10425800A369FB4228BFDF4304F1300AD7B1A16943
:10426800C1F30803002B40F08F80039B5B89013B5F
:1042780013EA5123019324D131B9A068A0B90146AA
:104288002046FFF799F904E0E36A5BB12046FEF7A0
:10429800D6FD48B9237D43F040032375304605B069
:1042A800BDE8F08FE169EBE7012802D102266675C7
:1042B800F4E7431C01D10126F9E7A368E06103B9DB
:1042C800A06094F91430002B0CDA0398226A407825
:1042D80001235146FDF732FF0028ECD1237D03F07E
:1042E8007F032375039BE16900931846FEF79CFD45
:1042F8000028DBD0019B7D0A03EB000832D0009B2D
:10430800019A5B8900982A449A4288BF019A4078AA
:1043180088BF9D1A2B4642464946FDF70FFF0028E5
:10432800C9D1216AA1EB08018D420AD94FF4007264
:1043380009EB41215046FEF7DAFD237D03F07F03A8
:1043480023756D02A369E2682B44A3619A422CBFCE
:10435800E260E360DBF800302B44A944CBF800307E
:104368007F1B7BE7236A98450CD0A269E3689A42D1
:1043780008D200980123424651464078FDF7D0FE06
:10438800002898D1C4F82080A069C0F30800C0F5BF
:104398000075BD4228BF3D462A4649465044FEF7AF
:1043A800A6FD237D63F07F032375CBE7072675E71A
:1043B8004368002B37B5044614DB5D1C03443C2DD1
:1043C80019730BDD01AB2A4600F10C010068FFF7F9
:1043D8002AFF019B5D1B18BF4FF0FF35A36865607E
:1043E8000133A36003B030BD4268002A13B5044608
:1043F80003DA4FF0FF3002B010BD00F10C0101AB41
:104408000068FFF710FF0028F3D16268019B9A4209
:10441800EFD1A068EFE7F7B501A90446FEF74CFD18
:10442800054600283AD1237D5A0637D51B060CD5F8
:104438000198226A4078012304F13001FDF77EFEDD
:1044480078BB237D03F07F032375FDF793FE616A34
:1044580007460198FEF7E2FD0546F8B9A66AF37A21
:1044680043F02003F372A26820683146FEF756FD38
:10447800E16806F11C00FEF747FC394606F1160014
:10448800FEF742FC0198B5740123F574C370FEF77A
:104498007AFD237D23F0400305462375284603B0A3
:1044A800F0BD0125FAE713B50446FFF7B4FF48B994
:1044B80001A92046FEF700FD20B92069FEF79CFC03
:1044C80000B9206002B010BD0EB42DE9F0479DB0D0
:1044D80025AA002152F8043B09900A910B910092F9
:1044E80001AE1978002900F0E080252904D05D1C70
:1044F80009A8FFF75DFF5DE05978302929D199783F
:10450800DD1C012200270A20A1F13003092B29D93B
:1045180001F0DF034C2B02BF297842F00402013579
:10452800002900F0C280A1F16103192B9ABFA1F103
:104538002003DBB20B464F2B3ED019D8432B00F09B
:104548009680442B00F09B80422BD1D14FF0020E75
:1045580034E02D2919BF9D1C0022DD1C997808BF65
:104568000222CFE700FB0717303F15F8011BCBE706
:10457800552B00F08480582B7ED0532BB8D1009B4C
:10458800D3F80080191D00914346A3EB080413F8E3
:10459800011B0029F9D1930704D42346BB4204F137
:1045A800010455D308F1FF3818F8011F002954D128
:1045B800A74256D82B4694E74FF0080E12F0040F86
:1045C80000985FD0041D00680094442B04D1002893
:1045D800BCBF404242F0080278290CBF4FF02708C0
:1045E8004FF007080021B0FBFEFC0EFB1C04E3B2F1
:1045F800092C84BF4344DBB2303360464C1C7354EF
:10460800BCF1000F02D0202C42D11F21100705D584
:104618001CAB1C442D2304F86C3C8C1C12F0010FBD
:1046280014BF4FF030094FF020099307A04636D544
:10463800013C09A8315DFFF7BBFE002CF8D14745C6
:10464800B8D9494609A8FFF7B3FE08F10108F6E70B
:10465800202109A8FFF7ACFE9FE709A8FFF7A8FEED
:10466800A2E7202109A8FFF7A3FE0134A0E7009BD9
:104678001A1D009219783BE74FF0100E9EE74FF095
:104688000A0E9BE7442B00F10403009300689DE7A2
:104698002146A8E7494609A8FFF78AFED046B8454B
:1046A80008F1010AF6D3D046C2E709A8FFF79CFE35
:1046B8001DB0BDE8F04703B07047000030B50F4BA0
:1046C8009C7B012C18D89D7BEDB200245C559D7B0A
:1046D80003EB85056860987B184402739A7BD2B215
:1046E800501CC0B298733A2330324B702F230A7093
:1046F8008B70CC70204630BD012030BD6802002090
:104708000022FFF7DBBF00007F2810B516D931B1B2
:10471800FF2812D80A4B803833F8100010BD084A19
:1047280032F8114084428BB203D001318029F7D18D
:104738000B4603F18000C0B210BD002010BD00BFC1
:10474800D651000870B51E4A1E4BB0F5805F28BFD1
:104758001346191D31F8043C0A4683B398422ED3F8
:1047680031F8024C250AE4B2E618B04221DA082DE5
:1047780025D8DFE805F005090F11131517191B00D7
:10478800C01A31F8100070BDC31A03F00103C01A33
:1047980080B270BD1038FBE72038F9E73038F7E70A
:1047A8001A38F5E70830F3E75038F1E7A0F5E35099
:1047B800EEE70431002DCDD102EB4403C9E770BD0B
:1047C800C8540008D652000800F096BB00F09CBB05
:1047D80030B59FB0032305934FF4A023069300231D
:1047E800079310230A934FF48033012402250D9375
:1047F80005A84FF4801309940C950E93FCF788F8DC
:1048080000B1FEE70F238DE8280002904FF4806383
:104818000490214668460393FCF71EFB00B1FEE7AF
:104828002123119016900FA80F93FCF70DFC044656
:1048380000B1FEE7FCF7D2FB4FF47A73B0FBF3F05C
:10484800FBF76CFD0420FBF77FFD224621464FF065
:10485800FF30FBF723FD1FB030BD00002DE9F0430A
:10486800734C8DB0FBF7D0FCFFF7B2FF636971485A
:1048780043F400136361636903F400130293029B1A
:10488800636943F400236361636903F400230393BA
:10489800039B636943F480036361636903F48003E2
:1048A8000493049B636943F400336361636903F40D
:1048B80000330593059B636943F48023636163694F
:1048C80003F48023002206934FF60871069BFBF73A
:1048D8007DFF37230025079307A9574B55480893B1
:1048E80001260995FBF738FE4FF6087307A95148CA
:1048F8000793089609950A95FBF72EFE07A94FF02E
:104908009040079608950995FBF726FE4FF4C0538B
:10491800079302230E27089307A903234FF090401B
:104928000A930B970995FBF717FE63693343636195
:104938006369424C33402A46294638460793079B09
:10494800FBF7ACFC3846FBF7DDFC29462A460F206E
:10495800FBF7A4FC0F20FBF7D5FC394F394BA560BA
:10496800204684E88800E66025616561A561E56107
:104978002562FBF730FF014600B1FEE72046FBF752
:104988007BFF014600B1FEE72046FBF79BFF00B125
:10499800FEE72D4B2D4A98604FF4827483E814008B
:1049A8004FF44072DA604FF40072186158619A61EE
:1049B8001862082258629862072118631846DA615B
:1049C800D9625A63FCF7FFFC00B1FEE7204B21498E
:1049D80098604FF4E13283E80600D86018610C2231
:1049E8009861D8611862586218465A61FDF70BFA47
:1049F80000B1FEE71848FDF765FB18491848FFF7AE
:104A08007FFE18B11748FDF75DFBFEE7FDF7A6FC32
:104A1800024618B11448FDF755FBF6E71349144848
:104A2800FFF7F8F940B31348FDF74CFBEDE700BF7B
:104A3800001002400010004800001210BC040020C2
:104A48000E09002000540040880700200030014073
:104A58000C07002000380140845500087C0700201E
:104A68000800002099550008B4550008C9550008E9
:104A7800F0070020CB5500085F48FDF723FB3222E2
:104A88005E495F48FFF7FAF90446002840F0828043
:104A98005C485D4E5A4DFDF715FB5C495848FFF7D9
:104AA80013FD2246314628460134FFF70DFD0A2C36
:104AB800F7D15348FFF7F7FC5548FDF703FB554A74
:104AC800002316469B540133B3F5007FFAD15248B0
:104AD800FDF7F8FA0A2251494948FFF7CFF9504B38
:104AE80004461870002863D1FBF7ACFB4D4D494FC5
:104AF800DFF80C81DFF85C9128606B464FF4007298
:104B080039464046FFF78FFB002845D021464648E6
:104B1800FDF7E1FAFBF796FB2B68444CC01A2060BE
:104B28003748FFF7C0FC21684148FDF7D4FA4148EF
:104B3800FDF7C8FA012239493148FFF79FF90446C1
:104B4800002855D1FBF77EFB364DDFF8C880DFF82B
:104B5800B090394F286001AB4FF400724146484687
:104B6800FFF7B4FA38B321463448FDF7B4FAFBF737
:104B780069FB2B682D4CC01A20602148FFF793FC75
:104B880021682B48FDF7A7FA396811B12C48FDF7C1
:104B9800A2FA3AE72B4890E70099B1F5007F02D0D6
:104BA8004846FDF798FA0134B4F5006FA5D1B1E78E
:104BB80001462548B9E70199B1F5007F02D023489D
:104BC800FDF789FA00213A680B4616F803E0D8B2D7
:104BD800864503F101031CBF01320121B3F5007FB3
:104BE800F3D101B13A600134B4F5006FB3D1BEE737
:104BF8001748FDF767FACCE7DD550008ED550008C2
:104C08008C020020F6550008315600080B560008A3
:104C18003856000808050020625600087356000838
:104C2800EC070020840700207C560008800700203D
:104C3800B1560008D956000878020020E956000845
:104C48001C5700084B560008BF56000800570008BC
:104C58002857000894560008FEE700001D4B07B5CA
:104C68009A6942F001029A619B6903F0010301937A
:104C78000720019BFBF700FB002211466FF00B0099
:104C8800FBF70CFB002211466FF00A00FBF706FB4E
:104C9800002211466FF00900FBF700FB00221146C5
:104CA8006FF00400FBF7FAFA002211466FF00300D8
:104CB800FBF7F4FA002211466FF00100FBF7EEFA59
:104CC800002211464FF0FF30FBF7E8FA03B05DF819
:104CD80004FB00BF001002407FB502680F4B9A42E8
:104CE80018D1C023019312230293012303930323B2
:104CF800049304230DEB030109480593FBF72CFCEF
:104D0800084BDA6942F40012DA61DB6903F4001334
:104D18000093009B07B05DF804FB00BF00540040FF
:104D280000040048001002407FB502680F4B9A4209
:104D380019D103F5604301A99A6942F480529A6136
:104D48009B6903F480530093009BE02301930223A3
:104D5800029300230393032304934FF09040052309
:104D68000593FBF7F9FB07B05DF804FB0030014041
:104D78000268074B9A4209D1064A936923F4805383
:104D88009361E0214FF09040FBF7A8BC704700BF4B
:104D980000300140001002407FB502680F4B9A4274
:104DA80018D103F5584301A99A690D4842F4804285
:104DB8009A619B6903F480430093009B302301931D
:104DC80002230293002303930323049307230593E9
:104DD800FBF7C2FB07B05DF804FB00BF00380140D9
:104DE8000008004808B5FBF721FABDE80840FBF7C2
:104DF800B8BA00001549D1F8883043F47003C1F8F7
:104E08008830134B1A6842F001021A605868114A38
:104E180002405A601A6822F0847222F480321A60C2
:104E28001A6822F480221A605A6822F4FE025A6034
:104E3800DA6A22F00F02DA62186B074A02401A6334
:104E480000229A604FF000638B60704700ED00E02D
:104E5800001002400CC07FF8CCFC00FFDFF834D013
:104E6800002103E00C4B5B58435004310B480C4BBA
:104E780042189A42F6D30B4A02E0002342F8043B58
:104E8800094B9A42F9D3FFF7B5FF00F011F8FFF785
:104E9800E5FCFEE700A000206057000800000020A5
:104EA8008C0000208C000020280A0020FEE700006B
:104EB80070B50D4E0D4CA41BA4100025A54209D1B8
:104EC8000B4E0C4C00F0FCF8A41BA4100025A542C6
:104ED80005D170BD56F8253098470135EEE756F8EC
:104EE800253098470135F2E7585700085857000809
:104EF800585700085C570008024B0146186800F034
:104F080061B800BF28000020024B0146186800F075
:104F18000BB800BF2800002002440346934200D18A
:104F2800704703F8011BF9E738B50546002945D055
:104F380051F8043C0C1F002BB8BFE41800F0B0F87F
:104F48001F4A1368104633B9636014602846BDE8E9
:104F5800384000F0A6B8A3420CD9216862189342E1
:104F680004BF1A685B68636004BF5218226004605B
:104F7800ECE713465A680AB1A242FAD919685818D8
:104F8800A0420BD120680144581882421960DDD133
:104F9800106852685A6001441960D7E702D90C2397
:104FA8002B60D3E7206821188A4204BF1168526831
:104FB800626004BF091821605C60C7E738BD00BFA4
:104FC8007C02002070B5CD1C25F0030508350C2D9A
:104FD80038BF0C25002D064601DBA94203D90C2356
:104FE8003360002070BD00F05BF8234A1468214646
:104FF80091B9224C23681BB9304600F041F8206073
:105008002946304600F03CF8431C26D10C23336077
:10501800304600F046F8E4E70B685B1B1AD40B2B0C
:105028000FD90B60CD50CC18304600F03AF804F197
:105038000B00231D20F00700C31A1BD05A42E25070
:1050480070BD8C420DBF63684B686360136018BF06
:105058000C46E9E70C464968CAE7C41C24F0030477
:10506800A04205D0211A304600F00AF80130CDD010
:105078002560D9E770BD00BF7C02002080020020B7
:1050880038B5064C002305460846236000F00AF8A8
:10509800431C02D1236803B12B6038BD240A0020C9
:1050A80070477047044B1968024609B903491960EB
:1050B800186802441A60704784020020280A0020F9
:1050C800F8B500BFF8BC08BC9E467047F8B500BFED
:0850D800F8BC08BC9E467047BD
:1050E00002030405060708090A0B0C0D0E0F101029
:1050F0000102030405060708090A0B0C0D0E0F1028
:1051000001040802286E756C6C29002E2E5C537207
:10511000635C66617466735C647269766572735C05
:1051200073746D333266335F646973636F5F736486
:105130007370695F696F2E6300435545414141417A
:105140004345454549494941414592924F4F4F5545
:1051500055594F554F9C4F9E9F41494F55A5A5A668
:10516000A7A8A9AAABACADAEAFB0B1B2B3B4414140
:1051700041B8B9BABBBCBDBEBFC0C1C2C3C4C54142
:1051800041C8C9CACBCCCDCECFD1D145454549497F
:105190004949D9DADBDCDD49DF4FE14F4F4F4FE6BC
:1051A000E8E85555555959EEEFF0F1F2F3F4F5F6FC
:1051B000F7F8F9FAFBFCFDFEFF01030507090E10E5
:1051C000121416181C1E222A3A3C3E3F7C7F002BEC
:1051D0002C3B3D5B5D00C700FC00E900E200E40001
:1051E000E000E500E700EA00EB00E800EF00EE0079
:1051F000EC00C400C500C900E600C600F400F600DB
:10520000F200FB00F900FF00D600DC00F800A3006C
:10521000D800D7009201E100ED00F300FA00F100A0
:10522000D100AA00BA00BF00AE00AC00BD00BC00B7
:10523000A100AB00BB0091259225932502252425D2
:10524000C100C200C000A9006325512557255D2576
:10525000A200A5001025142534252C251C25002589
:105260003C25E300C3005A255425692566256025A1
:1052700050256C25A400F000D000CA00CB00C80067
:105280003101CD00CE00CF0018250C2588258425BE
:10529000A600CC008025D300DF00D400D200F500AA
:1052A000D500B500FE00DE00DA00DB00D900FD000D
:1052B000DD00AF00B400AD00B1001720BE00B600A5
:1052C000A700F700B800B000A800B700B900B3000D
:1052D000B200A025A00061001A03E0001703F80047
:1052E0000703FF00010078010001300132010601CF
:1052F000390110014A012E017901060180014D009A
:1053000043028101820182018401840186018701B7
:10531000870189018A018B018B018D018E018F012B
:1053200090019101910193019401F6019601970179
:10533000980198013D029B019C019D0120029F0163
:10534000A001A001A201A201A401A401A601A7013C
:10535000A701A901AA01AB01AC01AC01AE01AF01EB
:10536000AF01B101B201B301B301B501B501B7019C
:10537000B801B801BA01BB01BC01BC01BE01F70113
:10538000C001C101C201C301C401C501C401C701FB
:10539000C801C701CA01CB01CA01CD011001DD015D
:1053A00001008E01DE011201F3010300F101F4019D
:1053B000F401F8012801220212013A020900652CC9
:1053C0003B023B023D02662C3F0240024102410289
:1053D00046020A01530240008101860155028901FB
:1053E0008A0158028F015A0290015C025D025E023E
:1053F0005F02930161026202940164026502660227
:105400006702970196016A02622C6C026D026E02BD
:105410009C01700271029D01730274029F01760269
:105420007702780279027A027B027C02642C7E0287
:105430007F02A60181028202A901840285028602FE
:105440008702AE014402B101B20145028D028E0213
:105450008F0290029102B7017B030300FD03FE035C
:10546000FF03AC0304008603880389038A03B103A6
:105470001103C2030200A303A303C4030803CC0364
:1054800003008C038E038F03D8031801F2030A0074
:10549000F903F303F403F503F603F703F703F90342
:1054A000FA03FA03300420035004100760042201B9
:1054B0008A043601C1040E01CF040100C004D004E7
:1054C00044016105260400007D1D0100632C001EBF
:1054D0009601A01E5A01001F0806101F0606201F75
:1054E0000806301F0806401F0606511F0700591FF7
:1054F000521F5B1F541F5D1F561F5F1F601F080652
:10550000701F0E00BA1FBB1FC81FC91FCA1FCB1FA9
:10551000DA1FDB1FF81FF91FEA1FEB1FFA1FFB1F23
:10552000801F0806901F0806A01F0806B01F040071
:10553000B81FB91FB21FBC1FCC1F0100C31FD01F53
:105540000206E01F0206E51F0100EC1FF21F01002A
:10555000FC1F4E2101003221702110028421010024
:105560008321D0241A05302C2F04602C0201672CD3
:105570000601752C0201802C6401002D260841FFD4
:105580001A0300000D0A0D0A5465737420666174D5
:105590006673205350490D0A004641544653206C0F
:1055A000696E6B20647269766572206661696C65EC
:1055B000640D0A0042535020534420496E69742000
:1055C0006661696C65640D0A002F005344206D6F9D
:1055D000756E74206661696C65640D0A0053442021
:1055E0006D6F756E7420646F6E650D0A007465735F
:1055F000742E747874004F70656E20746573742E09
:1056000074787420646F6E650D0A0053544D333204
:10561000463320444953434F564552592053442062
:1056200043415244207769746820535049320D0A2F
:10563000003C25643E0D0A00577269746520746F42
:1056400020534420646F6E650D0A004F70656E2014
:10565000746573742E747874206661696C65640D6A
:105660000A00314D42205772697465207465737465
:105670000D0A00746573742E62696E005772697446
:105680006520626C6F636B202564206661696C65C0
:10569000640D0A0041637475616C20626C6F636B0A
:1056A0002077726974652073697A652025640D0A14
:1056B00000646F6E652C202564206D730D0A004F09
:1056C00070656E20746573742E62696E2066616900
:1056D0006C65642025640D0A00314D4220526561DD
:1056E0006420746573740D0A005265616420626CF5
:1056F0006F636B202564206661696C65640D0A0028
:1057000041637475616C20626C6F636B20726561BC
:10571000642073697A652025640D0A00256420657C
:1057200072726F72730D0A004F70656E207465732C
:10573000742E62696E206661696C65640D0A0000F2
:105740000000000000000001020304060708090031
:08575000000000010203040047
:04575800AD01000897
:04575C0089010008B7
:1057600001000000100000008D21000881210008C8
:10577000AD2100081D220008D12100080100000011
:10578000E803000000127A002C0000200000000056
:105790000000000000000000000000000000000009
:1057A00000000000000000000000000000000000F9
:1057B00000000000000000000000000000000000E9
:1057C00000000000000000000000000000000000D9
:1057D00000000000000000000000000000000000C9
:0C57E000000000000000000000000000BD
:0400000508004E653C
:00000001FF
