:020000040800F2
:10000000081F00204D020008550200085702000892
:10001000590200085B0200085D02000800000000B1
:100020000000000000000000000000009D0100082A
:100030006102000800000000E1010008091E00083C
:1000400067020008670200086702000867020008EC
:1000500067020008670200084505000867020008FB
:1000600067020008670200086702000867020008CC
:1000700067020008670200086702000867020008BC
:1000800067020008670200086702000867020008AC
:10009000670200086702000867020008670200089C
:1000A000670200086702000867020008670200088C
:1000B00067020008A11F0008670200086702000825
:1000C000670200086702000867020008670200086C
:1000D00067020008F12800086702000867020008AC
:1000E000670200086702000867020008670200084C
:1000F000670200086702000867020008670200083C
:10010000000000000000000000000000670200087E
:10011000670200086702000867020008670200081B
:10012000670200086702000867020008670200080B
:1001300067020008670200080000000000000000DD
:10014000670200086702000867020008000000005C
:10015000000000000000000000000000000000009F
:1001600000000000000000006702000867020008AD
:10017000670200080000000000000000000000000E
:100180000000000067020008DFF80CD000F094F8CF
:1001900000480047912A0008081F0020234B1968D7
:1001A0000868B0E8F04F80F309884FF0000080F352
:1001B000118870470000000003480068006880F361
:1001C000088862B600DF00BF08ED00E0DFF80C0031
:1001D000016841F470010160704700BF88ED00E0E4
:1001E000EFF30980114B1A681EF0100F08BF20EDC5
:1001F000108A20E9F04F106008B44FF0500080F3EF
:10020000118803F07FF94FF0000080F3118808BCDB
:1002100019680868B0E8F04F1EF0100F08BFB0EC86
:10022000108A80F30988704700BF00BF0C000020CF
:10023000EFF311804FF0500181F31188704780F384
:1002400011887047EFF3058070470000064880472B
:1002500006480047FEE7FEE7FEE7FEE7FEE7FEE7AB
:10026000FEE7FEE7FEE7FEE7751E000889010008CD
:1002700040EA01039B0703D009E008C9121F08C028
:10028000042AFAD203E011F8013B00F8013B521EA8
:10029000F9D27047D2B201E000F8012B491EFBD21F
:1002A00070470022F6E710B513460A460446194681
:1002B000FFF7F0FF204610BD064C074D06E0E06852
:1002C00040F0010394E8070098471034AC42F6D39D
:1002D000FFF75EFF5C3E00087C3E000870B51749E2
:1002E00086B004000DD0012C0BD0022C09D0032CB9
:1002F00007D0042C05D0052C03D0062C01D0072CE8
:1003000003D1486940F4001048610D4E0D4D694617
:1003100036F8140000900120019002900320039011
:1003200055F8240000F030FA36F8141055F824007F
:10033000002200F0F3FA06B070BD00000010024089
:10034000F03D0008040100200349044A31F8101070
:1003500052F8200000F0DEBAF03D00080401002051
:10036000724FDFF8CCB1734D734CDFF8D08188B099
:100370004FF000094FF0010A4FF0904600230A2287
:100380001946386803F066F90128F7D121786078BA
:100390008DF80000A2788DF80120E2788DF8022017
:1003A00022798DF803206E297ED00FDC612936D0AA
:1003B00064292ED0692926D06D29DFD185F824A0A3
:1003C000684602F025FB85ED0A0AD7E7702914D0AC
:1003D000722927D073290AD07529CFD1302804D0AB
:1003E0004FEA0A008BF80000C8E74846FAE768467B
:1003F00002F0E4FA85ED000AC0E7684602F0DEFA92
:1004000085ED030ABAE7684602F0D8FA85ED040ADA
:10041000B4E7684602F0D2FA85ED050AAEE785F842
:100420002490ABE770208DF8080095ED000A00F0ED
:100430008DF801788DF8091041788DF80A10C1788F
:100440008DF80B1000798DF80C0095ED030A00F083
:100450007DF801788DF80D1041788DF80E10C17877
:100460008DF80F1000798DF8100095ED040A00F05A
:100470006DF801788DF8111041788DF81210C1785F
:100480008DF8131000798DF8140095ED050A00F031
:10049000B5F801788DF8151041788DF81610C178EF
:1004A0008DF81710017900E00AE08DF818104079F6
:1004B0008DF81900122202A9214801F0F5FA5DE732
:1004C00030281CD031288FD188F800A001220821C3
:1004D000304600F023FA01221021304600F01EFAC7
:1004E0004FF4FA7002F00EFF00220821304600F0AF
:1004F00015FA01221021304600F010FA3EE788F884
:10050000009001220821304600F008FA0122102153
:10051000304600F003FA4FF4FA7002F0F3FE0122C5
:100520000821304600F0FAF90022E3E7AC00002091
:100530005A000020541A0020E00000205C00002037
:10054000881A0020012000F013B90000F0B510EE69
:10055000101A274A002527482E2691423DDAF2EE4E
:10056000040A0A2480EE201AFCEEC10A10EE901A4A
:10057000CBB203EB83014A0000EE902A30330370C4
:10058000F8EE600A70EE600AFCEEE00A10EE901AD7
:1005900000EE902AC9B2F8EE600A70EE600A00EE32
:1005A000101A30314170B8EE400A867030EEC00A41
:1005B000DFED110A20EE200ABCEEC00A10EE102A70
:1005C000D2B2B2FBF4F4674207EB8707303402EB98
:1005D00047023032C470027106E0312101703021CF
:1005E00041708170C670017145710248F0BD000014
:1005F0000000C842BC0000200000C842F2EE040A1D
:1006000030B580EE201A0A25FCEEC10A10EE900AE1
:10061000C2B202EB8200410000EE901A3032F8EED6
:10062000600A70EE600AFCEEE00A10EE900A00EE3E
:10063000901AC0B2F8EE600A70EE600A00EE100A7E
:100640003030B8EE400A30EEC00ADFED0F0A20EE7F
:10065000200ABCEEC00A10EE101AC9B2B1FBF5F4C4
:10066000634203EB830301EB430308493034303327
:100670000A7048702E208870CC700B714D7100206C
:100680008871084630BD00000000C842C20000204A
:100690002DE9F041264D86B0686940F4003068616C
:1006A00006210022084600F087F9062000F078F9BC
:1006B00020480124CDE9004000274FF090486946CA
:1006C0000297404600F060F8042002268DE8C10041
:1006D0000327CDE903746946404600F055F8182019
:1006E000CDE90004029469464046039400F04CF8BA
:1006F000686940F4801068613803CDE90006CDE9EF
:10070000024769460C48049600F03EF8686940F4D8
:10071000002068613020CDE9000602940720CDE971
:1007200003706946054800F02FF806B0BDE8F08177
:100730000010024000001110000C004800080048A2
:1007400008B501280FD10020034601460090064855
:100750006A46C06C03F0C2F80098002803D0034931
:100760004FF08050086008BD5C00002004ED00E000
:10077000044910B50A68024202D00860FFF7E0FFA2
:1007800010BD0000140401402DE9F04FDFF864B102
:1007900000224FF001084FF0030A4FF00F090BF150
:1007A000040E00BF0B6808FA02F42340A34271D183
:1007B0004D68022D01D0122D0ED1D50800EB850C0D
:1007C000DCF820505607F70E09FA07F6B5430E6914
:1007D000BE402E43CCF82060066855000F790AFA17
:1007E00005FC07F0030726EA0C06AF403743076015
:1007F0004E68012E05D0022E03D0112E01D0122EEC
:1008000010D18668CF6826EA0C0607FA05F7374349
:1008100087604668A6430C79C4F3001404FA02F416
:1008200034434460C6688C6826EA0C0604FA05F472
:100830003443C4604C68E40056D52F4CA56945F09C
:100840000105A5612D4C22F003052E19B56894070A
:10085000270F09FA07F4A543B0F1904F04D0284CB4
:10086000A04203D1012417E0002415E0254CA0424A
:1008700001D1022410E0244CA04201D103240BE05A
:10088000224CA04201D1042406E0214CA04202D116
:10089000052401E028E0062404FA07F42C43B460A0
:1008A000DBF800405D464E689C43F60300D51C43D0
:1008B0002C60DEF8004075464E689C43B60300D5B8
:1008C0001C432C600B4D08352C684E689C43F60287
:1008D00000D51C432C60074D0C352C684E689C439A
:1008E000B60200D51C432C60521C102AFFF45AAFEC
:1008F000BDE8F08F000401400010024000000140FC
:100900000004004800080048000C0048001000489F
:100910000014004842694A40426170470AB10183AD
:10092000704741837047000001480068704700002D
:10093000FC00002002480168491C0160704700006B
:10094000FC000020074810B5016841F0100101606B
:10095000032000F051F8002000F006F800F015F830
:10096000002010BD0020024010B5044600F09AF9A6
:100970004FF47A71B0FBF1F000F0DEFC002221466A
:10098000501E00F019F8002010BD10B5032000F033
:1009900033F80022BDE810401146501E00F00CB89C
:1009A00000F01F020121914040094FF0E02202EBCC
:1009B0008000C0F800117047F0B40E4B1B680C4665
:1009C000C3F30223C3F10705042D00D90425191D23
:1009D000072901D2002300E0DB1E012606FA05F1FB
:1009E000491E214099409E40761E16403143F0BC7E
:1009F00001F076B90CED00E0064900F00702086846
:100A00004FF6FF03184040EA0220034A10430860F3
:100A1000704700000CED00E00000FA052DE9F047FA
:100A2000DFF8789205460E46D9F80000022300F060
:100A30000707012041044206994C41F28838B74229
:100A400071D2D9F800C02CF0070C4CEA060CC9F89A
:100A500000C0D9F8007007F00707B7426FD12E78B1
:100A6000B60705D56668AF6826F0F0063E436660B7
:100A70002E78F60756D06E68012E0BD0022E1ED0AF
:100A800093FAA3F1B1FA81F141F02001490924D090
:100A9000216823E091FAA1F2B2FA82F242F0200238
:100AA000520901D0226800E0626A91FAA1F1B1FA1C
:100AB00081F101F01F018840024240D017E092FA14
:100AC000A2F1B1FA81F141F02001490901D0216878
:100AD00000E0616A92FAA2F202E0616A93FAA3F27C
:100AE000B2FA82F202F01F029040014227D0606801
:100AF00020F0030030436060FFF716FF0646686889
:100B0000012809D00228474613D01EE0FFF70CFF4A
:100B1000801BB84201D992E047466068C0F381006B
:100B20000128F3D1A1E015E0FFF7FEFE801BB842DB
:100B300073D86068C0F381000228F5D195E092E097
:100B4000FFF7F2FE801BB84279D8606810F00C0FF6
:100B5000F6D18AE02F78BF0707D56768D5F808C0B7
:100B600027F0F00747EA0C0767602F78FF076DD082
:100B70006F68012F0BD0022F1ED093FAA3F1B1FAA8
:100B800081F141F02001490924D0216823E091FA44
:100B9000A1F2B2FA82F242F02002520901D0226898
:100BA00000E0626A91FAA1F1B1FA81F101F01F014E
:100BB0008840024257D017E092FAA2F1B1FA81F1CF
:100BC00041F02001490901D0216800E0616A92FAF0
:100BD000A2F202E0616A93FAA3F2B2FA82F202F0A0
:100BE0001F02904001423ED0606820F0030038436D
:100BF0006060FFF799FE07466868012807D0022861
:100C000011D01FE0FFF790FEC11B414517D8606867
:100C1000C0F381000128F5D118E010E0FFF784FE51
:100C2000C11B41450BD86068C0F381000228F5D193
:100C30000CE000BFFFF778FEC11B414502D903203D
:100C4000BDE8F087606810F00C0FF3D1D9F8001000
:100C500021F007013143C9F80010D9F8000000F075
:100C60000700B04201D00120EAE72878400705D507
:100C70006068E96820F4E060084360602878000755
:100C800006D56068296920F4605040EAC1006060C0
:100C90000020FFF769FE0020D2E70000002002409C
:100CA0000010024010B500F043F808494968F022EE
:100CB00092FAA2F201F0F001B2FA82F2D140044AB3
:100CC000515CC8400349086010BD0000001002409C
:100CD000DC3D0008E800002010B5FFF7E3FF0749FE
:100CE00049684FF4E06292FAA2F201F4E061B2FACC
:100CF00082F2D140024A515CC84010BD001002404F
:100D0000DC3D000810B5FFF7CDFF074949684FF4F7
:100D1000605292FAA2F201F46051B2FA82F2D1402A
:100D2000024A515CC84010BD00100240DC3D000882
:100D3000154B10B55A68154802F00C0104291FD054
:100D400008291DD14FF4701494FAA4F402F4701120
:100D5000B4FA84F421FA04F10D4CDB6A615C0F24CF
:100D600094FAA4F403F00F03B4FA84F423FA04F31E
:100D7000074C1034D203E35C03D5B0FBF3F04843D7
:100D800010BD0448484310BD0010024000127A0014
:100D9000BC3D000800093D002DE9F05F05460078E4
:100DA000FD4EC0074FF000084FF0010425D07068D9
:100DB0006704C0F38100012807D07068C0F3810088
:100DC00002281BD17068C00318D597FAA7F0B0FAB3
:100DD00080F040F02000400901D0306800E0706AE7
:100DE00097FAA7F1B1FA81F101F01F0104FA01F1BC
:100DF000084270D0686801287ED16CE086F80280D5
:100E0000FFF792FD824641F2883905E0FFF78CFD3D
:100E1000A0EB0A01494570D897FAA7F0B0FA80F024
:100E200040F02000400901D0306800E0706A97FA75
:100E3000A7F1B1FA81F101F01F0104FA01F10842B2
:100E4000E4D12879B070F06AA96820F00F00084357
:100E5000F0626868012803D0FFF766FD824625E04E
:100E6000FFF762FD824605E0FFF75EFDA0EB0A0199
:100E70004945D0D897FAA7F0B0FA80F040F02000AA
:100E8000400901D0306800E0706A97FAA7F1B1FA22
:100E900081F101F01F0104FA01F10842E4D01AE0E7
:100EA000FFF742FDA0EB0A014945B4D897FAA7F035
:100EB000B0FA80F040F02000400901D0306800E036
:100EC000706A97FAA7F1B1FA81F101F01F0104FAF3
:100ED00001F10842E4D12878DFF8C09280074FF092
:100EE000020733D570684FF0F80B10F00C0F0AD0E2
:100EF0007068C0F3810001E097E06CE1022826D120
:100F00007068C00323D497FAA7F0B0FA80F040F0DD
:100F10002000400901D0306800E0706A97FAA7F11C
:100F2000B1FA81F101F01F0104FA01F1084202D087
:100F30002869012879D13068696920F0F8029BFAA4
:100F4000ABF0B0FA80F081400A43326051E028698A
:100F500068B3C9F80040FFF7E7FC824606E000BF2F
:100F6000FFF7E2FCA0EB0A0064289ED897FAA7F0EE
:100F7000B0FA80F040F02000400901D0306800E075
:100F8000706A97FAA7F1B1FA81F101F01F0104FA32
:100F900001F10842E4D030689BFAABF26969B2FA19
:100FA00082F220F0F80091400843306021E0C9F857
:100FB0000080FFF7B9FC824606E000BFFFF7B4FCF3
:100FC000A0EB0A006428D0D897FAA7F0B0FA80F016
:100FD00040F02000400901D0306800E0706A97FAC4
:100FE000A7F1B1FA81F101F01F0104FA01F1084201
:100FF000E4D1287800075ED56948A96969B304601F
:10100000FFF792FC824605E0FFF78EFCA0EB0A009A
:101010006428AAD897FAA7F0B0FA80F040F06000F0
:10102000B4EB501F02D130680CE076E197FAA7F0DC
:10103000B0FA80F040F06000B7EB501F01D1306A89
:1010400000E0706A97FAA7F1B1FA81F101F01F018F
:1010500004FA01F21042D7D02DE0C0F80080FFF76B
:1010600063FC824606E000BFFFF75EFCA0EB0A00CF
:101070006428A8D897FAA7F0B0FA80F040F0600092
:10108000B4EB501F01D130680BE097FAA7F0B0FA2B
:1010900080F040F06000B7EB501F01D1306A00E0F3
:1010A000706A97FAA7F1B1FA81F101F01F0104FA11
:1010B00001F21042D8D1287840076CD5F06940F091
:1010C0008050F061DFF8DCB0DBF8001041F4807193
:1010D000CBF80010FFF728FC824605E0FFF724FC60
:1010E000A0EB0A00642876D8DBF80000C005F5D52F
:1010F000306A20F005003062FFF716FC834641F2AB
:10110000883A05E0FFF710FCA0EB0B01514562D8CF
:1011100097FAA7F0B0FA80F040F04000B4EB501F0F
:1011200001D130680BE097FAA7F0B0FA80F040F0F8
:101130004000B7EB501F01D1306A00E0706A97FAA7
:10114000A7F1B1FA81F101F01F0104FA01F108429F
:10115000D8D1306AE96820F0050008433062E868B9
:10116000012803D0FFF7E0FB83463BE0FFF7DCFB01
:10117000834605E0FFF7D8FBA0EB0B0151452AD8C9
:1011800097FAA7F0B0FA80F040F04000B4EB501F9F
:101190000AD1306814E046E00010024000004242EC
:1011A000800442420070004097FAA7F0B0FA80F045
:1011B00040F04000B7EB501F01D1306A00E0706A88
:1011C00097FAA7F1B1FA81F101F01F0204FA02F1D6
:1011D0000842CFD027E074E0FFF7A6FBA0EB0B019D
:1011E00051456ED897FAA7F0B0FA80F040F0400071
:1011F000B4EB501F01D130680BE097FAA7F0B0FABA
:1012000080F040F04000B7EB501F01D1306A00E0A1
:10121000706A97FAA7F1B1FA81F101F01F0204FA9E
:1012200002F10842D8D1E869D8B37168C1F38101ED
:10123000022973D04FF000770228C9F8608003D0EC
:10124000FFF772FB054651E0FFF76EFB804605E0B5
:10125000FFF76AFBA0EB0800642844D897FAA7F0D0
:10126000B0FA80F040F02000400901D0306800E082
:10127000706A97FAA7F1B1FA81F101F01F0104FA3F
:1012800001F10842E4D1D5E908100843716821F45E
:10129000741108437060C9F86040FFF745FB0546CC
:1012A00005E038E0FFF740FB401B64281BD897FAA5
:1012B000A7F0B0FA80F040F02000400902D030687A
:1012C00001E010E0706A97FAA7F1B1FA81F101F03C
:1012D0001F0104FA01F10842E4D01CE0FFF724FBEF
:1012E000401B642802D90320BDE8F09F97FAA7F0BD
:1012F000B0FA80F040F02000400901D0306800E0F2
:10130000706A97FAA7F1B1FA81F101F01F0104FAAE
:1013100001F10842E2D10020E6E7FFE70120E3E720
:101320004FF0E0210428086903D020F00400086190
:10133000704740F00400FAE710B5401EB0F1807F1E
:1013400001D3012010BD4FF0E02460610F21601730
:1013500000F0C6FC0020A06107202061002010BD25
:101360007047704730B590F83820012A1FD001220D
:1013700080F838200268536894680E4DAA4202D063
:101380000D4DAA4203D123F470054B682B4323F083
:1013900070050B6889682B4324F080042143536057
:1013A00002689160002180F83810084630BD0220A4
:1013B00030BD0000002C01400034014010B5040095
:1013C00003D094F8390010B104E0012010BD20468C
:1013D00000F00CF8022084F83900211D206800F08C
:1013E0000BFE012084F83900002010BD7047016811
:1013F000CA6842F00102CA600068016841F0010158
:1014000001600020704700002DE9F0410D46040006
:1014100003D094F8390018B105E00120BDE8F0814F
:10142000204600F03BF8022084F8390020688168EB
:10143000194A11408160211D206800F0DDFD2268FD
:1014400090689169166A2B68AF69034340F20330D4
:10145000814341EA0721A868EF6908434FF6FC4140
:101460008843E96840EA0720014328692F6A0001A0
:1014700040EA0730084369686D6926F0AA0646EA23
:10148000051529439360226890612068016201205C
:1014900084F839000020C1E7F8FFFEFF7047000024
:1014A00010B50446006891B1042904D0012200213E
:1014B00000F0F6FD206801225FF0040100F0F0FD6D
:1014C0002068016841F001010160002010BD012287
:1014D0000021F3E7704770B50446006801694FF0DA
:1014E0000005C943890715D4C168C943890711D4C8
:1014F000E91E01610120207620688069800720466E
:1015000002D0FFF7E7FF04E000F098F8204600F073
:1015100042F9257620680169C943490717D4C16893
:10152000C943490713D46FF00401016102202076FA
:101530002068806910F4407F204602D0FFF7CAFF80
:1015400004E000F07BF8204600F025F925762068BD
:101550000169C943090716D4C168C943090712D4F0
:101560006FF008010161042020762068C0698007BF
:10157000204602D0FFF7AEFF04E000F05FF82046FF
:1015800000F009F9257620680169C943C90617D416
:10159000C168C943C90613D46FF010010161082066
:1015A00020762068C06910F4407F204602D0FFF703
:1015B00091FF04E000F042F8204600F0ECF82576B8
:1015C00020680169C943C90708D1C168C943C9076F
:1015D00004D1891E0161204600F00AF920680169E2
:1015E000C943090609D4C168C943090605D46FF087
:1015F000800101612046FFF7B3FE20680169C943FD
:10160000490609D4C168C943490605D46FF04001B1
:101610000161204600F01CF920680169C943890670
:101620000BD4C168C943890607D46FF0200101615A
:101630002046BDE87040FFF794BE70BD704770B59E
:10164000044690F838000D4601280ED0012684F893
:101650003860022084F839000C2A45D007DC5AB1E2
:10166000042A1BD0082A78D12CE0022070BD102A51
:101670004ED0142A71D15DE0206800F01DFD206875
:10168000816941F0080181612068816921F00401CC
:101690008161206881692A69114311E0206800F0A6
:1016A00059FD2068816941F4006181612068816988
:1016B00021F480618161206881692A6941EA0221FF
:1016C00081614AE0206800F08DFD2068C16941F029
:1016D0000801C1612068C16921F00401C16120686D
:1016E000C1692A69114311E0206800F0C3FD206838
:1016F000C16941F40061C1612068C16921F4806160
:10170000C1612068C1692A6941EA0221C16124E0FE
:10171000206800F0E9FD2068416D41F00801416555
:101720002068416D21F0040141652068416D2A69FE
:10173000114311E0206800F00FFE2068416D41F474
:10174000006141652068416D21F480614165206838
:10175000416D2A6941EA02214165383466700020F2
:10176000207070BD10B5040003D094F8390010B19A
:1017700004E0012010BD204600F00CF8022084F89F
:101780003900211D206800F037FC012084F8390061
:10179000002010BD7047704710B504460068012254
:1017A00000F07EFC0D48216881420BD00C4881423C
:1017B00008D00C48814205D00B48814202D00B482A
:1017C000814203D1486C40F40040486420680168BD
:1017D00041F001010160002010BD0000002C01401B
:1017E00000340140004001400044014000480140F5
:1017F00038B514480068144C6080207810B16088B7
:10180000A18801E0A0886188401AA065A06D002829
:1018100001DAE06DA065A06DE0656088A080002021
:101820000090FEF791FD00236A461946A06C02F075
:1018300055F80098002803D004494FF08050086004
:1018400038BD0000240800405C00002004ED00E0EA
:101850007047704770B504460068C1694FF00105D4
:10186000C9070BD00168C90508D5056204F16904F0
:10187000607840F00100607004F869592068C1691F
:1018800089070CD58168C90709D00221016204F1DA
:101890006904607840F00400607004F869592068B9
:1018A000C16949070CD58168C90709D004210162C3
:1018B00004F16904607840F00200607004F869592E
:1018C0002068C16909070BD58168C90708D00821BC
:1018D00001626934607840F00800607004F869596A
:1018E00094F86A0010B12046FFF7B3FF2068C16981
:1018F000C9020AD58168490207D54FF480110162F7
:1019000084F86950204600F002F92068C169890610
:101910000AD50068800607D5204600F01BFE206827
:10192000816941F0080181612068C169090605D516
:101930000068000602D5204600F05CFF2168C869F7
:10194000400615D50868400612D50A68204622F0E0
:1019500040020A6094F8691032290AD001688A6846
:1019600022F001028A6080F8695000BF00F0CCF8D4
:1019700070BD222180F86910F8E710B5040003D08B
:1019800094F8690010B104E0012010BD204600F079
:1019900026F8022084F869002068016821F001011E
:1019A0000160204600F042FE0128EED0606A10B1CE
:1019B000204600F031FD2068416821F490414160EB
:1019C0002068816821F02A0181602068016841F067
:1019D000010101602046BDE8104000F081BD704764
:1019E00010B590F86930012B01D0122B40D199B17C
:1019F00092B190F86840012C3AD0012480F86840F8
:101A00004165A0F85820A0F85A208168FF22B1F55E
:101A1000805F03D039B10BE0012010BD016911BB1B
:101A200040F2FF1102E00169E9B17F21A0F85C10EA
:101A3000002180F86A10122B18D0222280F8692029
:101A40000268136843F4807313600268936843F07C
:101A50000103936080F868100068016841F020017C
:101A60000160002010BDA0F85C20E1E73222E5E72C
:101A7000022010BD08B50520FEF766FC00200346D5
:101A80000146009006486A46006D01F027FF009865
:101A9000002803D003494FF08050086008BD0000C3
:101AA0005C00002004ED00E010B590F86930012BD7
:101AB00001D0222B26D109B302B390F86840012C43
:101AC00020D04C300124047701608280C280002144
:101AD00081774C38222B13D05FF0120280F86920F6
:101AE0000268936843F00103936080F8681000680F
:101AF000016841F080010160002010BD012010BD8F
:101B00003222EBE7022010BD0320FEF71DBC704718
:101B10005EA092B0D0E9001280680891CDE909205A
:101B20005DA00DF1100CD0E9001280680B91CDE999
:101B30000C205CA0664E00680E905BA0654C0068AF
:101B40000F905AA000250068109059A04FF4C87754
:101B500090E80E00C06803908DE80E0058A30FCBEC
:101B6000ACE80F00002332221946306801F072FD04
:101B7000012807D16D1CEDB201F05EF8022D01D9EC
:101B8000002505E025B1012D34D0022D7AD155E094
:101B90000121084601F0A2F80EA801F08FF80421F7
:101BA000012001F09BF894ED030AFEF7CFFC01F051
:101BB00085F80121022001F091F80FA801F07EF8CC
:101BC0000421022001F08AF894ED040AFEF7BEFC1D
:101BD00001F074F80921022001F080F810A801F04A
:101BE0006DF80C21022001F079F894ED050AFEF75A
:101BF000ADFC20E00121084601F070F80BA801F0CF
:101C00005DF80A21012001F069F894ED000AFEF761
:101C10009DFC01F053F80121022001F05FF82E48ED
:101C200090ED000AFEF792FC01F048F80621022030
:101C300001F054F8294801F041F823E00121084659
:101C400001F04CF894F8240008B1684600E004A8BC
:101C500001F034F80121022001F040F808A801F059
:101C60002DF80A21022001F039F894ED0B0AFEF755
:101C70006DFC01F023F81021022001F02FF825203F
:101C800001F029F8384601F037F86BE750574D203E
:101C9000447574793A000000536574706F696E740E
:101CA0003A0000004B503A0054493A0054443A007C
:101CB0004D616E75616C206D6F64652020200000A1
:101CC0004175746F6D61746963206D6F64650000A8
:101CD000A8000020541A0020CC000020D8000020CA
:101CE0000907090E002803DA00F00F00024A00E09D
:101CF000024A81547047000014ED00E000E400E067
:101D0000244D4FF0FF36002332461946286801F073
:101D1000A1FC0128F7D120480068DFED200A00EE81
:101D2000100A1F48B8EEC00A80EE201ADFED1E0A26
:101D300080ED001A9FED1B1A90ED000A00F094FE52
:101D40001A481B4C80ED000A90ED000A204684EDF5
:101D5000010A00F0F9FFD4ED0B0A9FED161AB7EE59
:101D6000000A154910EE810ABCEEC00A10EE100AF6
:101D7000088008884FF08041C86308210F48FFF7AA
:101D80000BFD0F4800231A461946006801F026FD96
:101D9000B9E70000A4000020B40000209A99314265
:101DA000D0000020CDCCCC3CCDCC4C3ECC00002093
:101DB000541A00200000484258000020C01900209A
:101DC000B00000204FF090440C4D0D4E00F038FF55
:101DD00000F032FF0B48FFF70AFB002208212046E3
:101DE000FEF79CFD012210212046FEF797FD288872
:101DF0003080002001F0A0FAE8E700005E0000203B
:101E0000600000208419002010B5FEF793FD01F05A
:101E10009DFE002803D0BDE8104001F0E5BB10BDD9
:101E200030B58FB0012000240090CDE901040225D7
:101E30000004CDE907504FF4E01009906846FEF722
:101E4000ABFF0D20CDE90A056802CDE90C400E90EC
:101E500002210AA8FEF7E2FDFEF724FF4FF47A7193
:101E6000B0FBF1F0FFF768FA0420FFF759FA0FB062
:101E700030BD00001448016841F47001016013484E
:101E8000016841F0010101604168114A114041605F
:101E90000168104A11400160016821F4802101604D
:101EA000416821F4FE014160C16A21F00F01C16265
:101EB000016B094A11400163002181600249C0039E
:101EC000803908607047000088ED00E00010024093
:101ED0000CC07FF8FFFFF6FECCFC00FF3EB51548B6
:101EE000C16941F00101C16181041348144A002411
:101EF000016012490968B1FBF2F1491E416041F2EB
:101F00008731C0E90241FFF72DFC009469460A4879
:101F10000294FFF727FA0B48602184600461016096
:101F2000094909884160014608220348FFF787FBF9
:101F30003EBD000000100240C0190020E800002053
:101F400040420F00FC19002058000020104810B536
:101F5000C16941F00201C161002205211D20FEF787
:101F60002BFD1D20FEF71CFD0B480A4942F21072A2
:101F700001600A490968B1FBF2F1491E4160002184
:101F800001618160F921C160BDE81040FFF716BA18
:101F9000001002400004004084190020E8000020E6
:101FA0000148FFF798BA0000841900200F4800B5D7
:101FB000C16989B041F00401C1610E490C484FF676
:101FC000FF72086000204860C1E902020121CDE9EA
:101FD0000010CDE90210CDE906100490089005909C
:101FE00069460448FFF710FA09B000BD001002402E
:101FF00000080040181A00202DE9F0430268214B28
:10200000214D224E224C4FF08049984207D048453E
:1020100005D0A84203D0B04201D0A04203D122F0A3
:1020200070074A683A431B4FDFF86CC0DFF86C80DA
:1020300098420DD048450BD0A84209D0B04207D0F5
:10204000A04205D0B84203D0604501D0404503D13D
:1020500022F44075CA682A4302608A68C2620A682C
:102060008262984207D0A04205D0B84203D06045B2
:1020700001D0404501D10969016301214161BDE8F9
:10208000F0830000002C01400004004000080040E4
:10209000003401400040014000440140004801403C
:1020A00010B50123046A8B409C430462036A8A4092
:1020B0001343036210BD00002DE9F043026A22F0D1
:1020C00001020262056A436882691C4C25F0020520
:1020D00022400C6822F0030214438A68194E2A43F6
:1020E000174D194FDFF864C0DFF86490A84207D09D
:1020F000B04205D0B84203D0604501D0484506D172
:1021000022F00808CA6842EA080222F00402A84243
:1021100007D0B04205D0B84203D0604501D0484551
:1021200005D14D6923F440731D438B692B434360F4
:102130008461496841630262BDE8F0838FFFFEFF5E
:10214000002C0140003401400040014000440140A7
:1021500000480140F0B5026A22F010020262056AEE
:1021600042688369194C1B4E23400C6823F440736A
:1021700043EA042425F020038D6843EA0513144D37
:10218000A84201D0B04206D1CF6823F0800343EAD1
:10219000071323F04003A8420AD0B04208D00E4DE6
:1021A000A84205D00D4DA84202D00D4DA84207D13E
:1021B0004D6922F4406242EA85028D6942EA850255
:1021C00042608461496881630362F0BDFF8FFFFE56
:1021D000002C014000340140004001400044014017
:1021E00000480140F0B5026A22F480720262056A7A
:1021F0004368C269194C1B4E22400C6822F003024E
:10220000144325F400728D6842EA0522144DA84259
:1022100001D0B04206D1CF6822F4006242EA072220
:1022200022F48062A8420AD0B04208D00E4DA842E3
:1022300005D00E4DA84202D00D4DA84207D14D69E0
:1022400023F4405343EA05138D6943EA05134360C1
:10225000C4614968C1630262F0BD00008FFFFEFFE8
:10226000002C014000340140004001400044014086
:102270000048014030B5026A22F480520262046ACA
:102280004268C369124D24F400542B400D6823F4B6
:10229000407343EA05238D6844EA05340D4DA84296
:1022A0000BD00D4DA84208D00C4DA84205D00C4DC6
:1022B000A84202D00B4DA84204D14D6922F48042BD
:1022C00042EA85124260C36149680164046230BD1C
:1022D000FF8FFFFE002C0140003401400040014010
:1022E000004401400048014030B5026A22F48032C7
:1022F0000262046A4268436D114D2B400D681D4314
:1023000024F400330C8943EA04430E4CA0420BD062
:102310000D4CA04208D00D4CA04205D00C4CA04260
:1023200002D00C4CA04204D14C6922F4803242EA23
:1023300004224260456549688165036230BD000042
:102340008FFFFEFF002C014000340140004001409F
:10235000004401400048014030B5026A22F4801276
:102360000262046A4268436D114D24F400142B404C
:102370000D6843EA05230D8944EA05540D4DA84232
:102380000BD00D4DA84208D00C4DA84205D00C4DE5
:10239000A84202D00B4DA84204D14D6922F48022FC
:1023A00042EA8522426043654968C165046230BDE6
:1023B000FF8FFFFE002C014000340140004001402F
:1023C0000044014000480140104810B5816941F4C3
:1023D00080418161002205212520FEF7EDFA2520AC
:1023E000FEF7DEFA0B480A4901604FF416414160DE
:1023F000002181600C22C160C0E904128161C161C9
:1024000001624162BDE81040FFF7B7BA0010024018
:1024100000380140881A002090F82410C90706D01F
:1024200001684A68836A22F400321A434A6090F8CD
:102430002410890706D501684A68C36A22F48032ED
:102440001A434A6090F82410490706D501684A6883
:10245000036B22F480221A434A6090F82410090783
:1024600006D501684A68436B22F400421A434A6069
:1024700090F82410C90606D501688A68836B22F497
:1024800080521A438A6090F82410890606D50168A4
:102490008A68C36B22F400521A438A6090F82410B1
:1024A000490611D501684A68036C22F480121A4368
:1024B0004A60016CB1F5801F06D101684A68436C1F
:1024C00022F4C0021A434A6090F82410090606D587
:1024D00001684A68806C22F4002202434A60704717
:1024E00070B50025044680F86A50006800686FF0F7
:1024F0007E46000707D5334600224FF400112046E0
:1025000000F0ACF958B920680068400709D5334697
:1025100000224FF48001204600F0A0F908B103200A
:1025200070BD6834012060702570002070BD00000F
:10253000052206490648FFF753FA10B90620FDF7B1
:1025400003FF322000F0D8FBF2E70000E00000209B
:10255000881A002010B590F86920B0F85C10222A83
:1025600003D0322A01D0022010BD8268B2F5805F0C
:1025700001D102697AB10268928C0A40416D4B1C0C
:1025800043650A70B0F85A10491E0904090CA0F8F6
:102590005A1009D020E00368426D9B8C0B401380D9
:1025A000416D891C4165EDE701680A6822F020024F
:1025B0000A6090F86910322910D001680A6822F484
:1025C00080720A6001688A6822F001028A60012133
:1025D00080F86910FFF74EFA002010BD1221F7E7CE
:1025E0000D4D0E4E0E4F0F4C4FF0FF38002342465C
:1025F0001946286801F02EF80128F7D13078002814
:10260000F4D097ED000AFDF7F9FF0146606006225D
:102610000548FFF749FAE9E7B00000205A0000201A
:10262000CC000020D8000020881A00202DE9F041BD
:10263000044610202369A268E6691A4363690021F1
:1026400033431A4323680D461E6849F20C67BE43A4
:1026500016431E6022685368E66823F440533343F0
:102660005360236AA2691A4323689E6826F4306681
:1026700016439E60574F2268574B0603BA420CD14F
:102680001B6B13F0030306D0012B4DD0022B4DD052
:10269000032B4CD146E0012049E0504FBA420CD107
:1026A0001B6B13F440333BD0B3423DD0B3F5003F36
:1026B0003CD0B3F5403F3AD134E0494FBA420DD156
:1026C0001B6B13F440232BD0B3F5802F2CD0B3F524
:1026D000002F2BD0B3F5402F29D123E0414FBA4230
:1026E0000DD11B6B13F440131AD0B3F5801F1BD010
:1026F000B3F5001F1AD0B3F5401F18D112E03A4FBE
:10270000BA4214D11B6B13F4400309D0B3F5800F08
:102710000AD0B3F5000F09D0B3F5400F07D101E09F
:10272000002004E0022002E0042000E00820E36929
:102730004FF40047BB4226D109281DD2DFE800F044
:102740000508101C151C1C1C1800FEF7C5FA01E03A
:10275000FEF7D8FA61684000B0FBF1F081B20CE0FE
:1027600022496068B1FBF0F0F8E7FEF7E1FAF1E723
:102770006068B6FBF0F0F1E7012521F00F00C1F32E
:10278000420108431AE0092820D2DFE800F00508DA
:102790000B1F111F1F1F1A00FEF79EFA0AE0FEF71B
:1027A000B1FA07E012496068B1FBF0F080B20BE0CB
:1027B000FEF7BEFA6168B0FBF1F080B22168C86034
:1027C00005E06068B7FBF0F0D06000E00125284626
:1027D000BDE8F08100380140001002400044004094
:1027E00000480040004C0040005000400024F4002D
:1027F00000127A0090F86910122903D0322901D012
:1028000002207047B0F8521021B18168B1F5805FA5
:102810000BD00CE001680A6822F080020A600068B0
:10282000016841F0400101600CE0016961B1C16CD7
:102830004A1CC26402680978A2F8281030F8521FB6
:10284000491E018000207047C16C02680988C1F3ED
:1028500008011185C16C891CC164EFE72DE9F047BF
:102860001D4690460E460446FEF75EF807465FEAB0
:1028700008004FF000094FF0030808D030E0681C52
:1028800005D095B1FEF750F8C01BA8420DD82068BE
:10289000C06936EA0000F2D127E0681C20D025B1DB
:1028A000FEF742F8C01BA8421AD92068016821F03F
:1028B000800101602068016821F02001016020682A
:1028C000016821F4807101602068816821F00101B4
:1028D000816084F8698084F868900320BDE8F087FF
:1028E0002068C06936EA0000D7D00020F6E7000073
:1028F0000148FEF7AFBF0000881A002010B5064C53
:10290000206840F002002060022000F0F5F9206805
:1029100020F00200206010BD1404004870B5064687
:102920000D46022000F0E8F9174C206820F0F30073
:102930002060206806F0F001084320602068012D27
:102940001BD020F001002060FFF7D8FF022000F02C
:10295000D3F9206820F0F3002060206806F00F0112
:1029600040EA011020602068012D09D020F001000C
:102970002060BDE87040FFF7C1BF40F00100E2E712
:1029800040F00100F4E700001404004802E008C829
:10299000121F08C1002AFAD170477047002001E0D9
:1029A00001C1121F002AFBD17047B5EEC00AF1EE3B
:1029B00010FA01DAB1EE400A704700000178B2EE79
:1029C000042A303900EE101A4178F8EEC01A303976
:1029D00000EE101A8178C078B8EEC00A303900EEE7
:1029E000901A303801EE820AB8EEE01ADFED061ACE
:1029F00000EE900A01EE210AF8EEE00A9FED031ABC
:102A000000EE810A70470000CDCCCC3D0AD7233CB4
:102A100001789FED132A303900EE101A4178B8EE94
:102A2000C01A303900EE101A817821EE021AF8EE41
:102A3000C00A3039B2EE042A00EE101AC07800EE57
:102A4000821AB8EEC00A303801EE900ADFED050AAE
:102A5000F8EEE11A31EE000A01EEA00A704700001C
:102A60000000C842CDCCCC3D61EE001A074881EE93
:102A7000A00AC1EE201AF7EE000A90ED041A70EEDB
:102A8000E10A01EE200A80ED040A70475C00002094
:102A90009EB0FDF757FFFFF7C3F9FDF7F9FD0320DF
:102AA000FDF71CFC0020FDF719FC0120FDF716FCCA
:102AB0000220FDF713FC0420FDF710FC0620FDF7B3
:102AC0000DFC0720FDF70AFC0520FDF707FCFFF7CA
:102AD0003DFAFFF703FAFFF769FA3C214C48FEF78D
:102AE000DFFCFFF771FC9FED4B0A49483C3080ED5D
:102AF000080AB3EE040A80ED030AB0EE000A80ED86
:102B0000040A9FED450A80ED050A9FED440A80ED19
:102B1000060A9FED430A012180ED070A0172417206
:102B200003220021012000F071FD3E4CA06420B181
:102B300000231A46194600F051FE0322002101200D
:102B400000F064FDE06420B100231A46194600F04D
:102B500045FE03220021012000F058FD206520B130
:102B600000231A46194600F039FE032200210120F5
:102B700000F04CFD606520B100231A46194600F0B4
:102B80002DFE142228496846FDF772FB0021684695
:102B900000F0C1F8244920631422143105A8FDF780
:102BA00067FB002105A800F0B6F81F4960631422F6
:102BB00028310AA8FDF75CFB00210AA800F0ABF859
:102BC0001949A06314223C310FA8FDF751FB0021E5
:102BD0000FA800F0A0F81449E0631422503114A8A3
:102BE000FDF746FB002114A800F095F80E4920647B
:102BF0001422643119A8FDF73BFB002119A800F04D
:102C00008AF800216064084600F07DF8FEE70000C5
:102C1000181A0020CDCCCC3C00000000CDCC4C3E9E
:102C2000CDCC4C3D5C000020443D00080146002016
:102C3000842900D0C81C704700210120FFF76EBE18
:102C40001A4810B5416941F4802141611848F721C3
:102C50000124C0E900140321C0E9024101461548DE
:102C6000FDF792FD13481430016821F0F301016073
:102C7000016821F00401016020210160022000F0C0
:102C80003BF8FFF73BFE00212820FFF747FE00211D
:102C90000E20FFF743FE00210620FFF73FFE064807
:102CA0000470BDE81040FFF7C7BF000000100240ED
:102CB000F41A002000040048D400002010B5044697
:102CC00003E00121FFF72AFE641C002C02D02078CB
:102CD0000028F6D110BD0121FFF720BE401EA1F152
:102CE000010110F0FF00C9B200D04020084340F0BD
:102CF00080000021FFF712BE10B500B9012000F0DE
:102D000001FB002010BD10B508B100F004F800F080
:102D1000CBFB002010BD30B5044685B00D46B0F9A0
:102D20000800FFF783FF002104AA0090CDE90121EC
:102D30000391208A2B4682B2D4E9001000F040FEB5
:102D4000049805B030BD000000B590F824104D4A3D
:102D50009FED4D2ADFED4D0A69B190ED0A0A80ED35
:102D60000B0A00BF90ED0B0A10EE101A91427FDBA8
:102D700080ED0B2A00BD90ED000AB5EEC00AF1EE21
:102D800010FA02D1C0ED0B0AECE790ED011A4049B0
:102D900030EE410A81ED050AFFF707FE90ED071AB4
:102DA000B4EEC10AF1EE10FA01D8C1ED050A90EDBA
:102DB000031A91ED050A61EE002AC1ED072A037A94
:102DC0004BB390ED043AD0ED081AB4EEE13AF1EECF
:102DD00010FA01D2C0ED041AD0ED043A81EE233A84
:102DE000B6EE001A23EE011A91ED063A30EE033AE0
:102DF00021EE033A91ED091A03EE211A11EE103A71
:102E000081ED081A934201DB81ED082A91ED081A41
:102E100081ED091A01E0C1ED080A437ACBB1D1ED89
:102E2000061A90ED051A91ED0B3A70EE611A61EEFB
:102E3000211A90ED061A41EE031A90ED083A33EE8E
:102E4000013A81EE831A81ED0A1A81ED0B1A02E034
:102E50000EE0C1ED0A0A91ED081AD1ED0A1A32EE20
:102E6000811A31EE211A80ED0B1A81ED060A79E7FD
:102E7000B5EEC00AF1EE10FA3FF67CAFC0ED0B0ADA
:102E800000BD00000000C8420000C8420000000071
:102E90005C00002070B50B4C054620684560E0687A
:102EA0002168854201F1040104D2606BBDE87040E5
:102EB00000F08CB9206B00F089F9E06A854200D2FD
:102EC000E56270BD0C00002070B5124E124C1AE085
:102ED00000F010FB3068D0B100F0E0FE00F09AF98D
:102EE000F068C568281D00F051F9A068401EA06078
:102EF0006068401E606000F09BF9286B00F0A2F94A
:102F0000284600F09FF960680028E1D170BD00F00C
:102F1000C5FEF8E7EC0100200C00002030B4036887
:102F20000D46002B0CD0026CC1688C18C46041683F
:102F30008C4200D3C360C168284630BCFDF798B905
:102F400030BC704770B51546026C044682B1BDB105
:102F5000E068FDF78DF9E168206C091AE1602268EC
:102F6000914202D26168081AE060022D15D019E082
:102F70002068B8B9606800F033FA0020606011E0A2
:102F8000A068FDF775F9216CA0680844A06061682D
:102F9000884207D32068A06004E0A06B10B1A06B4A
:102FA000401EA063A06B401CA06370BD0F4810B50D
:102FB00020F007010E4800230D4AC0E9001341F23A
:102FC0006870084408380C3A4407106002D0FDF7D6
:102FD0002FF9FEE7436003604FF4BB53C1E90003E0
:102FE0005068083850609806906010BD1C020020A0
:102FF00050000020044C00BFFFF766FF2068012846
:10300000FAD900F073F9F7E72401002030B511492F
:1030100000E011460A688242FBD34B685C18844288
:1030200003D1406818444860084643681C1894421D
:1030300009D1084C0C3C2468A24209D052681A44B9
:1030400042600A6812680260814200D0086030BDA8
:103050000460F9E75000002004484068401C02D09A
:10306000FDF7E6F8FEE7FDF7E3F8FEE700000020D5
:1030700070B5044600F0CEF804F124050AE0606A59
:1030800058B1284600F0D8FD08B100F081F9A06CD5
:10309000401EA064A06C0028F1DC4FF0FF36A6644F
:1030A00000F0C6F800F0B6F804F110050AE0206957
:1030B00058B1284600F0C0FD08B100F069F9606C15
:1030C000401E6064606C0028F1DC6664BDE87040FE
:1030D00000F0AEB82DE9F0410546002700F00AFAED
:1030E0001F4E306808B9FFF761FFB068054232D162
:1030F0008DB30835680704D005F00700C0F108005B
:10310000054445B37068854225D815480C30014602
:103110000C6801E020460C466168A94202D2216891
:103120000029F7D131688C4215D007682168016009
:1031300060680837411B102904D960194160656037
:10314000FFF764FF60687168091A7160B16808432D
:1031500060600020206000F0A1FD3846BDE8F081ED
:103160004400002010B5031F4FF080741C601B1F2B
:103170001960191F044B0B6014390A60091F6FF0A6
:10318000020244380A6010BD59300008D0E901122B
:103190008A60D0E90112516001694A68824201D116
:1031A00082684A60002202610868401E0860704719
:1031B00000F108014FF0FF32C0E90112C160016166
:1031C00000210160704700210161704730B50B6834
:1031D0005A1C02D000F1080202E0026904E0224613
:1031E000546825689D42FAD953684B6099608A609B
:1031F000516008610168491C016030BD42684A6045
:1032000093688B6093685960916008610168491CFC
:103210000160704710B5FDF70BF804484168491C80
:10322000BFF34F8FBFF36F8F416010BD00000020D0
:1032300003494868401E486001D1FDF700B8704757
:103240000000002070B500281DD00F4DA0F108042B
:103250006068A968084204D022682AB1FCF7E8FF38
:10326000FEE7FCF7E5FFFEE78843606000F042F907
:1032700060686968084468602046FFF7C7FEBDE8DB
:10328000704000F00BBD70BD4400002006484FF4B4
:103290007A710068B0FBF1F14FF0E020491E416106
:1032A0000721016170470000E800002010B5FCF71D
:1032B000C9FF0C4910280AD34FF0E022104490F8BF
:1032C000F0030A78904202D2FCF7B2FFFEE706480C
:1032D0000068896800F4E060884202D9FCF7A8FF22
:1032E000FEE710BD000000200CED00E004494FF0A7
:1032F00080500860BFF34F8FBFF36F8F704700009F
:1033000004ED00E010B502000FD000F0F3F809481A
:10331000C16800688C18001DFFF738FF2046FFF7D2
:10332000B9FD00F0BBFC002803D1BDE81040FFF759
:10333000DDBF10BD0C00002070B50546FFF76AFF29
:10334000114C05B92568281DFFF720FFA86A18B1A0
:1033500005F11800FFF71AFF291D0C48FFF74EFF73
:103360006068401C6060A06A401CA062FFF760FFBC
:103370006069002806D02068854203D1BDE870400E
:10338000FFF7B4BF70BD00000C000020EC0100206E
:1033900001490120086270470C00002070B50C46FE
:1033A00080B10D4D29681831FFF710FF2868001D06
:1033B000FFF7ECFE601C08D0E8682044BDE87040D0
:1033C000FFF768BDFCF734FFFEE72968BDE87040F1
:1033D000091D0248FFF712BF0C0000200002002068
:1033E00010B504001BD0E16CE06A884217D0201DA4
:1033F000FFF7CCFEE06CE062C0F107000849A06175
:10340000E06A0A69904200D90861064900EB800031
:1034100001EB8000211DBDE81040FFF7EFBE10BD9D
:103420000C0000202401002070B5040029D0154DA7
:10343000E06A2968C96A884223D22868124EC06AA5
:10344000C0F10700A061E16A606901EB810106EB50
:103450008101884212D1201DFFF798FE2868C06ABA
:10346000E0622969884200D9286100EB800006EB00
:103470008000211DBDE87040FFF7C0BE2868C06A0B
:10348000E06270BD0C0000202401002010B528B1BE
:1034900004494A6A0260C968416010BDFCF7C8FE71
:1034A000FEE700000C0000201FB5002400940194EA
:1034B0000294234680220BA10C48039400F080FA6A
:1034C000012804D000280CD1FCF7B2FEFEE7FCF77F
:1034D000AFFE074801214161C460BDE81F4000F014
:1034E0003FB81FBD49444C4500000000F52F0008BF
:1034F0000C00002002488169491C8161704700006E
:103500000C000020144810B5816911B1012101623D
:1035100010BD00210162114903E0D2B10269521EBF
:103520000261026902EB820251F82220002A02693C
:10353000F3D002EB820201EB820101F108034A6839
:1035400052684A609A4201D152684A60D16801606B
:1035500010BDFCF76DFEFEE70C00002024010020EA
:103560001CB51D4908780190FF20087008788DF877
:1035700000009DF80000194A00F05000107007206C
:10358000906007E09DF80030A0F101004FEA43038E
:103590008DF800309DF800301B06F3D4000200F4D3
:1035A000E0609060019808700D48016841F4700176
:1035B0000160016841F070410160FFF767FE002083
:1035C0005060FCF703FE0748016841F0404101608C
:1035D000FCF7F2FD00201CBD00E400E0000000202C
:1035E00020ED00E034EF00E010B5FCF721FE00F024
:1035F000BBFA18B104494FF080500860BDE8104094
:103600000020FCF71CBE000004ED00E02DE9F041B5
:1036100017460E46050019D05020FFF75BFD040049
:1036200014D005FB06F0401CFFF754FD206050B19C
:10363000C4E90F560121204600F09BF884F84D7034
:103640002046BDE8F0812046FFF7FCFDFCF7F0FDC9
:10365000FEE700002DE9FF41002582B098460E46A6
:10366000040002D000271EB107E0FCF7E1FDFEE7F1
:10367000206C10B1FCF7DCFDFEE7FFF7CBFDA06B83
:1036800050B331462046E568FFF748FCB8F1000F1B
:1036900010D0E560606A38B104F1240000F0CCFA83
:1036A00010B100BFFFF722FEFFF7C2FD012006B0F8
:1036B000BDE8F081A06B401EA063206810B900F047
:1036C0003FFA606020690028EED004F1100000F09D
:1036D000B3FA0128E6D0E7E7049808B11DB106E087
:1036E000FFF7A6FD1DE06846FFF7D0FE0125FFF7B6
:1036F0009FFDFFF7FFFEFFF78DFD606C401C00D1C2
:103700006764A06C401C00D1A764FFF791FD04A979
:10371000684600F029F930B12046FFF7A9FC00F017
:10372000BDFA0020C3E7FFF775FDA06B38B1FFF7C6
:103730007FFD2046FFF79CFC00F0B0FA9DE7FFF705
:1037400077FD206830B9FFF765FD6068FFF76CFE14
:10375000FFF76EFD04F124000499FFF71FFE2046D9
:10376000FFF786FC00F09AFA002886D1FFF7BEFD2D
:1037700083E770B50D46040023D0FFF74BFDD4E975
:103780000F20216802FB001161600021A163216804
:10379000A1600A46E06B216C401E00FB01214FF046
:1037A000FF30E1606064A06404F1100065B1FFF7D0
:1037B000FFFC04F12400FFF7FBFCFFF739FD0120BB
:1037C00070BDFCF735FDFEE721690029F5D000F05A
:1037D00033FA0128F1D1FFF789FDEEE72DE9FF412A
:1037E000002682B01D468846040003D0B8F1000FC1
:1037F00003D007E0FCF71CFDFEE7206C10B1FCF7DE
:1038000017FDFEE70027022D05D1E06B012802D04D
:10381000FCF70EFDFEE7FFF7FDFCA06BE16B8842B5
:1038200005D3022D03D00498B0B1C6B11BE02A46DF
:1038300041462046FFF786FB606A38B104F1240058
:1038400000F0FAF9012801D1FFF750FDFFF7F0FC75
:10385000012006B0BDE8F081FFF7EAFC1DE06846F4
:10386000FFF714FE0126FFF7E3FCFFF743FEFFF727
:10387000D1FC606C401C00D16764A06C401C00D17E
:10388000A764FFF7D5FC04A9684600F06DF830B1D5
:103890002046FFF7EDFB00F001FA0020D9E7FFF723
:1038A000B9FCA06BE16B884210D1FFF7C1FC04F1B9
:1038B00010000499FFF772FD2046FFF7D9FB00F0D6
:1038C000EDF90028A7D1FFF711FDA4E7FFF7B0FC41
:1038D0002046FFF7CDFB00F0E1F99CE72DE9F04130
:1038E0001D4616460F46040001D01FB107E0FCF745
:1038F0009FFCFEE7206C10B1FCF79AFCFEE7022D5E
:1039000005D1E06B012802D0FCF792FCFEE7FFF73F
:10391000CDFCFCF78DFC8046A06BE16B884208D3A0
:10392000022D06D000244046FCF789FC2046BDE865
:10393000F0812A4639462046FFF704FBA06C401C64
:1039400004D0A06C401CA0640124ECE7606A00284D
:10395000FAD004F1240000F06FF90028F4D0002E12
:10396000F2D001203060EFE770B50D46040019D0A9
:10397000DDB1FFF74FFC114AD1682868431C0FD016
:103980002368526A934202D062688A4210D9626800
:10399000891A81420CD2401A28602046FFF776FD32
:1039A000002406E0FCF744FCFEE7FCF741FCFEE7E0
:1039B0000124FFF73DFC204670BD00000C000020F4
:1039C0002DE9FF5F1546DDE90E68109F8A465FEA24
:1039D000000B04D0072E05D3FCF72AFCFEE7FCF70A
:1039E00027FCFEE75020FFF775FB04001CD0A80061
:1039F00081469FB13846206398B1A5224946FCF71D
:103A000049FC6FF00301206B01EB8501084420F0B5
:103A1000070778070BD0FCF70BFCFEE7FFF75AFB14
:103A2000E9E72046FFF70EFC4FF0FF347FE05146F8
:103A30003546002022180B5C82F834300A5C12B143
:103A4000401C1028F6D3002184F84310072D00D322
:103A50000625E562201DE564FFF7B5FB04F11800BB
:103A6000FFF7B1FBC5F107012461A161646259460A
:103A70003846039AFFF776FB2060B8F1000F01D0BB
:103A8000C8F80040FFF7C6FB2B4DA868401CA86093
:103A90002868DFF8A88010B1686940B32CE02C607A
:103AA000A868012828D1002707EB870108EB8100CF
:103AB000FFF77EFB7F1C072FF6D320488C30FFF7E3
:103AC00077FB1E48A030FFF773FB1C48B430FFF7AC
:103AD0006FFB1A48C830FFF76BFB1848DC30FFF764
:103AE00067FB16488C3028631430686304E028684C
:103AF000C06AB04200D82C60A86A401CA86260640A
:103B0000E06A2969884200D9286100EB800108EB4E
:103B10008100211DFFF772FB0124FFF789FB686913
:103B200028B12868C06AB04201D2FFF7DFFB04B0B9
:103B30002046BDE8F09F00000C000020240100207A
:103B400001480068704700000C00002005484169EA
:103B500019B1806918B10220704700207047012018
:103B6000704700000C0000202DE9F047304C002683
:103B7000A06940B1E069401CE061206A00B1012603
:103B80003046BDE8F087E068401CE060E7684FF031
:103B9000FF39A7B9206B006810B1FCF749FBFEE7BD
:103BA000206B616B21636063606A401C6062206B04
:103BB0000068E8B1206BC068C0684068E062E06AF5
:103BC000DFF87080874209D3206B006890B1206BCA
:103BD000C068C568686887420ED2E0622068C06A23
:103BE00000EB800158F821000128C6D90126C4E75E
:103BF0004846E3E74846F0E7281DFFF7C7FAA86AFA
:103C000018B105F11800FFF7C1FAE86A2169884286
:103C100000D9206100EB800108EB8100291DFFF72E
:103C2000EDFAE86A2168C96A8842CDD30126CBE75C
:103C30000C0000202401002070B5C068C46854B195
:103C400004F118000646FFF7A1FA124DA86928B141
:103C50003146114811E0FCF7EBFAFEE7201DFFF7B3
:103C600095FAE06A2969884200D928610A4900EB7F
:103C70008000B43901EB8000211DFFF7BFFAE06A34
:103C80002968C96A884202D30120286270BD0020D9
:103C900070BD00000C000020D80100202DE9F04785
:103CA000264C0027A06938B1FFF7B4FAA069401E7E
:103CB000A061A06918B13BE0FCF7BAFAFEE7A16881
:103CC0001F4E0120A1B3A6F1B40980463068E0B1CF
:103CD000F068C56805F11800FFF758FA281DFFF7CE
:103CE00055FAE86A2169884200D9206100EB800119
:103CF00009EB8100291DFFF781FAE86A2168C96A8A
:103D00008842E3D3C4F82080E0E7E06950B145463B
:103D1000E06938B1FFF728FF00B12562E069401E75
:103D2000E061F5E7206A012802D10127FFF7DEFAFA
:103D3000FFF77EFA3846BDE8F08700000C0000204F
:103D4000D8010020093E0008111B000800000000F7
:103D50000000000080000000503E0008C51D000863
:103D60000200000000000000800000001A3E000871
:103D7000E1250008000000000000000080000000B5
:103D8000283E000831250008000000000000000067
:103D900080000000393E00086103000800000000B8
:103DA0000000000080000000003E0008011D000827
:103DB0000300000000000000800000000203040572
:103DC000060708090A0B0C0D0E0F10100102030460
:103DD00005060708090A0B0C0D0E0F100000000065
:103DE000010203040102030406070809060001009A
:103DF00000020001000400800008004000100020C4
:103E00005049445F5461736B004C43445F44697391
:103E1000706C61795F5461736B00554152545F530C
:103E2000656E645461736B00554152545F52656313
:103E3000656976655461736B00436F6D6D616E6487
:103E400050726F6363657373696E675461736B005F
:103E5000537461727455705461736B007C3E00083A
:103E600000000020240100008C290008A03F000869
:103E700024010020E41D00009C290008000000002F
:103E8000AAAAAAAA0000000000000000000000008A
:103E90000000000000000000000000000000000022
:103EA0000000000000000000000000000000000012
:103EB00000000000FFFFFFFF000000000000000006
:103EC0000000000068170000000000000000000073
:103ED00000000000000000000100000000000000E1
:103EE00000000000000000000000000000000000D2
:103EF00000000000000000000000000000000000C2
:103F000000000000000000000000000000000000B1
:103F100000000000000000000000000000000000A1
:103F20000000000000000000000000000000000091
:103F30000000000000000000000000000000000081
:103F40000000000000000000000000000000000071
:103F500000000000722F730000000000000000004D
:103F60000000000000127A000000000000000000C5
:103F700001020304060708090000000000000048D1
:103F800000100048001000480010004800100048D1
:103F900000100048001000480010004800100048C1
:040000050800018965
:00000001FF
