:020000040800F2
:1000000000A00020C17000081171000811710008E3
:100010001171000811710008117100080000000042
:100020000000000000000000000000000143000884
:1000300011710008000000009143000839690008B0
:100040001171000811710008117100081171000888
:100050001171000811710008117100081171000878
:10006000117100081171000811710008E969000898
:100070001171000811710008117100081171000858
:100080001171000811710008496900081171000818
:1000900071690008117100081171000811710008E0
:1000A0001171000811710008117100081171000828
:1000B0001171000811710008117100087D690008B4
:1000C000896900081171000811710008956900081C
:1000D00011710008A1690008117100081171000870
:1000E00011710008117100081171000811710008E8
:1000F00011710008117100081171000811710008D8
:100100000000000000000000000000001171000865
:1001100011710008117100081171000811710008B7
:10012000DD690008117100081171000811710008E3
:1001300011710008117100080000000000000000AB
:100140001171000811710008117100080000000011
:10015000000000000000000000000000000000009F
:10016000000000000000000011710008117100087B
:1001700011710008000000000000000000000000F5
:080180000000000011710008ED
:1001900010B5054C237833B9044B13B10448AFF3C1
:1001A00000800123237010BDD40100200000000056
:1001B000C479000808B5034B1BB103490348AFF3EA
:1001C000008008BD00000000D8010020C4790008AC
:1001D00001F0FF01102A2BDB10F0070F08D010F8F8
:1001E000013B013A8B422DD010F0070F42B3F6D1FC
:1001F000F0B441EA012141EA014122F007047FF015
:1002000000070023F0E80256083C85EA010586EA6B
:10021000010685FA47F5A3FA87F586FA47F6A5FAA7
:1002200087F68EB9EED1F0BC01F0FF0102F00702B3
:1002300032B110F8013B013A83EA010313B1F8D15E
:100240000020704701387047002D06BF354603383F
:10025000073815F0010F07D1013015F4807F02BF78
:10026000013015F4C03F0130F0BC0138704700BFC9
:1002700010B5084B044618684FF47A73B0FBF3F0DE
:1002800000F072FE002221464FF0FF3000F02CFEFD
:10029000002010BD20010020074A08B5136843F074
:1002A00010031360032000F00DFE0F20FFF7E0FFA6
:1002B00006F00AFA002008BD00200240024A136836
:1002C00001331360704700BF10210020014B1868F4
:1002D000704700BF1021002070477047704738B545
:1002E00003680446986800F00300012801D000204C
:1002F00038BD1A68D207FAD59A6802F00D02012AB1
:100300001BD19A6842F002029A6003221A60FFF73A
:10031000DDFF054623689B68DB07E8D5FFF7D6FFBE
:10032000401B0228F6D9636C43F010036364A36C8E
:1003300043F00103A364012038BD636C43F0100354
:100340006364A36C43F00103A36438BD38B503684C
:100350009A6802F00302012A044604D11A68D207FF
:1003600001D5002038BD99680E4A11420FD19A6814
:1003700042F001029A60FFF7A9FF054623681B6857
:10038000DB07EED4FFF7A2FF401B0228F6D9636C0F
:1003900043F010036364A36C43F00103A3640120E2
:1003A00038BD00BF3F000080406A436C43F040030B
:1003B0004364836C43F004038364FFF78FBF406A98
:1003C000FFF78ABF436A5A6C12F0500F18D15A6C6B
:1003D00042F400725A641A68D26812F4406F0CD169
:1003E000DA6952B95A6C22F480725A645A6CD20497
:1003F0005EBF5A6C42F001025A64184606F0AABA6F
:10040000DB6B1B6B1847000070B596B000230093A0
:100410000446002800F08480426CD20662D4436C0B
:10042000002B2DD0002023689A68D10002D59B684C
:100430009A000AD5636C23F0120343F0100363643F
:10044000A36C43F00103A3640120636CDB0661D459
:1004500000285FD123689D6815F004055AD1626CAD
:1004600022F4817242F00202B3F1A04F62646B4A3F
:1004700003D0934256D14FF0A0420192684957E011
:1004800083640365C36480F8403006F05BF9236839
:100490009B68DE00C6D42046FFF721FF626CD506BC
:1004A000C1D40028BFD1636C23F4885323F0020326
:1004B00043F00203636423689A6822F040529A6012
:1004C0009A6842F080529A60564B574A1B68B3FBB9
:1004D000F2F20A2353430093009B002BA2D0009B0F
:1004E000013BF8E71846B0E793420CBF0191019039
:1004F0001DE0616C21F0220141F020016164A16CDA
:1005000041F00101A16443E04FF4E07155E04FF484
:10051000307152E0636C23F0120343F01003636404
:10052000012079E04149424A8B42DDD101924149A3
:100530009A6802F00302012A02D11A68D6070FD482
:10054000019A3AB1966806F00306012E02D11268AC
:10055000D20705D48A68666822F4403232438A6042
:10056000A26BA668E169012AE26842EA060218BFA6
:100570004FF4805542EA41322A43656A012D07D182
:100580000029B6D1A16A013942EA414242F48032DF
:10059000E16A012914D0254DAB4203D005F58075E1
:1005A000AB420AD1B1F5307FAED0B1F5807FAED08D
:1005B000B1F5E07F08BF4FF48071256B2A430A43F1
:1005C000996811F00C0F0BD1D968A56921F480410D
:1005D00021F00201D960616B490041EA85310A438B
:1005E000DD68154929400A43DA602269012A05BFFE
:1005F000196B226A1A6B02F1FF3206BF21F00F015C
:100600000A4322F00F021A630023A364636C23F0F1
:10061000030343F00103636416B070BD0001005092
:10062000000300502001002040420F000004005051
:10063000000500500007005007C0F0FF2DE9D84129
:10064000036890469A68560704460F4600F1928068
:1006500090F84020012A00F08D800122B3F1A04FD4
:1006600080F8402002D0444A934235D1434B9B68E6
:1006700013F01F0F0CBF01230023002B76D0204660
:10068000FFF764FE064600286CD1606C216820F4F8
:10069000706020F0010040F48070B1F1A04F606400
:1006A00002D0354B994219D1344B9B68D80605D0FE
:1006B000B1F1A04F02D0324B99421CD1636C23F4AC
:1006C00080136364CB689B0123D5636C23F4405390
:1006D00043F4805363641CE02A4BC8E7294B9B68B2
:1006E000DA06EBD0264B9942E8D0636C43F48013D2
:1006F0006364234B08E0636C43F4801363641E4B14
:100700009942F6D14FF0A043D868C0F3406000286A
:10071000DBD1636CE06B13F480531CBFA36C23F03C
:100720000603A364002384F84030174B8362174B01
:10073000C362174B03631C230B604B6843F0100329
:100740004B60CB6843F00103CB603A4643464031EF
:1007500000F0DBFC2268936843F0040393603046AA
:10076000BDE8D881002384F84030F8E784F84030B1
:100770000126F4E70226F2E70001005000030050D2
:100780000004005000070050C5030008BF03000824
:10079000A9030008704770477047000003681A6893
:1007A000520710B5044602D55A68500705D41A6896
:1007B000110744D55A68120741D5626CD0065EBF56
:1007C000626C42F400726264B3F1A04F03D0A34A9A
:1007D000934240F00F81A24A9168C9060CD0B3F150
:1007E000A04F03D09D498B4240F00981926802F0EE
:1007F0001F02052A40F01581DA68D96811F4406FAC
:1008000017D1900415D41A68110712D59A685207A7
:1008100000F12C815A6822F00C025A60636C23F4B8
:1008200080736364636CDB0403D4636C43F0010383
:100830006364204606F08EF823680C221A60236851
:100840001A68900602D55A68910605D41A685206AD
:1008500062D55A6850065FD5626CB3F1A04F42F47E
:100860000052626403D07D4A934240F008817C4A82
:100870009168C9060CD0B3F1A04F03D077498B42E1
:1008800040F00281926802F01F02052A40F00E81BA
:10089000DA68D96C11F0C00F07D0900136D4D9684E
:1008A00011F4406F32D1910430D41A6852062DD51C
:1008B000B3F1A04F03D0694A934240F01381684AD4
:1008C0009168C8060CD0B3F1A04F03D063498B42A6
:1008D00040F00D81926802F01F02062A40F0198153
:1008E000DA68920212D49A68100700F12E815A68D1
:1008F00022F060025A60636C23F480536364636C7B
:10090000D90503D4636C43F001036364204606F009
:100910002DF8236860221A6023681A6812060CD525
:100920005B681B0609D5636C43F48033636420461F
:10093000FFF7D3FC236880221A6023681A68D00569
:100940000DD55B68D9050AD5636C43F40033636445
:100950002046FFF720FF23684FF480721A60236857
:100960001A6892050DD55B6898050AD5636C43F447
:10097000802363642046FFF70FFF23684FF4007263
:100980001A6022681368D9061CD55368DB0619D58E
:10099000A36B012B00F0E880B2F1A04F00F0DE80E5
:1009A0002F49304B2D48824208BF0B469968C80634
:1009B00040F0D680D36813F0010F40F0D580236853
:1009C00010221A6023681A68510540F1D9805A68CC
:1009D000520540F1D580626C42F480426264A26CA0
:1009E00042F00802A2644FF480621A602046FFF7CA
:1009F000D1FE10BD1B4A9268D2063FF4FDAE194AE3
:100A0000926802F01F02052A3FF4F6AE154A92687A
:100A100002F01F02092A3FF4EFAE134A93421AD1A3
:100A2000EAE6B3F1A04F02D00C4A9342EED10C4A51
:100A3000926802F01F02092A3FF4DEAEB3F1A04F24
:100A40003FF4DAAE084A93423FF4D6AE03498B42F4
:100A500008BF4FF0A042D268CFE600BF00010050AF
:100A6000000300500007005000040050636C43F086
:100A700010036364A36C43F00103A364D9E6414A05
:100A80009268D2063FF404AF3E4A926802F01F0219
:100A9000052A3FF4FDAE3B4A926802F01F02092A84
:100AA0003FF4F6AE384A93421AD1F1E6B3F1A04FC3
:100AB00002D0364A9342EED1354A926802F01F02C4
:100AC000092A3FF4E5AEB3F1A04F3FF4E1AE2E4A60
:100AD00093423FF4DDAE2D498B4208BF4FF0A04258
:100AE000D268D6E6274A9268D1063FF4F9AE254A85
:100AF000926802F01F02062A3FF4F2AE214A926881
:100B000002F01F02072A3FF4EBAE1F4A93421AD1AC
:100B1000E6E6B3F1A04F02D01C4A9342EED11C4A44
:100B2000926802F01F02072A3FF4DAAEB3F1A04F39
:100B30003FF4D6AE144A93423FF4D2AE13498B42EF
:100B400008BF4FF0A042D268CBE6636C43F01003BD
:100B50006364A36C43F00103A364D7E60C4B25E761
:100B60009B6813F4404F28E7636C43F4806363642D
:100B7000A36C43F00203A3642046FFF7AFFB1EE71C
:100B800010BD00BF000700500004005000010050DD
:100B900000030050F0B597B00023009390F8403068
:100BA000012B054600F063812B68CE689A6801200E
:100BB000520785F8400000F1558148680C68042808
:100BC0004FF0060231D842431F6B1F20904027EAA6
:100BD000000004FA02F202431A639A6812F00C0F42
:100BE00062D1092C4FEA44028F6846D922449869A1
:100BF0001E3A4FF0070E0EFA02FE20EA0E0007FA28
:100C000002F202439A61DA68C2F3C10E4A694FEAFE
:100C10004E0E02FA0EFE0A69013A4FEA846C032A6C
:100C200073D8DFE802F037515C6709280BD84243DC
:100C30005F6B1E3A1F20904027EA000004FA02F280
:100C400002435A63C9E70E280BD842439F6B3C3AD4
:100C50001F20904027EA000004FA02F202439A6340
:100C6000BBE74243DF6B5A3A1F20904027EA00005F
:100C700004FA02F20243DA63AFE7586922444FF004
:100C8000070E0EFA02FE20EA0E0007FA02F20243F5
:100C90005A61B8E71A6E834F174047EA0C0242F0D8
:100CA000004242EA0E021A669A6802F00302012A22
:100CB00040F0DF801A68D70740F1DB800020002376
:100CC00085F8403017B0F0BD5A6E764F174047EAAE
:100CD0000C0242F0004242EA0E025A66E4E79A6EC3
:100CE0007048104040EA0C0242F0004242EA0E0214
:100CF0009A66D9E7D86E6B4A024042EA0C0242F08B
:100D0000004242EA0E02DA66CEE71A6E02F0F842BC
:100D1000624502BF1A6E22F000421A665A6E02F055
:100D2000F842944502BF5A6E22F000425A669A6E0B
:100D300002F0F842944502BF9A6E22F000429A6691
:100D4000DA6E02F0F8429445AED1DA6E22F000423B
:100D5000D9E7D3F8B0200121A14022EA0102C3F86B
:100D6000B020B3F1A04F1ED04F49504A50488342A3
:100D700008BF0A46102C18D1916811F4000F9DD1BC
:100D8000B3F1A04F4A491CD1019124E0601C59697C
:100D900000EB40000722824021EA020106FA00F23D
:100DA0000A435A61DDE7404AE4E7112C03D1916818
:100DB00011F0807FE3E7122C80D1916811F4800F4D
:100DC000DDE78B4202D14FF0A041DDE739493A48D7
:100DD0008B422BD10190996801F00301012902D1C6
:100DE0001968C80738D4019939B1886800F0030040
:100DF000012802D10968C9072ED4102C1AD1B3F1E9
:100E0000A04F7FF45BAF936843F4000393602B4BD8
:100E10002B4A1B68B3FBF2F20A2353430093009B57
:100E2000002B3FF44BAF009B013BF7E7834218BF19
:100E30000021A9E7112C08D1B3F1A04F7FF43EAFF8
:100E4000936843F08073936038E7122C7FF436AFD9
:100E5000936843F48003F6E76B6C43F020036B6404
:100E600001202CE76B6C43F020036B6427E7022022
:100E700028E7012E7FF46DAFD3F8B020A6401643CB
:100E8000092CC3F8B0608E6880D904EB44029969DC
:100E90001B3A0720904021EA000106FA02F20A43B9
:100EA0009A615EE700F0FF830003005000070050E6
:100EB00000010050000400500005005020010020F7
:100EC00040420F00074AD36823F4E0631B041B0C65
:100ED00043F0BF63000243F4003300F4E0600343D7
:100EE000D360704700ED00E0174B30B5DC68C4F309
:100EF0000224C4F10703251D042B28BF0423062D5B
:100F00004FF0010505FA03F303F1FF338CBF033CF7
:100F100000241940A14005FA04F4013C22400028B5
:100F200042EA01024FEA0212AFBF00F1604000F056
:100F30000F00064BD2B2A5BF00F56140D2B21A54E1
:100F400080F8002330BD00BF00ED00E014ED00E0AC
:100F50004209012300F01F0003FA00F0014B43F89F
:100F60002200704700E100E00138B0F1807F0AD232
:100F7000064B074A5860F02182F823100020072210
:100F800098601A6070470120704700BF10E000E0D1
:100F900000ED00E0044B1A6804280CBF42F0040284
:100FA00022F004021A60704710E000E010B5044619
:100FB00008B9012010BD437F03F0FF0213B9027787
:100FC00005F014FC022363772379E3B92368134AFD
:100FD0005A619A6822F018029A6062792368D2B93D
:100FE0004FF0FF321A619A68616922F060020A4389
:100FF0009A609A68A16922F080020A439A600123EC
:101000006377002010BDE268A168204600F008F870
:101010000028E2D0CDE72269E4E700BFB71DC10494
:1010200030B51F23012404FA03F50D420AD113F150
:10103000FF33F8D2102A03D0182A01D0082A0BD186
:10104000012030BD102A10D0182A03D0082A03D15D
:101050000F2B00E0062BF3D800684161836823F072
:1010600018031A438260002030BD072BF3E700000D
:1010700001680C4B994210B54FF0140409D80A4A84
:101080000A44B2FBF4F292000264A3F20743C36382
:1010900010BD064B0B44B3FBF4F39B000364044BFD
:1010A000F5E700BF07040240F8FFFDBFF8FBFDBFF6
:1010B0000004024038B5044628B30223856880F84E
:1010C0002130436801682B43C5680A682B430569D2
:1010D0002B4345692B4385692B43C56922F47F5215
:1010E00022F030022B4313430B60FFF7C1FF0020B7
:1010F0000123A062E06220636063A06384F8213072
:1011000084F8200038BD012038BDF0B590F82040AB
:10111000012C35D090F821500124A54280F82040C0
:101120004FF000064FF0020428D180F821400468F7
:1011300086632668076C26F001062660C66BBD40F4
:101140007560636043680568102BC36A0BBFA260BB
:10115000A160E160E2604BB1236843F00E032360BD
:101160002B6843F001032B600020F0BD236843F09F
:101170000A032360236823F00403F0E780F820606B
:101180000220F0BD90F82120022A10B503D00422DD
:101190008263012010BD0268C46B1168436B21F0AB
:1011A0000E011160116821F001011160026C012132
:1011B00001FA02F26260002480F8211080F82040D9
:1011C00013B19847204610BD184610BDC16B026C84
:1011D000036870B40E681D680424944026420ED043
:1011E00015F0040F0BD01A6892065EBF1A6822F041
:1011F00004021A60C36A4C6073B370BC18470224BF
:101200009440264212D015F0020F0FD01A689506AE
:1012100006D41A6822F00A021A60012380F82130ED
:1012200000234C6080F82030836AE5E7082494406E
:10123000344211D02C070FD51C6824F00E041C601A
:10124000012303FA02F24A60836380F8213000230D
:1012500080F82030036BCFE770BC70472DE9F74F63
:10126000D1F80080DFF874915A4A002338FA03F469
:1012700002D103B0BDE8F08F012404FA03FA18EAA2
:101280000A0500F09C804C6824F0100BBBF1020FA3
:1012900014D14FEAD30E00EB8E0E03F0070CDEF8EC
:1012A00020604FEA8C0C0F2707FA0CF726EA070795
:1012B0000E6906FA0CF63E43CEF820604FEA430C66
:1012C0000327066807FA0CF7FF4304F0030E3E40BD
:1012D0000EFA0CFE0BF1FF3B4EEA0606BBF1010FC6
:1012E000066011D8866806EA070BCE6806FA0CFE7F
:1012F0004EEA0B068660466826EA0A0AC4F3001620
:101300009E4046EA0A064660C66837408E6806FA7E
:101310000CF63743E600C76051D5D9F8186046F09F
:101320000106C9F81860D9F8186023F0030707F11F
:10133000804706F0010607F58037019603F0030C9D
:10134000019EBE684FEA8C0C4FF00F0E0EFA0CFE99
:10135000B0F1904F26EA0E0E33D01F4EB04232D07D
:1013600006F58066B04230D006F58066B0422ED0D9
:1013700006F58066B04214BF0526042606FA0CF670
:1013800046EA0E06BE601668EF4314F4803F0CBFB9
:101390003E402E431660566814F4003F0CBF3E409A
:1013A0002E435660966814F4801F0CBF3E402E43B7
:1013B0009660D668A40254BF3E402E43D6600133E7
:1013C00054E70026DAE70126D8E70226D6E7032607
:1013D000D4E700BF000401400004004800100240B0
:1013E0000AB1816170478162704743695940416128
:1013F000704703689A69910744BF00229A629A690C
:10140000D2075EBF9A6942F001029A61704711F0FB
:10141000010307D090F8413003F02803282B0CBFBC
:101420004223F2238A0709D590F8412002F02802CE
:10143000282A0CBF43F0440343F0F4034A0701F0A9
:10144000110248BF43F0B80301F01201112A08BF8E
:1014500043F09003122901680A6808BF43F0600353
:1014600022EA03030B600020704710B504460028F1
:101470004AD090F8413003F0FF021BB980F84020B9
:1014800005F0C8F9242384F841302368E1681A681C
:1014900022F001021A60626822F070621A619A6892
:1014A000012922F400429A60A26824D142F4004249
:1014B0009A605A68616942F0007242F400425A60D0
:1014C000DA6822F40042DA6022690A43A16942EA3A
:1014D0000122DA60216AE2690A431A601A6842F05E
:1014E00001021A6000202023606484F841302063E8
:1014F00084F8420010BD42F4044202299A6004BFFD
:101500004FF400625A60D4E7012010BD0268436BBB
:101510009169126803B1184770477047704738B532
:10152000002580F8425090F84130292B04460DD117
:10153000282380F84130212303630121FFF767FF4F
:1015400084F840502046FFF7E8FF38BD90F841305E
:101550002A2B0CD1282380F8413022230363022157
:10156000FFF755FF84F840502046FFF7D7FF38BDFE
:1015700070477047164B10B52022C36200230363E7
:10158000436380F8412080F842304B07044611D570
:10159000436A5A1C42620268526A1A70038D4BB148
:1015A000013B0385438D013B9BB24385436C43F074
:1015B0000403436407212046FFF729FF2368102214
:1015C000DA61002384F840302046FFF7D2FF10BDD7
:1015D0000000FFFF704770470023354A10B580F8C0
:1015E0004230C2624385436C1943416490F84130F4
:1015F000282B044607D090F84130292B03D090F8CF
:1016000041302A2B22D103212046FFF700FF282357
:1016100084F8413000232363264B636323681968F1
:101620001A6811F480411ED022F48042A06B1A6027
:10163000214B4363002384F84030FFF7A3FD0028CB
:1016400034D0A06B436BBDE8104018470721FFF76B
:10165000DEFE94F84130602B1CBF202384F841301B
:1016600000232363D9E712F400420DD01A68E06B1F
:1016700022F400421A60104B436384F84010FFF7D5
:1016800081FD98B1E06BDDE794F84130602B08D123
:10169000202384F8413084F840202046FFF79BFF48
:1016A00010BD84F840202046FFF794FF10BD00BF16
:1016B0000000FFFFBD170008CF19000838B5036808
:1016C00020220446DA610822DA610D460721FFF77D
:1016D0009EFE23685A6842F400425A605A6822F01B
:1016E000FF7222F48B3222F4FF7222F001025A6060
:1016F0002046FFF77EFE22681368580402D4136860
:10170000190409D594F84130212B0CBFA36BE36B6E
:101710001B685B689BB26385638D9BB21BB1636C76
:1017200043F0040363646B0710D5636A526A591C63
:1017300061621A70238D4BB1013B2385638D013BA0
:101740009BB26385636C43F00403636400232363EB
:1017500084F842306363636C6BB1616C2046FFF7C1
:101760003BFF94F84130282B24D129462046BDE880
:101770003840FFF7FFBEE26A12F5803F0AD00E4AFA
:10178000E262202284F8412084F840302046FFF7AE
:10179000F0FE38BD94F8412084F84030222A4FF002
:1017A000200284F84120204602D1FFF7B7FE38BD61
:1017B000FFF7B3FE38BD00BF0000FFFF2DE9F8437F
:1017C00090F84030012B04460E46174600F0CB80BF
:1017D0000123CD0680F840303ED5D0063CD5638D40
:1017E0009BB28BBBE36AB3F1007F03D0E36AB3F132
:1017F000007F14D194F84130282B10D13146204677
:10180000FFF7B8FEB20605D5BB0603D53146204624
:10181000FFF754FF002084F84000BDE8F883E36A36
:1018200013F5803F23680CD094F84120292A08D171
:101830001022DA612046FFF7DCFD2046FFF76FFE3D
:10184000E0E71022DA61DDE723681022DA61636CD9
:1018500043F004036364D5E771071AD57A0718D5F6
:10186000638D9BB263B1636A5A1C62622268526ADA
:101870001A70238D013B2385638D013B9BB26385E9
:10188000638D9BB2002BBDD1E36A13F5803FD4D1A9
:10189000B8E7330746D53D0744D594F8413003F007
:1018A0002803282B236837D19A69E1689D690229AA
:1018B0004FEA1545C2F3004805F0FE059A68D3F8D3
:1018C0000C9020D1C2F3090285EAD21515F0060565
:1018D0000FD1A16C0131A164A16C022992D1082120
:1018E000A564D96184F8405041462046FFF740FE88
:1018F00088E704212046FFF78AFD002384F8403062
:1019000009F0FE02F0E704212046FFF780FD0023E6
:1019100084F840302A46E7E70822DA61002384F899
:1019200040306FE7B0077FF56DAFB9077FF56AAF5D
:10193000638D9BB26BB1636A2268591C61621B782C
:101940009362638D013B9BB26385238D013B2385AD
:1019500058E7E36AB3F1807F3FF46FAFE36A002B8F
:101960003FF46BAF4EE70220BDE8F8830368996946
:101970001A6810B4CC0508D5140606D5446C44F09A
:10198000010444644FF48074DC614C0508D51406EE
:1019900006D5446C44F0080444644FF48064DC6170
:1019A000890508D5120606D5426C42F0020242644F
:1019B0004FF40072DA61436C13F00B0F04D0416CEA
:1019C0005DF8044BFFF708BE5DF8044B7047406AB2
:1019D000026808B5536843F400435360826B0023E8
:1019E0005363C26B536390F84130602B05D12023C1
:1019F00080F84130FFF7EFFD08BDFFF7EBFD08BDB4
:101A000090F84120D2B2202A10B51DD190F8403074
:101A1000012B19D0242380F8413003681C6824F07E
:101A200001041C601C6824F480541C601C68214361
:101A30001960196841F001011960002380F8412004
:101A400080F84030184610BD022010BD10B590F847
:101A50004140E4B2202C1CD190F84030012B18D02A
:101A6000242380F8413003681A6822F001021A60CA
:101A70001A6822F4706242EA012119601A6842F081
:101A800001021A60002380F8414080F84030184677
:101A900010BD022010BD38B5044600B303684CF6F3
:101AA000CC421A6045F255521A6042685A60826808
:101AB0009A60FEF70BFC05462368D86840B9E268D7
:101AC000196991420ABF4AF6AA221A611A6038BD02
:101AD000FEF7FCFB401B3028EED9032038BD012067
:101AE00038BD03684AF6AA221A600020704738B54C
:101AF000044600284DD090F8713303F0FF021BB963
:101B000080F8702305F046F903230021606884F80B
:101B100071330A4604F128030125814203F11C03B5
:101B20001BD1002004F5E6720346814202F11C023B
:101B300021D1226801214FF43F40A2F84010A2F8C1
:101B40004030A2F84430A2F85030A2F8400084F8A7
:101B50002430002084F8711338BD03F81C1C03F8EE
:101B60001B5C03F8192C43F8102C43F80C2C43F899
:101B7000082C0131D1E702F81C0C02F81B3C02F8DA
:101B8000193C42F8103C42F80C3C42F8083C013049
:101B9000CBE7012038BD08B5012105F03EFA002051
:101BA00008BD90F87033012B0FD0012380F87033FB
:101BB00041B903688022A3F84C20002380F87033D9
:101BC0001846704780F82410F7E70220704700009D
:101BD000F0B54CB2002C01F07F064FF01C05B5BFEC
:101BE00005FB060105FB0101283101F5E671E40F53
:101BF0000E704C70CB7090F87033CA60012B00F0FF
:101C00006081012380F87033CD780C780368032D50
:101C10000ED8DFE805F00264525A24B233F824509B
:101C200025F4EC4525F0700545F4007523F82450A3
:101C30000C7826B240F60F7733F8265044F400446F
:101C40003D4044F080042C4323F826408C7A91F8E0
:101C500000E0002C40F08D80B3F850504C788E8816
:101C6000ADB2002C45D005EBCE0503EB450526F0C3
:101C70000106A5F800640D7833F82520540641BF0D
:101C800002EA070444F4004444F0C00423F8254069
:101C9000097833F8212022F4E04222F0400292B287
:101CA00082F0200242F4004242F0800223F8212018
:101CB000002380F870331846F0BD24B233F8245066
:101CC00025F4EC4525F07005B0E724B233F8245034
:101CD00025F4EC4525F0700545F4C065A6E724B26F
:101CE00033F8245025F4EC4525F0700545F4806563
:101CF0009CE7082414FB0E55043503F5806726F095
:101D0000010627F81560B3F850500E78ADB214FBF9
:101D100006543E2A04F1060425D95509D20608BF07
:101D200005F1FF35684A08BFADB242EA852527F8BC
:101D300014500C7833F82420550409D522F0F00211
:101D40001205120D42F4404242F0800223F8242092
:101D5000097833F8212022F4804222F0700292B2F6
:101D600082F440529EE75508D60748BF0135AD02C0
:101D7000DDE70FFA8EF5082233F8256026F4F876B1
:101D80003605360D46F4014646F0800623F82560F8
:101D9000B3F85050AEB20D7812FB0565CE8803F54E
:101DA000806426F0010624F81560B3F850500E78D0
:101DB000ADB212FB06520D89043225F0010524F85C
:101DC00012500A784C7812B2002C3FD133F82250CE
:101DD0006C0441BF05EA070444F4404444F0800425
:101DE00023F822400C7833F82420570609D522F036
:101DF000F0021205120D42F4004242F0C00223F834
:101E000024200C7833F8242022F0F0021205120D61
:101E100042F4004242F0C00223F824200D7833F847
:101E2000252022F4804222F0700292B282F44052C5
:101E300048F28004224323F82520097833F8212032
:101E400022F4E04222F0400222432FE733F82240FE
:101E5000660441BF3C4044F4404444F0800423F80D
:101E600022400C7833F82420550609D522F0F002E0
:101E70001205120D42F4004242F0C00223F8242061
:101E80000C7833F8242022F0F0021205120D42F4EF
:101E9000404242F0800223F824200D7833F82520B8
:101EA00022F4E04222F0400248F28004224323F868
:101EB0002520097833F8212022F4804222F0700294
:101EC000C2E70220F0BD00BF0080FFFF4BB2002B35
:101ED00030B54FF01C0201F07F04B5BF02FB0401D6
:101EE00002FB0101283101F5E671DB0F0C704B702C
:101EF00090F87033012B00F0BF80012380F870331D
:101F00000A788D7A4C78036812B2B5BBFCB133F80D
:101F10002240650609D524F0F0042405240D44F47C
:101F2000004444F0C00423F82240097833F821200B
:101F300022F4E04222F0400242F4004242F08002E9
:101F400023F82120002380F87033184630BD33F881
:101F50002240650409D524F0F0042405240D44F43E
:101F6000404444F0800423F82240097833F82120CB
:101F700022F4804222F07002DEE7002C3ED133F8DA
:101F80002240650409D524F0F0042405240D44F40E
:101F9000404444F0800423F822400C7833F8242095
:101FA000550609D522F0F0021205120D42F4004246
:101FB00042F0C00223F824200C7833F8242022F0C9
:101FC000F0021205120D42F4004242F0C00223F862
:101FD00024200D7833F8252022F4804222F070026C
:101FE00048F28004224323F82520097833F8212081
:101FF00022F4E04222F040022243A1E733F82240DB
:10200000650409D524F0F0042405240D44F440446B
:1020100044F0800423F822400C7833F8242055063D
:1020200009D522F0F0021205120D42F4004242F0EE
:10203000C00223F824200C7833F8242022F0F00288
:102040001205120D42F4404242F0800223F824208F
:102050000D7833F8252022F4E04222F0400248F2C5
:102060008004224323F82520097833F8212022F424
:10207000804222F07002BFE7022030BD70B501F04F
:102080007F011C2404FB01050026C5F8DC21D5F8DE
:10209000D821C5F8E031934286BF9B1AC5F8E031DC
:1020A0001A4604FB0103C5F8E46185F8CD6185F8A3
:1020B000CC1198BFC5F8E06193F8D65104687DBB98
:1020C000B4F8505093F8CC31ADB205EBC3033E2ABF
:1020D00003F1060304F5806634D9C2F34F15D20626
:1020E00008BF05F1FF351B4A08BFADB242EA85259E
:1020F00026F813501C2303FB010090F8CC2134F880
:10210000223023F4804323F070039BB283F44053C6
:1021100043F4004343F0800324F82230002070BDD4
:1021200093F8CD51002DCBD0012DE3D1B4F8505010
:1021300093F8CC31ADB205EBC30304EB4303A3F832
:102140000C24D7E7C2F34F05D20744BF0135ADB227
:10215000AD02CDE70080FFFF1C2301F07F0103FBF0
:102160000101B1F8E4017047F8B501F07F071C24C4
:1021700004FB070105464E6BCB63B34288BF9B1B34
:102180008A634FF001004FF0000204FB07540A6419
:1021900081F8290081F828708EBFCB63CA631E4680
:1021A00094F83230B6B243BB3346A28DA16B286897
:1021B00000F062FB2A6894F82810B2F850309BB205
:1021C00003EBC10302EB4303A3F804641C2303FBEA
:1021D00007572A6897F8281032F8213023F4E04393
:1021E00023F040039BB283F0300343F4004343F0F9
:1021F000800322F821300020F8BD94F828302868A8
:1022000030F823305B064CBF228EE28D1C2404FB89
:1022100007543346A16B00F02FFB94F829302A684D
:1022200073B994F8281032F8213023F0F0031B051D
:102230001B0D43F4004343F0C00322F82130C5E7EF
:10224000012BC3D194F8281032F8213023F0F00389
:102250001B051B0D43F4404343F08003EDE70000F2
:102260000368B3F844301B042DE9F347044672D4E5
:102270002368B3F8442057050AD54FF6FF322046AD
:10228000A3F8442004F0CFFD00212046FFF789FC8D
:102290002368B3F84420520444BF4BF6FF72A3F8FE
:1022A0004420B3F84420970444BF4DF6FF72A3F8CE
:1022B0004420B3F84420D60417D5B3F8402022F0C8
:1022C00004021204120CA3F84020B3F8402022F0BC
:1022D00008021204120CA3F84020204604F0C0FDAE
:1022E00023684EF6FF72A3F844202368B3F8442015
:1022F000150518D5B3F8402092B242F00802A3F8B1
:1023000040204FF2FF72A3F84420B3F8402092B26D
:1023100042F00402A3F84020B3F84430D80402D4B9
:10232000204604F08DFD2368B3F84420910506D5BE
:102330004FF6FF52A3F84420204604F070FD2368B6
:10234000B3F84420D20544BF4FF6FF62A3F84420FF
:1023500002B0BDE8F0870023C34FDFF81083DFF839
:102360001093ADF806302068B0F844309BB21904E1
:10237000ADF804307FF57CAFBDF8046016F00F06B1
:1023800040F0A980BDF80410038811F0100126D197
:102390003B400380B0F8503094F828209BB203EB08
:1023A000C20300EB4300A26BB0F80434C3F309038B
:1023B00023641344A363204604F029FD94F82430D9
:1023C000002BD0D0E26B002ACDD194F824302168C4
:1023D00043F08003A1F84C3084F82420C3E79BB27B
:1023E000ADF80630BDF806301E051FD5B0F85030E8
:1023F00094F8CC219BB203EBC20300EB4303B4F887
:10240000D021B3F80C34C3F30903C4F8E43104F564
:102410005D7100F044FA2268138823F4704323F0BE
:1024200070031380204604F0E3FC9CE7BDF80630FF
:102430001D0498D5038823F4704323F070030380B0
:10244000B0F8503094F8CC219BB203EBC20300EB00
:102450004303B3F80C34C3F30903C4F8E43163B1A4
:10246000B4F8D021D4F8DC1100F019FAD4F8DC313A
:10247000D4F8E4211344C4F8DC310021204604F0F0
:10248000BDFC2268D4F8D801B2F850103E2889B2B9
:1024900001F1060102F5806515D9C0F34F13C0069E
:1024A00004BF03F1FF339BB249EA832325F81130BF
:1024B000138808EA030383F4405343F4004343F0D2
:1024C000800313804FE7C0F34F03C60744BF0133B7
:1024D0009BB29B02EAE70FFA86FA30F82A30ADF891
:1024E0000630BDF8062015043ED523F4704323F0D2
:1024F00070031C2120F82A3001FB064191F8D631E7
:10250000002B72D1B0F8503091F8CC219BB203EB84
:10251000C20300EB4303B3F80C54C5F3090535B10E
:10252000B1F8D021D1F8DC112B4600F0B8F91C210C
:1025300001FB0641D1F8E431D1F8DC212B44C1F88C
:10254000E431D1F8E0312A44C1F8DC2123B1D1F8DB
:10255000D801854280F082801C2303FB064320467D
:1025600093F8CC1104F04AFCBDF8063018067FF54C
:10257000FAAE206830F82A301C213B4020F82A307F
:1025800001FB064191F83230002B73D1B0F8503086
:1025900091F828209BB203EBC20300EB4303B3F88E
:1025A0000434C3F309030B641BB18A8D896B00F0FB
:1025B00063F922681C2101FB0646B2F8503096F8F8
:1025C00028109BB203EBC10302EB43032046B3F890
:1025D0000424B36BC2F3090232641A44F36BB2638E
:1025E000002B7DD104F013FCBDE691F8CC51B0F87E
:1025F000502030F8253092B213F4804F4FF008038A
:1026000013FB052300EB43031ED0B3F80454C5F3BA
:10261000090535B1B1F8D2212B46D1F8DC1100F013
:102620003EF91C2303FB0643226893F8CC1132F8D1
:10263000213023F0F0031B051B0D43F4004343F04E
:10264000C00322F8213072E7B3F80C54C5F3090532
:10265000002DE6D02B46B1F8D421DEE791F8CC115D
:102660002046FFF70BFD7FE70F8FFFFF8FBFFFFFB8
:102670000080FFFF91F82850B0F8502030F8253046
:1026800092B213F0400F4FF0080313FB052300EB49
:1026900043031CD0B3F80434C3F309030B641BB128
:1026A000CA8D896B00F0E8F81C2303FB06432268FF
:1026B00093F8281032F8213023F0F0031B051B0D8E
:1026C00043F4404343F0800322F8213071E7B3F82C
:1026D0000C34C3F309030B64002BE5D00A8EE0E74A
:1026E000FFF742FD3FE600BF90F87033012B10B5B5
:1026F00045D04CB201231C2280F87033002C01F02D
:102700007F03B5BF02FB030202FB0102283202F580
:10271000E67201219170D9B2E30F11705370026813
:1027200091B9138823F4804323F0400383F480534A
:1027300083F0100343F4004343F08003138000232D
:1027400080F87033184610BD09B2002C32F82130E1
:10275000B5BF23F4E04323F4804323F0400323F088
:102760007003B5BF9BB29BB283F0100383F4805318
:1027700043F4004343F0800322F82130DFE70220D6
:1027800010BD4BB2002B10B54FF01C0201F07F04BE
:10279000B5BF02FB040102FB0101283101F5E6711E
:1027A000DB0F00228A700C704B7090F87033012B95
:1027B00045D0012380F870330B784C7802681BB247
:1027C0001CB332F8234014F0400F09D024F0F00479
:1027D0002405240D44F4004444F0C00422F82340AE
:1027E000097832F8213023F4E04323F040039BB210
:1027F00083F0300343F4004343F0800322F8213098
:10280000002380F87033184610BD32F8234014F4CA
:10281000804F09D024F0F0042405240D44F44044F2
:1028200044F0800422F82340097832F8213023F460
:10283000804323F070039BB283F44053DAE7022015
:1028400010BD11F0800F10B518BF01F07F014FF0DF
:102850001C0415BF04FB010004FB0100283000F537
:10286000E6701AB982728380002010BD0122C380F5
:102870001B0C82720381F7E7013300F5806023F0BF
:10288000010330B500EB42020B440C469C4200D1E0
:1028900030BD601A258822F810500234F6E770B572
:1028A00000F580605D0800EB42028C1C2E4636B9B4
:1028B000DB0744BF32F8253001F8153070BD601ACF
:1028C00002EB4000013E30F8040C04F8020C000A50
:1028D00004F8010C0234EAE70368DA072DE9F3474C
:1028E000054611D42B689B0700F188802B681C07D4
:1028F00000F1F8802B68580700F14181EA69002A4D
:1029000040F0D781002021E0BA4C636803F00C034B
:10291000042B07D0636803F00C03082B19D16368FC
:10292000DF0316D54FF4003393FAA3F2216893FA2C
:10293000A3F3B3FA83F303F01F03012202FA03F3B4
:102940000B42CFD06B68002BCCD1012002B0BDE888
:10295000F0876A68B2F5803F25D1236843F480335D
:102960002360E36AA96823F00F030B43E36252B3C9
:10297000FDF7ACFC4FF400368046012796FAA6F32B
:10298000226896FAA6F3B3FA83F303F01F0307FA5B
:1029900003F31342A6D1FDF799FCA0EB08006428CD
:1029A000ECD90320D2E7236832B923F480332360C3
:1029B000236823F48023D3E7B2F5A02FF5D143F4A5
:1029C00080232360C9E7FDF781FC4FF40036804681
:1029D000012796FAA6F3226896FAA6F3B3FA83F3D0
:1029E00003F01F0307FA03F313423FF47BAFFDF735
:1029F0006DFCA0EB08006428EBD9D2E77D4C63683E
:102A000013F00C0F07D0636803F00C03082B21D1DF
:102A10006368DE031ED4022393FAA3F2216893FABB
:102A2000A3F3B3FA83F303F01F03012202FA03F3C3
:102A30000B4202D02B69934287D12168F82393FA85
:102A4000A3F3B3FA83F26B69934021F0F8021343C6
:102A500023604BE72A6901260AB396FAA6F3B3FA74
:102A600083F303F1845303F584139B0002271E6054
:102A7000FDF72CFC804697FAA7F3226897FAA7F394
:102A8000B3FA83F303F01F0306FA03F31342D4D11E
:102A9000FDF71CFCA0EB08000228ECD981E796FAB0
:102AA000A6F3B3FA83F303F1845303F584139B0075
:102AB00002271A60FDF70AFC804697FAA7F32268FE
:102AC00097FAA7F3B3FA83F303F01F0306FA03F3AD
:102AD00013423FF40BAFFDF7F9FBA0EB080002280F
:102AE000EBD95EE7AA69434E434901241AB394FA2D
:102AF000A4F3B3FA83F30B449B0002271C60FDF799
:102B0000E5FB804697FAA7F397FAA7F397FAA7F39E
:102B1000726A97FAA7F3B3FA83F303F01F0304FA78
:102B200003F313427FF4E6AEFDF7D0FBA0EB080001
:102B30000228E7D935E794FAA4F3B3FA83F30B44F8
:102B40009B0002271A60FDF7C1FB804697FAA7F3A6
:102B500097FAA7F397FAA7F3726A97FAA7F3B3FA6B
:102B600083F303F01F0304FA03F313423FF4C2AEEE
:102B7000FDF7ACFBA0EB08000228E7D911E71D4CDC
:102B8000E369D90034D4E36943F08053E361E36936
:102B900003F080530193019B0126184F3B68DA052F
:102BA0002ED5EB68012B3CD1236A43F0010323624D
:102BB000FDF78CFB02278246B9464FF0010897FAD1
:102BC000A7F397FAA7F3002B6BD0226A99FAA9F31F
:102BD000B3FA83F303F01F0308FA03F3134257D049
:102BE000002E3FF48BAEE36923F08053E36185E66A
:102BF0000026D2E7001002402081901000700040B3
:102C00003B6843F480733B60FDF760FB80463B68A4
:102C1000DB05C6D4FDF75AFBA0EB08006428F6D903
:102C2000BFE63BBB236A23F001032362236A23F040
:102C300004032362FDF74AFB02278246B9464FF0A0
:102C4000010897FAA7F397FAA7F373B3226A99FAE0
:102C5000A9F3B3FA83F303F01F0308FA03F3134253
:102C6000BED0FDF733FB41F28833A0EB0A00984257
:102C7000E7D996E6052B236A03D143F004032362C8
:102C800092E723F001032362236A23F004038EE713
:102C9000FDF71CFB41F28833A0EB0A0098428ED965
:102CA0007FE697FAA7F3626A90E797FAA7F3626A5A
:102CB000CDE7414C636803F00C03082B3FF445AEAD
:102CC000022A4FF0807352D193FAA3F3B3FA83F33D
:102CD00003F1845303F584139B0000221A60FDF76F
:102CE000F5FA4FF000778046012697FAA7F322689D
:102CF00097FAA7F3B3FA83F303F01F0306FA03F37B
:102D000013422DD162686B6A296A22F474120B4354
:102D1000134363604FF0807393FAA3F3B3FA83F322
:102D200003F1845303F584139B004FF000751E607C
:102D3000FDF7CCFA0126074695FAA5F3226895FA25
:102D4000A5F3B3FA83F303F01F0306FA03F3134268
:102D50007FF4D8ADFDF7BAFAC01B0228ECD920E603
:102D6000FDF7B4FAA0EB08000228BED919E693FAE1
:102D7000A3F3B3FA83F303F1845303F584139B00A5
:102D800000221A60FDF7A2FA4FF0007507460126EF
:102D900095FAA5F3226895FAA5F3B3FA83F303F045
:102DA0001F0306FA03F313423FF4ACADFDF78EFAAE
:102DB000C01B0228ECD9F4E50010024010B5134CFA
:102DC000616801F00C03082B1ED14FF4701393FAC5
:102DD000A3F301F47012B3FA83F322FA03F30C4A5B
:102DE000D05CE36A0F2292FAA2F2B2FA82F203F006
:102DF0000F03D340074AD25CCB034ABF064B074BB5
:102E0000B3FBF2F3584310BD034810BD001002405D
:102E1000147A0008247A000800127A0000093D00A4
:102E20005C4A136803F007038B422DE9F041064624
:102E30000D4630D3326891073AD4D20740D4554A70
:102E4000136803F007039D42C0F092803268524C31
:102E500012F0040F40F09780130706D563683269BB
:102E600023F4605343EAC2036360FFF7A7FF63687C
:102E7000F02292FAA2F2B2FA82F203F0F003D34007
:102E8000464AD35CD840464B18600F20FDF7F0F956
:102E90000020BDE8F081136823F007030B431360A3
:102EA000136803F007039942C4D00120BDE8F08104
:102EB0003949B0684B6823F0F00303434B60BCE72B
:102EC0007268354C012A28D14FF4003393FAA3F1EC
:102ED000216893FAA3F3B3FA83F303F01F0302FA12
:102EE00003F30B42E1D0636823F003031A436260EB
:102EF000FDF7ECF97368012B074641F288381FD1C2
:102F0000636803F00C03042B99D0FDF7DFF9C01BB5
:102F10004045F5D90320BDE8F081022A0CBF4FF0EF
:102F20000073022393FAA3F1206893FAA3F3B3FA90
:102F300083F303F01F03012101FA03F30342D1E7F6
:102F4000022B10D1636803F00C03082B3FF477AF1A
:102F5000FDF7BCF9C01B4045F4D9DBE7FDF7B6F936
:102F6000C01B4045D6D8636813F00C0FF6D166E756
:102F7000136823F007032B431360136803F0070360
:102F80009D4292D162E76368F16823F4E0630B43EA
:102F9000636061E70020024000100240B67A00083A
:102FA00020010020014B1868704700BF200100205D
:102FB000084B4FF4E0625B6892FAA2F2B2FA82F236
:102FC00003F4E063D340044AD35C044A1068D84059
:102FD000704700BF00100240C67A000820010020A0
:102FE000084B4FF460525B6892FAA2F2B2FA82F296
:102FF00003F46053D340044AD35C044A1068D840B9
:10300000704700BF00100240C67A0008200100206F
:1030100003682DE9F347DD03044623D57C4DEB69B6
:10302000D80000F19880EB6943F08053EB61EB69C5
:1030300003F080530193019B0126764F3B68D9052D
:1030400040F18B802B6A13F4407340F09B802B6A15
:10305000626823F4407313432B621EB1EB6923F0C3
:103060008053EB612068C70706D5694AA168136BD6
:1030700023F003030B431363860706D5644AE16814
:10308000136B23F440330B431363450706D5604AA3
:103090002169136B23F440230B431363810606D588
:1030A0005B4AE169136B23F010030B431363820344
:1030B00006D5574AA16B536823F480030B43536032
:1030C000430606D5524A216A136B23F020030B43B3
:1030D0001363070706D54E4A6169136B23F4401347
:1030E0000B431363C60606D5494AA169136B23F443
:1030F00040030B431363850506D5454AE16A5368CF
:1031000023F400030B435360010606D5404A616A6D
:10311000D36A23F4F8730B43D362C20506D53C4A45
:10312000A16AD36A23F478530B43D362C30406D550
:10313000374A216B136B23F480730B43136310F432
:1031400000501CD0324A616B136B23F400730B43A5
:103150001363002013E000266FE73B6843F480739D
:103160003B60FDF7B3F880463B68DA053FF56AAF90
:10317000FDF7ACF8A0EB08006428F5D9032002B0F5
:10318000BDE8F087626802F4407293423FF45FAF9B
:10319000296A4FF4803321F4407093FAA3F2DFF8E8
:1031A00078E0B2FA82F2724492000127176093FA33
:1031B000A3F3B3FA83F373449B0000221A60CB0796
:1031C00028627FF544AFFDF781F84FF00208824690
:1031D000C14698FAA8F398FAA8F3A3B12A6A99FA13
:1031E000A9F3B3FA83F303F01F0307FA03F31342BF
:1031F0007FF42DAFFDF76AF841F28833A0EB0A00A7
:103200009842E6D9BAE798FAA8F36A6AE7E700BFF6
:1032100000100240007000400081901070B504461C
:1032200000284ED00023836290F85D3003F0FF0247
:103230001BB980F85C2003F025FB0223216884F889
:103240005D300B68E26823F04003B2F5E06F0B607D
:103250004FF0000332D91846B2F5706F18BFA36261
:10326000236B2BB9B2F5E06F8CBF022301232363DC
:10327000A6686368A56933432669334366693343A7
:10328000E6693343266A3343A66A334305F400767E
:1032900033430B60636A1A43636B2D0C1A4305F0CA
:1032A00004052A4302434A60CB6923F40063CB61DF
:1032B00000200123206684F85D3070BD4FF48050FB
:1032C000CCE7012070BD7047036830B559689A6833
:1032D00002F04105012D85B0044605D14D0603D508
:1032E000C36C984705B030BD950704D5080602D5D4
:1032F000236D2046F5E712F4B07FF3D08D06F1D5AB
:1033000050060FD594F85D0003284FF0000541D01A
:10331000206E40F0040020660095D8680090986800
:103320000090009895060CD5206E40F001002066B4
:103330000020029098680290186820F04000186001
:103340000298D00508D5226E42F0080222660022BB
:1033500003929A680392039A226E002AC2D05A6896
:1033600022F0E0025A60012284F85D208A0718D01A
:103370005A68A06D22F003025A6018B10B4B4363E8
:10338000FDF700FF606D0028ACD0084B4363FDF7EC
:10339000F9FEA7E70195DA6801929B680193019B0A
:1033A000A0E72046FFF78FFF9CE700BFB13300087E
:1033B00008B5406A0023A0F84630C387FFF783FFB3
:1033C00008BD000038B582680568C36929680446ED
:1033D00000690243606921F41641024321F00C01A7
:1033E0001A430A432A606A68E168206A22F440525C
:1033F0000A436A60A968A26921F4306102430A4362
:10340000AA606E4A954212D102F558426C49126B7D
:1034100002F00302B3F5004F8A5C66D0082A19D87F
:10342000DFE802F0C2929E18A9181818AC00654A8D
:10343000954224D102F5E632126B02F44032B2F525
:10344000803F00F0A08007D8002A00F0AA80B3F5E2
:10345000004F76D0012038BDB2F5003F00F09980D2
:10346000B2F5403FF3D1B3F5004F79D1606843081E
:1034700003F5740303F51053B3FBF0F354E0524A21
:1034800095420ED102F5E432126B02F44022B2F5FD
:10349000802F78D0D8D9B2F5002F7AD0B2F5402F4E
:1034A000E0E74A4A95420ED102F5E232126B02F48D
:1034B0004012B2F5801F66D0C6D9B2F5001F68D0A1
:1034C000B2F5401FCEE7424A9542C0D102F5E03244
:1034D000126B02F44002B2F5800F54D0B4D9B2F5A9
:1034E000000F56D0B2F5400FBCE7082A29D801A337
:1034F00053F822F0193500083D3500086D340008F6
:10350000433500088D350008433500084335000871
:103510004335000899350008FFF74AFD61684A08FD
:1035200002EB4003B3FBF1F39BB2002023F00F0248
:103530002168C3F342031343CB6038BDFFF750FD4E
:10354000ECE701200023F1E7FFF74AFD636800EB99
:103550005300B0FBF3F0194B80B2D860002038BDA7
:103560006268530803F5F40303F59053B3FBF2F3D9
:103570009BB2EB60F2E7FFF721FC17E062685308AB
:1035800003F50043F2E7B3F5004FF4D1FFF716FC63
:10359000C4E7B3F5004FF1D16068430803F5803309
:1035A0006AE7B3F5004FB7D0FFF702FD636800EBA1
:1035B0005300B0FBF3F080B2E860CFE70038014081
:1035C000347A00080044004000480040004C0040AD
:1035D00000500040436ADA0710B506D50168846AD6
:1035E0004A6822F4003222434A609C0706D50168EB
:1035F000C46A4A6822F4803222434A60590706D5D9
:103600000168046B4A6822F4802222434A601A0748
:1036100006D50168446B4A6822F4004222434A609E
:10362000DC0606D50168846B8A6822F48052224346
:103630008A60990606D50168C46B8A6822F4005234
:1036400022438A605A060FD50168046C4A6822F446
:1036500080122243B4F5801F4A6005D14A68446C49
:1036600022F4C00222434A601B0606D50268816C20
:10367000536823F400230B43536010BD2DE9F04140
:10368000069D04460F46164698462168CA6937EAE1
:1036900002030CBF01220022B24202D00020BDE88A
:1036A000F0816B1CF2D09DB923681A6822F4D072A5
:1036B0001A609A6822F001029A60202384F8693027
:1036C00084F86A30002384F868300320BDE8F08174
:1036D000FCF7FCFDA0EB08008542D6D2E4E773B509
:1036E00004460026C666FCF7F1FD23681B681A072E
:1036F000054617D423681B685B070AD56FF07E4325
:10370000009300222B464FF480012046FFF7B6FFBE
:10371000A0B92023002084F8693084F8680084F878
:103720006A300CE06FF07E430093324603464FF45C
:1037300000112046FFF7A2FF0028DBD0032002B0D3
:1037400070BD10B5044660B390F8693003F0FF0215
:103750001BB980F8682003F0C1F82268242384F89C
:103760006930136823F0010313602046FFF72AFE37
:10377000012816D0636A13B12046FFF72BFF236898
:103780005A6822F490425A609A6822F02A029A609B
:103790001A6842F0010220461A60BDE81040FFF7A7
:1037A0009EBF012010BDD0F818321BB10020C3F815
:1037B0001402704702207047D0F81C3210B5D0F8C0
:1037C00018425BB194F80002FF2807D09B6894F878
:1037D000012221469847FF2384F80032002010BDC3
:1037E00043230380004870473800002043230380B0
:1037F000004870477C000020432303800048704746
:10380000CC0000200A23038000487047C00000203D
:1038100038B50546D0F8184203F0F4FBD5F8183255
:10382000C4F80C024BB1D5F81C32D4F80402DB68A2
:1038300004F503719847002038BD022038BD000010
:10384000F8B50F7817F0600306460C4623D0202BFE
:1038500019D1CA884B78C2B13906D0F818520BD5A5
:10386000D0F81C1218468F682946B847E2882946C6
:10387000304600F072FB06E085F8003285F8012240
:10388000294600F07FFB0020F8BDD0F81C028468B8
:103890001846A047F7E74B780A2BF4D101220149DB
:1038A000E7E700BFF001002010B58121044603F0D6
:1038B00041FB0121204603F03DFB8221204603F01D
:1038C00039FBD4F8183253B1D4F81C325B689847EE
:1038D000D4F8180203F0A0FB0023C4F8183200202B
:1038E00010BDF8B5037C04467BBB4FF40073022285
:1038F000812103F00FFB4FF40073022201212046C7
:1039000003F008FB082303228221204603F002FB78
:103910004FF4077003F07CFB0646C4F8180220B38E
:10392000D4F81C321B689847277C0025C6F814522F
:10393000C6F8185287B94FF40073D6F80422012153
:10394000204603F051FB3846F8BD40230222812176
:1039500003F0E0FA4023D0E74023D6F80422012107
:10396000204603F041FB2846F8BD0120F8BD19B1FF
:10397000C0F81C120020704702207047D0F818329F
:103980000020C3F80812C3F810227047D0F818328C
:103990000020C3F804127047D0F8182210B562B1A5
:1039A000047C44B94FF40073D2F80422012103F0DF
:1039B0001BFB002010BD4023F6E7022010BD08B518
:1039C00080B1D0F8143213B10023C0F8143209B119
:1039D000C0F81012012380F8FC31027003F044FAA1
:1039E000002008BD022008BD19B1C0F81412002043
:1039F00070470220704708B503F07EFA002008BD2A
:103A000008B5D0F814320BB9022008BD1B689847DE
:103A10000028F9D108BD08B5D0F814325B68984782
:103A2000002008BD38B5044600F50275284600F0B0
:103A300064FA012394F80812C4F8F431B4F80E3291
:103A4000C4F8F83101F01F03012B0ED007D3022B6D
:103A500010D001F08001204603F07AFA03E02946F5
:103A6000204600F0D5F8002038BD2946204600F059
:103A7000C9F9F8E72946204600F0DCF9F3E738B544
:103A80000446154611BBD0F8F431032B0FD1D0F802
:103A90000C31D0F8102193420BD99B1A9A4228BFBF
:103AA0001A46C0F80C3192B2294600F07AFA00208A
:103AB00038BDD0F814321B6923B190F8FC21032AD9
:103AC00000D19847204600F074FAF0E7D0F814329D
:103AD0009B69002BEBD090F8FC21032AE7D1984793
:103AE000E5E770B5134604460E4600293DD1D0F8EF
:103AF000F421022A0FD1C569026A954214D9AA1A83
:103B0000C261194692B200F035FA33461A46194698
:103B1000204603F069FA94F80032012B02D1002309
:103B200084F80032002070BD8369B3FBF2F502FB1C
:103B3000153565B99A420AD8D0F8F821934206D2D1
:103B40002A4600F017FAC4F8F8512B46DEE7D4F8FD
:103B50001432DB682BB194F8FC21032A01D12046F2
:103B60009847204600F030FAD5E7D0F814325B6968
:103B7000002BD7D090F8FC21032AD3D19847D1E766
:103B800038B50022044611464025402303F0C2F90F
:103B90002B46C4F8105100228021204603F0BAF9C8
:103BA000012384F8FC31D4F8183225622BB1D4F803
:103BB000143221795B6820469847002038BD017493
:103BC0000020704790F8FC3180F8FD31042380F824
:103BD000FC310020704790F8FD3180F8FC31002066
:103BE000704708B590F8FC21032A04D1D0F81432AC
:103BF000DB6903B19847002008BD10B58021044659
:103C000003F0A6F920460021BDE8104003F0A0B95A
:103C100037B54B7804460D46092B79D8DFE813F009
:103C2000C900E5007800D90078006D000A0078002E
:103C3000B9008D004B881A0A013A062A68D8DFE8D5
:103C400002F0041C296767495200D0F810321B6843
:103C5000207C0DF106019847BDF80620002A67D0A8
:103C6000EB88002B64D09A4228BF1A46ADF8062094
:103C70000146204600F071F95AE0027CD0F8143277
:103C800032B99B6A0DF10600984702234370E3E7BF
:103C9000DB6AF7E7DBB2052B3AD8DFE803F003076E
:103CA0000B0F1317D0F810325B68D1E7D0F8103241
:103CB0009B68CDE7D0F81032DB68C9E7D0F8103246
:103CC0001B69C5E7D0F810325B69C1E7D0F8103244
:103CD0009B69BDE7037CDBB9D0F814320DF1060017
:103CE0005B6B9847B8E7037C93B9D0F814320DF1B9
:103CF00006001B6B98470723C8E78B8843B9CB881E
:103D000033B990F8FC318D78032B05F07F0503D192
:103D10002046FFF772FF0BE080F8FE51294603F0C2
:103D200047F9204600F045F92DB1022384F8FC3113
:103D3000002003B030BD0123F8E78978304D012918
:103D40002970E5D890F8FC31022B0CD0032BDFD181
:103D5000B1B9022380F8FC314160FFF75CFE2046D8
:103D600000F027F9E4E70029F9D00121032341609D
:103D700080F8FC312046FFF743FE0228EFD1C7E769
:103D800041680129EBD0C9B2FFF745FE297861608F
:103D9000F0E7CA88012ABBD190F8FC31022B03D08E
:103DA000032BB5D1011D64E70146002341F8083F0C
:103DB0005FE790F8FC31023B012BA9D80123C360D7
:103DC000D0F804320BB10323C360022204F10C01CA
:103DD0004FE74B88012BABD1C4F80432D4F814322E
:103DE00029469B6820469847B9E790F8FC31023B8A
:103DF000012B8DD84B88012B9AD10023ECE700BF13
:103E0000F101002038B590F8FC31032B04460D4633
:103E10000DD10B79012B0AD8D0F814329B68984742
:103E2000EB8813B9204600F0C4F8002038BDFFF736
:103E3000E4FEFAE770B50A788E8802F06002202A64
:103E400004460D46F3B205D1D0F814329B6898476A
:103E5000002070BD4A78012A1CD02AD3032AF7D14A
:103E600090F8FC21022A40D0032A02D0FFF7C5FEB9
:103E7000EEE74A8822B95E0602D0194603F068F8D8
:103E8000D4F8143229469B6820469847204600F013
:103E900090F8DDE790F8FC21022A26D0032AE5D12C
:103EA0004A88002AD4D15906F0D0194603F05EF8AA
:103EB000E6E790F8FC21022A17D0032AD6D103F0B6
:103EC0007F0516F0800F00EB0515194614BF143559
:103ED00005F5827503F058F868B101232B600222C2
:103EE0002946204600F039F8B2E75A06B0D0194604
:103EF00003F02EF8ACE72860F1E70B7803704B78FD
:103F00004370CA788B7803EB022343804A790B799C
:103F100003EB02238380CA798B7903EB0223C380EE
:103F2000704730B588B105462B1A15F8014BDBB246
:103F3000002CF9D15B00023313800B7003234B700C
:103F40000138022310F8015F05B930BD5A1CD2B206
:103F5000CD540233DBB28C54F4E710B51346022281
:103F6000C0F8F42183610A46C361002103F02EF8F2
:103F7000002010BD08B513460A46002103F026F8BC
:103F8000002008BD10B513460322C0F8F421C0F884
:103F900008310A46C0F80C31002103F025F8002052
:103FA00010BD08B513460A46002103F01DF8002095
:103FB00008BD08B50423C0F8F43100231A46194699
:103FC00003F004F8002008BD08B50523C0F8F4315B
:103FD00000231A46194603F007F8002008BD08B56B
:103FE00001F06CF9002008BD70B5054646692A69E4
:103FF0004068B5F908400B4686B0296876B1AD69CE
:1040000065B1842C14BF0334002402958DE8500060
:1040100001F005F90590059806B070BD842C14BF19
:104020000334002405AD92B28DE8300001F019F997
:104030000128F0D00020EFE708B5002808BF0120D4
:1040400001F098FA002008BD13B5134690E814005B
:1040500054B1481E8DE814004242424101210748F4
:1040600001F045FD02B010BD013900924A424A41BB
:104070000248012101F014FDF4E700BF217B000894
:104080001FB500240394A14214BF0A460122EFF396
:104090000583A3B1009403AB092101F065FD01285C
:1040A00013D1039B13B9002004B010BD084B4FF08F
:1040B00080521A60BFF34F8FBFF36F8FF3E7009307
:1040C000042101F051FD0128EDD0FF20ECE700BFF5
:1040D00004ED00E037B545680C46A5B101290BD1C8
:1040E00003230022009320462B46114600F0FAFBE2
:1040F0000446204603B030BD2A46084603B0BDE85A
:10410000304000F05CBC01290DD120460322294635
:1041100000F031FC04460028EBD02B462A46294605
:1041200000F08EFCE5E7084603B0BDE8304000F043
:1041300068BC000013B500240A460194E8B1EFF30F
:104140000583A3B101AA214600F0AAFE012802D0EE
:10415000FF2002B010BD019B3BB1094B4FF08052D4
:104160001A60BFF34F8FBFF36F8F0020F1E719463E
:1041700000F0D2FD0128EBD1F7E78020E9E700BF8E
:1041800004ED00E013B500240194EFF3058393B12F
:1041900001A900F06DFD012813D1019B13B9002086
:1041A00002B010BD084B4FF080521A60BFF34F8F22
:1041B000BFF36F8FF3E71A46194600F041FC012860
:1041C000EDD0FF20ECE700BF04ED00E008B501F002
:1041D00031FB012803D0BDE8084000F00BB908BD51
:1041E00000F1080343604FF0FF32C3600361002316
:1041F00082600360704700230361704743684B602F
:104200009A688A609A68516099600368086101330E
:10421000036070470A68531C30B50AD103695A68B5
:104220004A6091608B6059600368086101330360E4
:1042300030BD00F108035C682568AA42EFD323462D
:10424000F9E74168826803698A6082685160596849
:10425000884208BF5A60002202611868013818605D
:10426000704700000A4B1B68013308D04FF0500321
:1042700083F31188BFF36F8FBFF34F8FFEE74FF0CB
:10428000500383F31188BFF36F8FBFF34F8FFEE7A7
:104290001001002006480068006880F3088862B6B4
:1042A00061B6BFF34F8FBFF36F8F00DF00BF000019
:1042B00008ED00E0DFF80C00016841F470010160D6
:1042C0007047000088ED00E04FF0807340F8043C38
:1042D000074B40F80C3C21F001016FF0020340F85D
:1042E000081C40F8202C40F8243C4438704700BF9C
:1042F000654200080000000000000000000000000F
:10430000074B19680868B0E8F04F80F30988BFF3DD
:104310006F8F4FF0000080F311887047AFF300807B
:10432000101200204FF0500383F31188BFF36F8FFA
:10433000BFF34F8F0A4A13680133012B13600DD16D
:10434000084B1B6813F0FF0F08D04FF0500383F3A6
:104350001188BFF36F8FBFF34F8FFEE7704700BF29
:104360001001002004ED00E0084A136843B94FF043
:10437000500383F31188BFF36F8FBFF34F8FFEE7B6
:10438000013B13600BB983F31188704710010020C3
:10439000EFF30980BFF36F8F154B1A681EF0100FF3
:1043A00008BF20ED108A20E9F04F10604DF8043D61
:1043B0004FF0500080F31188BFF34F8FBFF36F8F22
:1043C00001F034F94FF0000080F3118808BC19683F
:1043D0000868B0E8F04F1EF0100F08BFB0EC108A6C
:1043E00080F30988BFF36F8F704700BFAFF3008081
:1043F0001012002008B54FF0500383F31188BFF36B
:104400006F8FBFF34F8F00F0ABFF18B1034B4FF02E
:1044100080521A60002383F3118808BD04ED00E088
:10442000064B4FF47A721B68B3FBF2F3044A013B6C
:104430001360044B07221A60704700BF2001002060
:1044400014E000E010E000E0314B324A13B5196887
:10445000914208D14FF0500383F31188BFF36F8F5F
:10446000BFF34F8FFEE71A682B4B9A4208D14FF0EB
:10447000500383F31188BFF36F8FBFF34F8FFEE7B5
:10448000264B1A78D2B20192FF221A701B78244A66
:10449000DBB28DF803309DF8033003F05003137046
:1044A000204B07221A6000219DF80300000602F14C
:1044B000FF3423D401B11A601A68120202F4E062D8
:1044C0001A60019B154ADBB21370174B1A6842F44D
:1044D00070021A601A6842F070421A60FFF7A0FF7B
:1044E000124B00221A60FFF7E5FE114A136843F0F1
:1044F00040431360FFF7CEFEFFF7B4FE9DF80320A4
:104500005200D2B28DF8032001212246CCE700BF31
:1045100000ED00E071C20F4170C20F4100E400E005
:10452000F2010020F401002020ED00E01001002045
:1045300034EF00E0EFF305830F2B0ED9104A9B5C9C
:10454000104A12789A4208D94FF0500383F3118829
:10455000BFF36F8FBFF34F8FFEE70B4B0B4A1B6808
:10456000126803F4E063934208D94FF0500383F3D9
:104570001188BFF36F8FBFF34F8FFEE7704700BF07
:10458000F0E300E0F20100200CED00E0F401002077
:1045900010B50F4B1A68824218D35C68191988420B
:1045A00001BF4168184609195960446801198A42D7
:1045B00007D1084909688A421FBF51681268091962
:1045C00041609842026018BF186010BD1346E1E7D1
:1045D00008120020F80100202DE9F041044600F007
:1045E000B1FE3E493E4D0B680BBB3E4A56071FBF0E
:1045F000D01D20F0070002F580531B1A14BF02469D
:104600004FF480531344083B23F00703364E0B60EE
:1046100000207060326058601860981A1360334B45
:1046200050601860324B18604FF000432B602F68C9
:10463000274216D1002C41D004F1080358071CBFB3
:1046400023F00703083363B1294A1668B342904642
:1046500007D8254A15686868834204D809688D42DE
:1046600007D100242AE02C68002CF7D02A462546E2
:10467000F1E7296814681160C21A102A0FD9E818E6
:10468000410708D04FF0500383F31188BFF36F8FB9
:10469000BFF34F8FFEE742606B60FFF779FF13496E
:1046A0006B680868F61A1F4386424FF00003C8F88B
:1046B000006038BF0E6008346F602B6000F0E2FECF
:1046C000630708D04FF0500383F31188BFF36F8F57
:1046D000BFF34F8FFEE72046BDE8F081F8010020D0
:1046E000FC110020FC010020081200200412002010
:1046F0000012002010B5044670B3184A50F8043C6C
:104700001268134208D14FF0500383F31188BFF3AE
:104710006F8FBFF34F8FFEE750F8081C41B14FF089
:10472000500383F31188BFF36F8FBFF34F8FFEE702
:1047300023EA020340F8043C00F004FE084A54F85F
:10474000043C1168A4F108000B441360FFF720FF3C
:10475000BDE8104000F096BE10BD00BFFC11002067
:104760000012002070B51546026C866B044642B9F3
:1047700005689DB9406801F0B3F865600136A6632D
:1047800070BD6DB9806802F0E9FCA368226C134427
:104790006268A360934201D32368A3600020EDE721
:1047A000C06802F0DBFC236CE26821685B421A44BB
:1047B0008A42E2603EBF62689B18E360022DEDD141
:1047C0000EB1013EEAE73046D8E7034610B41A6C52
:1047D000084662B1D9685C681144A142D96024BF1F
:1047E0001968D960D9685DF8044B02F0B7BC5DF870
:1047F000044B704770B50446FFF794FD94F845509C
:1048000004F124066DB2002D14DCFF2384F845303A
:10481000FFF7AAFDFFF786FD94F8445004F1100657
:104820006DB2002D12DCFF2384F84430BDE87040E7
:10483000FFF79ABD636A002BE7D0304600F068FFAF
:1048400008B100F0F1FF013D6DB2DCE72369002BF8
:10485000E9D0304600F05CFF08B100F0E5FF013D13
:104860006DB2DEE738B50D46044640B94FF050034F
:1048700083F31188BFF36F8FBFF34F8FFEE7FFF70E
:1048800051FD206CE36B2268A2604343D1181B1AD0
:1048900013446160E3600021FF23A16384F8443086
:1048A00084F8453095B9236963B104F1100000F034
:1048B0002FFF38B10A4B4FF080521A60BFF34F8F71
:1048C000BFF36F8FFFF750FD012038BD04F11000DA
:1048D000FFF786FC04F12400FFF782FCF2E700BF3B
:1048E00004ED00E013B51C4640B94FF0500383F3CC
:1048F0001188BFF36F8FBFF34F8FFEE743B94FF0BF
:10490000500383F31188BFF36F8FBFF34F8FFEE720
:104910004AB1D9B94FF0500383F31188BFF36F8FB9
:10492000BFF34F8FFEE789B14FF0500383F3118837
:10493000BFF36F8FBFF34F8FFEE74FF0500383F34A
:104940001188BFF36F8FBFF34F8FFEE748230193AA
:10495000019B482BF1D10123002908BF2246E063C7
:10496000216484F84630226019462046FFF77AFF1A
:10497000204602B010BD70B50D46064640B94FF056
:10498000500383F31188BFF36F8FBFF34F8FFEE7A0
:1049900048434830FFF720FE044650B1002380F81A
:1049A000463045B92060E663256401212046FFF7C3
:1049B00059FF204670BD00F148030360F3E713B5CB
:1049C00013460C4640B94FF0500383F31188BFF3F0
:1049D0006F8FBFF34F8FFEE7884208D24FF050032E
:1049E00083F31188BFF36F8FBFF34F8FFEE702226F
:1049F000009200221146FFF775FF00B1846302B0F8
:104A000010BD10B50C4640B94FF0500383F3118828
:104A1000BFF36F8FBFF34F8FFEE7884208D24FF08E
:104A2000500383F31188BFF36F8FBFF34F8FFEE7FF
:104A300002220021FFF79FFF00B1846310BD000038
:104A40002DE9FF47894601921F46044640B94FF0C1
:104A5000500383F31188BFF36F8FBFF34F8FFEE7CF
:104A6000002940F08880036C002B00F084804FF018
:104A7000500383F31188BFF36F8FBFF34F8FFEE7AF
:104A8000019E002E00F082804FF0500383F31188C6
:104A9000BFF36F8FBFF34F8FFEE7019D1DB9FFF787
:104AA00063FC002058E016B902A800F073FEFFF77F
:104AB0005BFC00F047FCFFF735FC94F84430FF2B1B
:104AC00008BF84F8448094F84530FF2B08BF84F871
:104AD0004580FFF749FC01A902A800F06BFE002801
:104AE00043D1FFF71FFCA66BE56BFFF73DFCAE4221
:104AF00035D1019904F1100000F0D2FD2046FFF7F6
:104B000079FE00F0BFFC38B94FF08053CAF800308E
:104B1000BFF34F8FBFF36F8F0126FFF703FCA26B2C
:104B2000E36B9A4201D3022FB7D13A464946204659
:104B3000FFF718FE636A1BB104F1240000F0E8FDE2
:104B400038B1194B4FF080521A60BFF34F8FBFF34B
:104B50006F8FFFF709FC012004B0BDE8F087204605
:104B6000FFF748FE00F08EFCD6E72046FFF742FE36
:104B700000F088FC95E7022F02D1E36B012B0AD1EC
:104B800000F058FE00283FF47BAF00264FF00008ED
:104B9000DFF814A0C1E74FF0500383F31188BFF38F
:104BA0006F8FBFF34F8FFEE704ED00E02DE9F84370
:104BB000884691461F46044640B94FF0500383F3A0
:104BC0001188BFF36F8FBFF34F8FFEE709BB036CF4
:104BD000FBB14FF0500383F31188BFF36F8FBFF326
:104BE0004F8FFEE704F1240000F092FD002834D03E
:104BF000B9F1000F31D00120C9F8000086F3118807
:104C0000BDE8F88301356DB284F8455025E00020F9
:104C1000F4E7022F02D1E36B012B20D1FFF78AFCCE
:104C2000EFF311864FF0500383F31188BFF36F8FBA
:104C3000BFF34F8FA26BE36B9A4201D3022FE6D1F1
:104C400094F845503A466DB241462046FFF78AFD3A
:104C50006B1CD7D1636A002BC4D10120CEE74FF083
:104C6000500383F31188BFF36F8FBFF34F8FFEE7BD
:104C700070B50D46044640B94FF0500383F31188D8
:104C8000BFF36F8FBFF34F8FFEE7036C43B14FF05D
:104C9000500383F31188BFF36F8FBFF34F8FFEE78D
:104CA00003680BB9436873BBFFF744FCEFF311864D
:104CB0004FF0500383F31188BFF36F8FBFF34F8F13
:104CC000A26BE36B9A4201D3002014E094F84530C4
:104CD00001325BB2A2635A1C10D1636A0BB9012086
:104CE00009E004F1240000F013FD0028F7D0002DA6
:104CF000F5D00120286086F3118870BD01335BB2C6
:104D000084F84530EBE74FF0500383F31188BFF38D
:104D10006F8FBFF34F8FFEE72DE9FF478846019263
:104D20009946044640B94FF0500383F31188BFF30E
:104D30006F8FBFF34F8FFEE7002940F0A580036C13
:104D4000002B00F0A1804FF0500383F31188BFF3D4
:104D50006F8FBFF34F8FFEE7019E002E00F09A8009
:104D60004FF0500383F31188BFF36F8FBFF34F8F62
:104D7000FEE7636AE660002B6DD004F124005FE07B
:104D8000019D1DB9FFF7F0FA284667E016B902A8A1
:104D900000F000FDFFF7E8FA00F0D4FAFFF7C2FADE
:104DA00094F84430FF2B08BF84F8447094F84530E1
:104DB000FF2B08BF84F84570FFF7D6FA01A902A8B7
:104DC00000F0F8FC002852D1FFF7ACFAA56BFFF712
:104DD000CBFA002D45D1236833B9FFF7A3FA6068F9
:104DE00000F038FDFFF7C0FA019904F1240000F04B
:104DF00057FC2046FFF7FEFC00F044FB38B94FF0AB
:104E00008053CAF80030BFF34F8FBFF36F8F012676
:104E1000FFF788FAA56B002DB2D041462046E66820
:104E2000FFF7D3FCB9F1000FA3D12368013DA563BF
:104E300013B900F0A5FD6060236963B104F11000AF
:104E400000F066FC38B1154B4FF080521A60BFF38A
:104E50004F8FBFF36F8FFFF787FA012004B0BDE8D3
:104E6000F0872046FFF7C6FC00F00CFBCFE720469A
:104E7000FFF7C0FC00F006FBFFF754FAA56BFFF745
:104E800073FA002DC3D17FE700F0D4FC00283FF473
:104E900063AF00260027DFF804A0B9E704ED00E0C7
:104EA0002DE9F84389469046054640B94FF0500336
:104EB00083F31188BFF36F8FBFF34F8FFEE771BB92
:104EC000036C63B34FF0500383F31188BFF36F8F0C
:104ED000BFF34F8FFEE795F84460494676B2284607
:104EE000FFF773FC013C731CAC6313D12B690BB946
:104EF00001200BE005F1100000F00AFC0028F7D0BB
:104F0000B8F1000FF4D00120C8F8000087F3118831
:104F1000BDE8F883013676B285F84460E8E7FFF72C
:104F200009FBEFF311874FF0500383F31188BFF3B0
:104F30006F8FBFF34F8FAC6B002CCCD12046E5E7D1
:104F400030B5074A002352F8335002EBC3041DB9B1
:104F500042F83310606030BD0133082BF3D130BD0F
:104F60001421002070B504460D461646FFF7DAF905
:104F700094F84430FF2B04BF002384F8443094F8A5
:104F80004530FF2B04BF002384F84530FFF7ECF9D0
:104F9000A36B2BB93246294604F1240000F09AFB9A
:104FA0002046BDE87040FFF725BC00002DE9F04128
:104FB0000646FFF7B7F92D4B2D4C1A682D4F0132DD
:104FC0001A602568002D45D126601B68012B1CD175
:104FD00078191435FFF704F98C2DF9D1DFF8C0806A
:104FE000254D4046FFF7FCF82846FFF7F9F823481F
:104FF000FFF7F6F82248FFF7F3F82248FFF7F0F83A
:10500000214BC3F80080214B1D60214A21491368C0
:10501000086801331360F26A0123934003431420AC
:105020000B6000FB0270311DFFF7E8F8FFF79CF9F9
:10503000194B1B6863B12368DA6AF36A9A4207D294
:10504000164B4FF080521A60BFF34F8FBFF36F8F34
:10505000BDE8F081104B1B68002BD6D12368DA6ABB
:10506000F36A9A4298BF2660CFE700BFA8120020DB
:10507000101200201C120020D4120020F012002078
:105080001C13002008130020141200201812002006
:10509000B8120020BC1200200413002004ED00E030
:1050A000C0120020064A13681968064B19B94FF060
:1050B000FF321A6070471268D268D2685268F8E707
:1050C00014120020E81200202DE9F0470A9CDDF8B8
:1050D0002480266B02F18042013A06EB82069A4652
:1050E00081464B1E26F0070604F134020F31587832
:1050F00002F8010B13F8010F08B18B42F7D1089D9C
:10510000062D28BF06250027E5626564201D84F86A
:105110004370A764FFF76FF8C5F1070504F11800A5
:10512000FFF769F8E7642461A561646284F8507050
:10513000524649463046FFF7C7F82060B8F1000FE5
:1051400001D0C8F80040BDE8F08710B590F85130A4
:1051500004463BB9006BFFF7CDFA2046BDE810408E
:10516000FFF7C8BA012BF9D0022B08D04FF050033B
:1051700083F31188BFF36F8FBFF34F8FFEE710BD2E
:10518000F8B51B4B1B4E1D680446306804300F46B3
:10519000FFF757F8334640B93168174EC96A32688D
:1051A0000120884022EA00023260621C07D137B138
:1051B000196812480431BDE8F840FFF71FB82C44C5
:1051C0001A68A542546007D90D4A10681968BDE8ED
:1051D000F8400431FFF71EB80A4A10681968043114
:1051E000FFF718F8084B1A68944238BF1C60F8BDE6
:1051F0003013002010120020BC12002008130020E1
:105200001812002014120020E81200204FF0500362
:1052100083F31188BFF36F8FBFF34F8FFEE730B575
:1052200087B00B9D0C9C0DB9FFF7F0FF44B94FF010
:10523000500383F31188BFF36F8FBFF34F8FFEE7E7
:105240002563022584F8515005AD01950A9D02940D
:105250000095FFF739FF2046FFF7A8FE059807B035
:1052600030BD2DE9F043074685B0900088461646CC
:105270009946FFF7B1F90546E8B15420FFF7ACF9BC
:105280000446A8B1002380F851300D9B05630193BB
:105290000C9B0290009332464B4641463846FFF73E
:1052A00013FF2046FFF782FE012005B0BDE8F08322
:1052B0002846FFF71FFA4FF0FF30F6E710B588B029
:1052C000002407AA06A905A80594069400F0C6FFC5
:1052D000059B0293069B019300942346079A144969
:1052E0001448FFF79CFFA0B908B010BD4FF0500361
:1052F00083F31188BFF36F8FBFF34F8F0E4B4FF0C7
:10530000FF321A600D4B18600D4B1C60FFF79CF8C4
:10531000EAE700F093FB0128E8D00130E4D14FF038
:10532000500383F31188BFF36F8FBFF34F8FFEE7F6
:10533000387A0008BD550008E81200200413002048
:1053400030130020024A136801331360704700BF16
:10535000B4120020014B1868704700BF30130020C2
:105360002DE9F84F3C4B1B68002B53D13B4B1C687D
:1053700001341C60BCB93A4B1A68126842B14FF054
:10538000500383F31188BFF36F8FBFF34F8FFEE796
:10539000344A1968106818601160334A1368013381
:1053A0001360FFF77FFE314D314F2B689C424FF069
:1053B000000B3ED3DFF8A880DFF8C490D8F80020B7
:1053C000126872BB4FF0FF322A6032E006F1040A25
:1053D0005046FEF736FFB16A19B106F11800FEF724
:1053E00030FFF06AD9F80030012202FA00F11943C7
:1053F000204BC9F800104FF0140E51460EFB003040
:10540000FEF7FCFE3868F16AC26A914228BF4FF08D
:10541000010BD3E7184A1368013313604FF0000BF8
:1054200011E0D8F80020D268D66871688C42CDD2DD
:1054300029603A680F4BD16A14224A439A58022ACB
:1054400028BF4FF0010B0D4A1268002A18BF4FF019
:10545000010B5846BDE8F88FB4120020301300202D
:105460001412002018120020EC120020E812002074
:10547000101200201C120020B01200203413002053
:10548000BC1200202DE9F843314C236843B94FF09A
:10549000500383F31188BFF36F8FBFF34F8FFEE785
:1054A000FEF740FF2368013B236024682CB10024F1
:1054B000FEF75AFF2046BDE8F883264B1B68002BF9
:1054C000F5D0DFF8A890244FDFF8A480D9F8003099
:1054D000E3B90CB1FFF7E6FD204D2C6844B1204E36
:1054E0000127FFF73DFF00B13760013CF9D12C6087
:1054F0001B4B1B68002BDAD01A4B4FF080521A60FE
:10550000BFF34F8FBFF36F8F0124D1E7D9F80C3071
:10551000DC68261D04F11800FEF793FE3046FEF706
:1055200090FEE26A3968012505FA02F314200B4364
:1055300000FB028031463B60FEF760FE0A4BE26AE8
:105540001B68DB6A9A4224BF054B1D60BEE700BFA3
:10555000B4120020A8120020BC120020B0120020BB
:105560003413002004ED00E010120020F01200209F
:105570001C12002008B540B90E4B4FF080521A6043
:10558000BFF34F8FBFF36F8F08BD0B4B196841B14D
:105590004FF0500383F31188BFF36F8FBFF34F8F2A
:1055A000FEE7FFF7CFFEFFF7EBFDFFF76BFF0028ED
:1055B000E2D008BD04ED00E0B412002008B5164D9D
:1055C000164C236863B9164B1B68012BF8D9154B91
:1055D0004FF080521A60BFF34F8FBFF36F8FEFE72A
:1055E000FFF7B0FE2E68FFF74DFF002EE9D0FEF763
:1055F00099FEEB68DE68301DFEF723FE0A4A136849
:10560000013B13602368013B2360FEF7ADFE30468B
:10561000FFF79BFDD5E700BF1C130020AC12002054
:105620001C12002004ED00E0A8120020174B1A689D
:10563000174B10B512B101221A6010BD1A60154B3C
:105640001B68B3FA83F3DBB2C3F11F0314221249C0
:105650005A4388188C5844B94FF0500383F311888B
:10566000BFF36F8FBFF34F8FFEE744680832646863
:1056700044600A44944204BF62684260142202FB00
:1056800003135B68DA68054BD6E700BFB41200204D
:1056900034130020BC1200201C1200201012002025
:1056A00010B50C4640B94FF0500383F31188BFF397
:1056B0006F8FBFF34F8FFEE7054B19681831FEF768
:1056C000A9FD20460121BDE81040FFF759BD00BFEC
:1056D0001012002038B50D46144640B94FF0500363
:1056E00083F31188BFF36F8FBFF34F8FFEE7074B34
:1056F00019681831FEF782FD002C21460CBF2846A0
:105700004FF0FF30BDE83840FFF73ABD10120020DF
:1057100038B5C368DC6844B94FF0500383F311888F
:10572000BFF36F8FBFF34F8FFEE704F118052846D4
:10573000FEF787FD114B1B68E3B9251D2846FEF7D0
:1057400080FD0F49E26A08680123934003430B6020
:105750000C4B1420294600FB0230FEF74FFD0A4B8C
:10576000E26A1B68DB6A9A4283BF084B012018601B
:10577000002038BD29460648EFE700BFB4120020DC
:10578000BC1200201C120020101200203413002034
:10579000F012002008B508B9FFF738FD034B1B686D
:1057A0000360034B1B68436008BD00BFEC12002080
:1057B0003013002038B50D46044640B94FF0500371
:1057C00083F31188BFF36F8FBFF34F8FFEE741B9AB
:1057D0004FF0500383F31188BFF36F8FBFF34F8FE8
:1057E000FEE7FEF79FFD0E4B19682B685A1C10D080
:1057F0000C4A206812689042626801D091420DD232
:10580000881A83420AD95B1A13442B602046FFF79B
:10581000C1FF0024FEF7A8FD204638BD0124F9E7AA
:1058200030130020EC120020014B01221A60704757
:1058300034130020054B1B6833B1054B1B68002B4C
:105840000CBF022000207047012070470413002085
:10585000B41200202DE9F0410446002838D01D4D37
:10586000C36A2A68D26A934232D282691A4E002AE7
:10587000A1BF2A68D26AC2F1070282611427426975
:1058800007FB03639A4220D100F104084046FEF76B
:10589000D8FC124A48B9E06A4743F3592BB9136858
:1058A0000121814023EA010313602B681168D86A43
:1058B000E062012383400B4313601423414603FB42
:1058C0000060BDE8F041FEF799BC2B68DB6AC3625B
:1058D000BDE8F081101200201C120020BC12002034
:1058E000F8B5044608B90020F8BD224B1B68984261
:1058F00008D04FF0500383F31188BFF36F8FBFF3CD
:105900004F8FFEE7836C43B94FF0500383F3118848
:10591000BFF36F8FBFF34F8FFEE7C16A426C013B4D
:1059200091428364DFD0002BDDD1051D2846FEF7B0
:1059300088FC114E114A50B9E76A14217943735813
:105940002BB913680120B84023EA00031360636C8D
:10595000E362C3F10701A1611168012404FA03F0B5
:1059600008431060142000FB03602946FEF746FC44
:105970002046F8BD101200201C120020BC1200208E
:10598000044B1A681AB119688A6C01328A64186863
:10599000704700BF10120020F7B5114CFEF7C2FC93
:1059A0002568BDB90F4F104E3846FEF719FC30463A
:1059B000FEF716FC0D4B0E4A1F600E4B0C211E60AD
:1059C0000A2000950C4BFEF78DFF206010B10B49AB
:1059D000FFF7B6FA03B0BDE8F040FEF7C5BC00BF64
:1059E0002C140020B8130020CC1300203813002002
:1059F000401300203C130020E41300203D7A0008EF
:105A0000914208B5416000610AD8D21A83699A426E
:105A10000DD2084B011D1868FEF7FCFB002008BDE5
:105A20009A4201D2994202D2011D034BF3E70120B1
:105A300008BD00BF3C1300203813002010B588B00B
:105A4000FFF7AAFF124B1B68B3B1002407AA06A9EF
:105A500005A80594069400F00DFC059B0293069B97
:105A6000019302230093079A0A490B482346FFF744
:105A7000D6FB0A4B186040B94FF0500383F31188EE
:105A8000BFF36F8FBFF34F8FFEE7012008B010BD4B
:105A90002C140020427A00083D5C000830140020DD
:105AA0002DE9F04180462C200D4617461E46FEF794
:105AB00093FD0446C0B145B94FF0500383F31188FC
:105AC000BFF36F8FBFF34F8FFEE7FFF765FF069BB6
:105AD0006362C4F80080A561E7612662201DFEF7BD
